{
  "contractName": "EightFit",
  "address": "0xb313dfe39c5a53e457215d4b8166a3549C5b4F0A",
  "abi": [
    {
      "inputs": [
        {
          "internalType": "uint256",
          "name": "",
          "type": "uint256"
        }
      ],
      "name": "cardioPosts",
      "outputs": [
        {
          "internalType": "uint256",
          "name": "postId",
          "type": "uint256"
        },
        {
          "internalType": "address",
          "name": "userAddress",
          "type": "address"
        },
        {
          "internalType": "string",
          "name": "category",
          "type": "string"
        },
        {
          "internalType": "string",
          "name": "activityName",
          "type": "string"
        },
        {
          "internalType": "uint256",
          "name": "minutesCompleted",
          "type": "uint256"
        },
        {
          "internalType": "string",
          "name": "intensity",
          "type": "string"
        },
        {
          "internalType": "uint256",
          "name": "date",
          "type": "uint256"
        }
      ],
      "stateMutability": "view",
      "type": "function",
      "constant": true
    },
    {
      "inputs": [
        {
          "internalType": "uint256",
          "name": "",
          "type": "uint256"
        }
      ],
      "name": "sleepPosts",
      "outputs": [
        {
          "internalType": "uint256",
          "name": "shortPostId",
          "type": "uint256"
        },
        {
          "internalType": "address",
          "name": "userAddress",
          "type": "address"
        },
        {
          "internalType": "uint256",
          "name": "activityLength",
          "type": "uint256"
        },
        {
          "internalType": "uint256",
          "name": "date",
          "type": "uint256"
        }
      ],
      "stateMutability": "view",
      "type": "function",
      "constant": true
    },
    {
      "inputs": [
        {
          "internalType": "uint256",
          "name": "",
          "type": "uint256"
        }
      ],
      "name": "stepsPosts",
      "outputs": [
        {
          "internalType": "uint256",
          "name": "shortPostId",
          "type": "uint256"
        },
        {
          "internalType": "address",
          "name": "userAddress",
          "type": "address"
        },
        {
          "internalType": "uint256",
          "name": "activityLength",
          "type": "uint256"
        },
        {
          "internalType": "uint256",
          "name": "date",
          "type": "uint256"
        }
      ],
      "stateMutability": "view",
      "type": "function",
      "constant": true
    },
    {
      "inputs": [
        {
          "internalType": "uint256",
          "name": "",
          "type": "uint256"
        }
      ],
      "name": "strengthTrainingPosts",
      "outputs": [
        {
          "internalType": "uint256",
          "name": "postId",
          "type": "uint256"
        },
        {
          "internalType": "address",
          "name": "userAddress",
          "type": "address"
        },
        {
          "internalType": "string",
          "name": "category",
          "type": "string"
        },
        {
          "internalType": "string",
          "name": "activityName",
          "type": "string"
        },
        {
          "internalType": "uint256",
          "name": "minutesCompleted",
          "type": "uint256"
        },
        {
          "internalType": "string",
          "name": "intensity",
          "type": "string"
        },
        {
          "internalType": "uint256",
          "name": "date",
          "type": "uint256"
        }
      ],
      "stateMutability": "view",
      "type": "function",
      "constant": true
    },
    {
      "inputs": [
        {
          "internalType": "uint256",
          "name": "",
          "type": "uint256"
        }
      ],
      "name": "wellbeingPosts",
      "outputs": [
        {
          "internalType": "uint256",
          "name": "postId",
          "type": "uint256"
        },
        {
          "internalType": "address",
          "name": "userAddress",
          "type": "address"
        },
        {
          "internalType": "string",
          "name": "category",
          "type": "string"
        },
        {
          "internalType": "string",
          "name": "activityName",
          "type": "string"
        },
        {
          "internalType": "uint256",
          "name": "minutesCompleted",
          "type": "uint256"
        },
        {
          "internalType": "string",
          "name": "intensity",
          "type": "string"
        },
        {
          "internalType": "uint256",
          "name": "date",
          "type": "uint256"
        }
      ],
      "stateMutability": "view",
      "type": "function",
      "constant": true
    },
    {
      "inputs": [],
      "name": "getStepsPostsCount",
      "outputs": [
        {
          "internalType": "uint256",
          "name": "",
          "type": "uint256"
        }
      ],
      "stateMutability": "view",
      "type": "function",
      "constant": true
    },
    {
      "inputs": [
        {
          "internalType": "uint256",
          "name": "stepsPostId",
          "type": "uint256"
        }
      ],
      "name": "getStepsPost",
      "outputs": [
        {
          "components": [
            {
              "internalType": "uint256",
              "name": "shortPostId",
              "type": "uint256"
            },
            {
              "internalType": "address",
              "name": "userAddress",
              "type": "address"
            },
            {
              "internalType": "uint256",
              "name": "activityLength",
              "type": "uint256"
            },
            {
              "internalType": "uint256",
              "name": "date",
              "type": "uint256"
            }
          ],
          "internalType": "struct EightFit.ShortPost",
          "name": "",
          "type": "tuple"
        }
      ],
      "stateMutability": "view",
      "type": "function",
      "constant": true
    },
    {
      "inputs": [],
      "name": "getSleepPostsCount",
      "outputs": [
        {
          "internalType": "uint256",
          "name": "",
          "type": "uint256"
        }
      ],
      "stateMutability": "view",
      "type": "function",
      "constant": true
    },
    {
      "inputs": [
        {
          "internalType": "uint256",
          "name": "sleepPostId",
          "type": "uint256"
        }
      ],
      "name": "getSleepPost",
      "outputs": [
        {
          "components": [
            {
              "internalType": "uint256",
              "name": "shortPostId",
              "type": "uint256"
            },
            {
              "internalType": "address",
              "name": "userAddress",
              "type": "address"
            },
            {
              "internalType": "uint256",
              "name": "activityLength",
              "type": "uint256"
            },
            {
              "internalType": "uint256",
              "name": "date",
              "type": "uint256"
            }
          ],
          "internalType": "struct EightFit.ShortPost",
          "name": "",
          "type": "tuple"
        }
      ],
      "stateMutability": "view",
      "type": "function",
      "constant": true
    },
    {
      "inputs": [],
      "name": "getCardioPostsCount",
      "outputs": [
        {
          "internalType": "uint256",
          "name": "",
          "type": "uint256"
        }
      ],
      "stateMutability": "view",
      "type": "function",
      "constant": true
    },
    {
      "inputs": [
        {
          "internalType": "uint256",
          "name": "cardioPostId",
          "type": "uint256"
        }
      ],
      "name": "getCardioPost",
      "outputs": [
        {
          "components": [
            {
              "internalType": "uint256",
              "name": "postId",
              "type": "uint256"
            },
            {
              "internalType": "address",
              "name": "userAddress",
              "type": "address"
            },
            {
              "internalType": "string",
              "name": "category",
              "type": "string"
            },
            {
              "internalType": "string",
              "name": "activityName",
              "type": "string"
            },
            {
              "internalType": "uint256",
              "name": "minutesCompleted",
              "type": "uint256"
            },
            {
              "internalType": "string",
              "name": "intensity",
              "type": "string"
            },
            {
              "internalType": "uint256",
              "name": "date",
              "type": "uint256"
            }
          ],
          "internalType": "struct EightFit.Post",
          "name": "",
          "type": "tuple"
        }
      ],
      "stateMutability": "view",
      "type": "function",
      "constant": true
    },
    {
      "inputs": [],
      "name": "getStrengthTrainingPostsCount",
      "outputs": [
        {
          "internalType": "uint256",
          "name": "",
          "type": "uint256"
        }
      ],
      "stateMutability": "view",
      "type": "function",
      "constant": true
    },
    {
      "inputs": [
        {
          "internalType": "uint256",
          "name": "strengthTrainingPostId",
          "type": "uint256"
        }
      ],
      "name": "getStrengthTrainingPost",
      "outputs": [
        {
          "components": [
            {
              "internalType": "uint256",
              "name": "postId",
              "type": "uint256"
            },
            {
              "internalType": "address",
              "name": "userAddress",
              "type": "address"
            },
            {
              "internalType": "string",
              "name": "category",
              "type": "string"
            },
            {
              "internalType": "string",
              "name": "activityName",
              "type": "string"
            },
            {
              "internalType": "uint256",
              "name": "minutesCompleted",
              "type": "uint256"
            },
            {
              "internalType": "string",
              "name": "intensity",
              "type": "string"
            },
            {
              "internalType": "uint256",
              "name": "date",
              "type": "uint256"
            }
          ],
          "internalType": "struct EightFit.Post",
          "name": "",
          "type": "tuple"
        }
      ],
      "stateMutability": "view",
      "type": "function",
      "constant": true
    },
    {
      "inputs": [],
      "name": "getWellbeingPostsCount",
      "outputs": [
        {
          "internalType": "uint256",
          "name": "",
          "type": "uint256"
        }
      ],
      "stateMutability": "view",
      "type": "function",
      "constant": true
    },
    {
      "inputs": [
        {
          "internalType": "uint256",
          "name": "wellbeingPostId",
          "type": "uint256"
        }
      ],
      "name": "getWellbeingPost",
      "outputs": [
        {
          "components": [
            {
              "internalType": "uint256",
              "name": "postId",
              "type": "uint256"
            },
            {
              "internalType": "address",
              "name": "userAddress",
              "type": "address"
            },
            {
              "internalType": "string",
              "name": "category",
              "type": "string"
            },
            {
              "internalType": "string",
              "name": "activityName",
              "type": "string"
            },
            {
              "internalType": "uint256",
              "name": "minutesCompleted",
              "type": "uint256"
            },
            {
              "internalType": "string",
              "name": "intensity",
              "type": "string"
            },
            {
              "internalType": "uint256",
              "name": "date",
              "type": "uint256"
            }
          ],
          "internalType": "struct EightFit.Post",
          "name": "",
          "type": "tuple"
        }
      ],
      "stateMutability": "view",
      "type": "function",
      "constant": true
    },
    {
      "inputs": [
        {
          "internalType": "address",
          "name": "dataStorageContractAddress",
          "type": "address"
        }
      ],
      "name": "setStorageAddress",
      "outputs": [],
      "stateMutability": "nonpayable",
      "type": "function"
    },
    {
      "inputs": [
        {
          "internalType": "address",
          "name": "userAddress",
          "type": "address"
        },
        {
          "internalType": "uint256",
          "name": "stepsTakenToday",
          "type": "uint256"
        },
        {
          "internalType": "uint256",
          "name": "date",
          "type": "uint256"
        }
      ],
      "name": "addDailyStepPost",
      "outputs": [],
      "stateMutability": "nonpayable",
      "type": "function"
    },
    {
      "inputs": [
        {
          "internalType": "uint256",
          "name": "stepsPostId",
          "type": "uint256"
        }
      ],
      "name": "deleteDailyStepCountPost",
      "outputs": [],
      "stateMutability": "nonpayable",
      "type": "function"
    },
    {
      "inputs": [
        {
          "internalType": "address",
          "name": "userAddress",
          "type": "address"
        },
        {
          "internalType": "uint256",
          "name": "hoursSlept",
          "type": "uint256"
        },
        {
          "internalType": "uint256",
          "name": "date",
          "type": "uint256"
        }
      ],
      "name": "addSleepPost",
      "outputs": [],
      "stateMutability": "nonpayable",
      "type": "function"
    },
    {
      "inputs": [
        {
          "internalType": "uint256",
          "name": "sleepPostId",
          "type": "uint256"
        }
      ],
      "name": "deleteSleepPost",
      "outputs": [],
      "stateMutability": "nonpayable",
      "type": "function"
    },
    {
      "inputs": [
        {
          "internalType": "address",
          "name": "userAddress",
          "type": "address"
        },
        {
          "internalType": "string",
          "name": "category",
          "type": "string"
        },
        {
          "internalType": "string",
          "name": "activityName",
          "type": "string"
        },
        {
          "internalType": "uint256",
          "name": "minutesCompleted",
          "type": "uint256"
        },
        {
          "internalType": "string",
          "name": "intensity",
          "type": "string"
        },
        {
          "internalType": "uint256",
          "name": "date",
          "type": "uint256"
        }
      ],
      "name": "addCardioPost",
      "outputs": [],
      "stateMutability": "nonpayable",
      "type": "function"
    },
    {
      "inputs": [
        {
          "internalType": "uint256",
          "name": "cardioPostId",
          "type": "uint256"
        }
      ],
      "name": "deleteCardioPost",
      "outputs": [],
      "stateMutability": "nonpayable",
      "type": "function"
    },
    {
      "inputs": [
        {
          "internalType": "address",
          "name": "userAddress",
          "type": "address"
        },
        {
          "internalType": "string",
          "name": "category",
          "type": "string"
        },
        {
          "internalType": "string",
          "name": "activityName",
          "type": "string"
        },
        {
          "internalType": "uint256",
          "name": "minutesCompleted",
          "type": "uint256"
        },
        {
          "internalType": "string",
          "name": "intensity",
          "type": "string"
        },
        {
          "internalType": "uint256",
          "name": "date",
          "type": "uint256"
        }
      ],
      "name": "addStrengthTrainingPost",
      "outputs": [],
      "stateMutability": "nonpayable",
      "type": "function"
    },
    {
      "inputs": [
        {
          "internalType": "uint256",
          "name": "strengthTrainingPostId",
          "type": "uint256"
        }
      ],
      "name": "deleteStrengthTrainingPost",
      "outputs": [],
      "stateMutability": "nonpayable",
      "type": "function"
    },
    {
      "inputs": [
        {
          "internalType": "address",
          "name": "userAddress",
          "type": "address"
        },
        {
          "internalType": "string",
          "name": "category",
          "type": "string"
        },
        {
          "internalType": "string",
          "name": "activityName",
          "type": "string"
        },
        {
          "internalType": "uint256",
          "name": "minutesCompleted",
          "type": "uint256"
        },
        {
          "internalType": "string",
          "name": "intensity",
          "type": "string"
        },
        {
          "internalType": "uint256",
          "name": "date",
          "type": "uint256"
        }
      ],
      "name": "addWellbeingPost",
      "outputs": [],
      "stateMutability": "nonpayable",
      "type": "function"
    },
    {
      "inputs": [
        {
          "internalType": "uint256",
          "name": "wellbeingPostId",
          "type": "uint256"
        }
      ],
      "name": "deleteWellbeingPost",
      "outputs": [],
      "stateMutability": "nonpayable",
      "type": "function"
    }
  ],
  "bytecode": "0x608060405234801561001057600080fd5b506136bc806100206000396000f3fe608060405234801561001057600080fd5b506004361061018e5760003560e01c80637e6997b7116100de578063b6cd68d111610097578063c0cc399411610071578063c0cc3994146104a3578063c811839e146104d6578063cf0063ed146104f2578063db73c93c146105255761018e565b8063b6cd68d11461044f578063baaaa1401461046b578063bb1cd776146104875761018e565b80637e6997b71461038f5780638036d92c146103ad5780638f8abeee146103c957806395702896146103f95780639fb204e114610415578063a753b8e1146104335761018e565b80632e362f9c1161014b57806343feb6d11161012557806343feb6d11461030357806359b910d6146103395780636346531f1461035557806377e20d07146103715761018e565b80632e362f9c146102815780632e6a43dc146102b75780633e7520bd146102e75761018e565b80630204f8171461019357806305718a34146101af57806314f6c01e146101e55780631741ae1314610215578063174debcf1461023357806326ebf1c514610251575b600080fd5b6101ad60048036038101906101a89190612b8f565b610555565b005b6101c960048036038101906101c49190612b8f565b610781565b6040516101dc9796959493929190612ca5565b60405180910390f35b6101ff60048036038101906101fa9190612b8f565b61098b565b60405161020c9190612d9c565b60405180910390f35b61021d610a47565b60405161022a9190612db7565b60405180910390f35b61023b610a54565b6040516102489190612db7565b60405180910390f35b61026b60048036038101906102669190612b8f565b610a61565b6040516102789190612d9c565b60405180910390f35b61029b60048036038101906102969190612b8f565b610b1c565b6040516102ae9796959493929190612ca5565b60405180910390f35b6102d160048036038101906102cc9190612b8f565b610d26565b6040516102de9190612ec6565b60405180910390f35b61030160048036038101906102fc9190612f14565b610f98565b005b61031d60048036038101906103189190612b8f565b611106565b6040516103309796959493929190612ca5565b60405180910390f35b610353600480360381019061034e9190612f67565b611310565b005b61036f600480360381019061036a9190612b8f565b611354565b005b610379611580565b6040516103869190612db7565b60405180910390f35b61039761158d565b6040516103a49190612db7565b60405180910390f35b6103c760048036038101906103c29190612f14565b611599565b005b6103e360048036038101906103de9190612b8f565b611708565b6040516103f09190612ec6565b60405180910390f35b610413600480360381019061040e91906130c9565b61197a565b005b61041d611bdd565b60405161042a9190612db7565b60405180910390f35b61044d60048036038101906104489190612b8f565b611bea565b005b610469600480360381019061046491906130c9565b611e16565b005b610485600480360381019061048091906130c9565b612079565b005b6104a1600480360381019061049c9190612b8f565b6122dc565b005b6104bd60048036038101906104b89190612b8f565b612478565b6040516104cd94939291906131aa565b60405180910390f35b6104f060048036038101906104eb9190612b8f565b6124d8565b005b61050c60048036038101906105079190612b8f565b612672565b60405161051c94939291906131aa565b60405180910390f35b61053f600480360381019061053a9190612b8f565b6126d2565b60405161054c9190612ec6565b60405180910390f35b60005b60038054905081101561077d57816003828154811061057a576105796131ef565b5b906000526020600020906007020160000154141561076a57600360016003805490506105a6919061324d565b815481106105b7576105b66131ef565b5b9060005260206000209060070201600382815481106105d9576105d86131ef565b5b9060005260206000209060070201600082015481600001556001820160009054906101000a900473ffffffffffffffffffffffffffffffffffffffff168160010160006101000a81548173ffffffffffffffffffffffffffffffffffffffff021916908373ffffffffffffffffffffffffffffffffffffffff160217905550600282018160020190805461066c906132b0565b610677929190612944565b50600382018160030190805461068c906132b0565b610697929190612944565b506004820154816004015560058201816005019080546106b6906132b0565b6106c1929190612944565b506006820154816006015590505060038054806106e1576106e06132e2565b5b60019003818190600052602060002090600702016000808201600090556001820160006101000a81549073ffffffffffffffffffffffffffffffffffffffff021916905560028201600061073591906129d1565b60038201600061074591906129d1565b600482016000905560058201600061075d91906129d1565b6006820160009055505090555b808061077590613311565b915050610558565b5050565b6003818154811061079157600080fd5b90600052602060002090600702016000915090508060000154908060010160009054906101000a900473ffffffffffffffffffffffffffffffffffffffff16908060020180546107e0906132b0565b80601f016020809104026020016040519081016040528092919081815260200182805461080c906132b0565b80156108595780601f1061082e57610100808354040283529160200191610859565b820191906000526020600020905b81548152906001019060200180831161083c57829003601f168201915b50505050509080600301805461086e906132b0565b80601f016020809104026020016040519081016040528092919081815260200182805461089a906132b0565b80156108e75780601f106108bc576101008083540402835291602001916108e7565b820191906000526020600020905b8154815290600101906020018083116108ca57829003601f168201915b505050505090806004015490806005018054610902906132b0565b80601f016020809104026020016040519081016040528092919081815260200182805461092e906132b0565b801561097b5780601f106109505761010080835404028352916020019161097b565b820191906000526020600020905b81548152906001019060200180831161095e57829003601f168201915b5050505050908060060154905087565b610993612a11565b60006001836109a2919061324d565b815481106109b3576109b26131ef565b5b9060005260206000209060040201604051806080016040529081600082015481526020016001820160009054906101000a900473ffffffffffffffffffffffffffffffffffffffff1673ffffffffffffffffffffffffffffffffffffffff1673ffffffffffffffffffffffffffffffffffffffff168152602001600282015481526020016003820154815250509050919050565b6000600180549050905090565b6000600280549050905090565b610a69612a11565b60018083610a77919061324d565b81548110610a8857610a876131ef565b5b9060005260206000209060040201604051806080016040529081600082015481526020016001820160009054906101000a900473ffffffffffffffffffffffffffffffffffffffff1673ffffffffffffffffffffffffffffffffffffffff1673ffffffffffffffffffffffffffffffffffffffff168152602001600282015481526020016003820154815250509050919050565b60028181548110610b2c57600080fd5b90600052602060002090600702016000915090508060000154908060010160009054906101000a900473ffffffffffffffffffffffffffffffffffffffff1690806002018054610b7b906132b0565b80601f0160208091040260200160405190810160405280929190818152602001828054610ba7906132b0565b8015610bf45780601f10610bc957610100808354040283529160200191610bf4565b820191906000526020600020905b815481529060010190602001808311610bd757829003601f168201915b505050505090806003018054610c09906132b0565b80601f0160208091040260200160405190810160405280929190818152602001828054610c35906132b0565b8015610c825780601f10610c5757610100808354040283529160200191610c82565b820191906000526020600020905b815481529060010190602001808311610c6557829003601f168201915b505050505090806004015490806005018054610c9d906132b0565b80601f0160208091040260200160405190810160405280929190818152602001828054610cc9906132b0565b8015610d165780601f10610ceb57610100808354040283529160200191610d16565b820191906000526020600020905b815481529060010190602001808311610cf957829003601f168201915b5050505050908060060154905087565b610d2e612a4f565b6002600183610d3d919061324d565b81548110610d4e57610d4d6131ef565b5b90600052602060002090600702016040518060e0016040529081600082015481526020016001820160009054906101000a900473ffffffffffffffffffffffffffffffffffffffff1673ffffffffffffffffffffffffffffffffffffffff1673ffffffffffffffffffffffffffffffffffffffff168152602001600282018054610dd7906132b0565b80601f0160208091040260200160405190810160405280929190818152602001828054610e03906132b0565b8015610e505780601f10610e2557610100808354040283529160200191610e50565b820191906000526020600020905b815481529060010190602001808311610e3357829003601f168201915b50505050508152602001600382018054610e69906132b0565b80601f0160208091040260200160405190810160405280929190818152602001828054610e95906132b0565b8015610ee25780601f10610eb757610100808354040283529160200191610ee2565b820191906000526020600020905b815481529060010190602001808311610ec557829003601f168201915b5050505050815260200160048201548152602001600582018054610f05906132b0565b80601f0160208091040260200160405190810160405280929190818152602001828054610f31906132b0565b8015610f7e5780601f10610f5357610100808354040283529160200191610f7e565b820191906000526020600020905b815481529060010190602001808311610f6157829003601f168201915b505050505081526020016006820154815250509050919050565b6001604051806080016040528060018080549050610fb6919061335a565b81526020018573ffffffffffffffffffffffffffffffffffffffff1681526020018481526020018381525090806001815401808255809150506001900390600052602060002090600402016000909190919091506000820151816000015560208201518160010160006101000a81548173ffffffffffffffffffffffffffffffffffffffff021916908373ffffffffffffffffffffffffffffffffffffffff16021790555060408201518160020155606082015181600301555050600560009054906101000a900473ffffffffffffffffffffffffffffffffffffffff1673ffffffffffffffffffffffffffffffffffffffff1663507cd30f8460036040518363ffffffff1660e01b81526004016110cf9291906133f5565b600060405180830381600087803b1580156110e957600080fd5b505af11580156110fd573d6000803e3d6000fd5b50505050505050565b6004818154811061111657600080fd5b90600052602060002090600702016000915090508060000154908060010160009054906101000a900473ffffffffffffffffffffffffffffffffffffffff1690806002018054611165906132b0565b80601f0160208091040260200160405190810160405280929190818152602001828054611191906132b0565b80156111de5780601f106111b3576101008083540402835291602001916111de565b820191906000526020600020905b8154815290600101906020018083116111c157829003601f168201915b5050505050908060030180546111f3906132b0565b80601f016020809104026020016040519081016040528092919081815260200182805461121f906132b0565b801561126c5780601f106112415761010080835404028352916020019161126c565b820191906000526020600020905b81548152906001019060200180831161124f57829003601f168201915b505050505090806004015490806005018054611287906132b0565b80601f01602080910402602001604051908101604052809291908181526020018280546112b3906132b0565b80156113005780601f106112d557610100808354040283529160200191611300565b820191906000526020600020905b8154815290600101906020018083116112e357829003601f168201915b5050505050908060060154905087565b80600560006101000a81548173ffffffffffffffffffffffffffffffffffffffff021916908373ffffffffffffffffffffffffffffffffffffffff16021790555050565b60005b60048054905081101561157c578160048281548110611379576113786131ef565b5b906000526020600020906007020160000154141561156957600460016004805490506113a5919061324d565b815481106113b6576113b56131ef565b5b9060005260206000209060070201600482815481106113d8576113d76131ef565b5b9060005260206000209060070201600082015481600001556001820160009054906101000a900473ffffffffffffffffffffffffffffffffffffffff168160010160006101000a81548173ffffffffffffffffffffffffffffffffffffffff021916908373ffffffffffffffffffffffffffffffffffffffff160217905550600282018160020190805461146b906132b0565b611476929190612944565b50600382018160030190805461148b906132b0565b611496929190612944565b506004820154816004015560058201816005019080546114b5906132b0565b6114c0929190612944565b506006820154816006015590505060048054806114e0576114df6132e2565b5b60019003818190600052602060002090600702016000808201600090556001820160006101000a81549073ffffffffffffffffffffffffffffffffffffffff021916905560028201600061153491906129d1565b60038201600061154491906129d1565b600482016000905560058201600061155c91906129d1565b6006820160009055505090555b808061157490613311565b915050611357565b5050565b6000600480549050905090565b60008080549050905090565b6000604051806080016040528060016000805490506115b8919061335a565b81526020018573ffffffffffffffffffffffffffffffffffffffff1681526020018481526020018381525090806001815401808255809150506001900390600052602060002090600402016000909190919091506000820151816000015560208201518160010160006101000a81548173ffffffffffffffffffffffffffffffffffffffff021916908373ffffffffffffffffffffffffffffffffffffffff16021790555060408201518160020155606082015181600301555050600560009054906101000a900473ffffffffffffffffffffffffffffffffffffffff1673ffffffffffffffffffffffffffffffffffffffff1663507cd30f84600a6040518363ffffffff1660e01b81526004016116d1929190613459565b600060405180830381600087803b1580156116eb57600080fd5b505af11580156116ff573d6000803e3d6000fd5b50505050505050565b611710612a4f565b600360018361171f919061324d565b815481106117305761172f6131ef565b5b90600052602060002090600702016040518060e0016040529081600082015481526020016001820160009054906101000a900473ffffffffffffffffffffffffffffffffffffffff1673ffffffffffffffffffffffffffffffffffffffff1673ffffffffffffffffffffffffffffffffffffffff1681526020016002820180546117b9906132b0565b80601f01602080910402602001604051908101604052809291908181526020018280546117e5906132b0565b80156118325780601f1061180757610100808354040283529160200191611832565b820191906000526020600020905b81548152906001019060200180831161181557829003601f168201915b5050505050815260200160038201805461184b906132b0565b80601f0160208091040260200160405190810160405280929190818152602001828054611877906132b0565b80156118c45780601f10611899576101008083540402835291602001916118c4565b820191906000526020600020905b8154815290600101906020018083116118a757829003601f168201915b50505050508152602001600482015481526020016005820180546118e7906132b0565b80601f0160208091040260200160405190810160405280929190818152602001828054611913906132b0565b80156119605780601f1061193557610100808354040283529160200191611960565b820191906000526020600020905b81548152906001019060200180831161194357829003601f168201915b505050505081526020016006820154815250509050919050565b60008551116119be576040517f08c379a00000000000000000000000000000000000000000000000000000000081526004016119b5906134ce565b60405180910390fd5b6000845111611a02576040517f08c379a00000000000000000000000000000000000000000000000000000000081526004016119f99061353a565b60405180910390fd5b60036040518060e001604052806001600380549050611a21919061335a565b81526020018873ffffffffffffffffffffffffffffffffffffffff1681526020018781526020018681526020018581526020018481526020018381525090806001815401808255809150506001900390600052602060002090600702016000909190919091506000820151816000015560208201518160010160006101000a81548173ffffffffffffffffffffffffffffffffffffffff021916908373ffffffffffffffffffffffffffffffffffffffff1602179055506040820151816002019080519060200190611af4929190612aa2565b506060820151816003019080519060200190611b11929190612aa2565b506080820151816004015560a0820151816005019080519060200190611b38929190612aa2565b5060c082015181600601555050600560009054906101000a900473ffffffffffffffffffffffffffffffffffffffff1673ffffffffffffffffffffffffffffffffffffffff1663507cd30f87601e6040518363ffffffff1660e01b8152600401611ba3929190613595565b600060405180830381600087803b158015611bbd57600080fd5b505af1158015611bd1573d6000803e3d6000fd5b50505050505050505050565b6000600380549050905090565b60005b600280549050811015611e12578160028281548110611c0f57611c0e6131ef565b5b9060005260206000209060070201600001541415611dff5760026001600280549050611c3b919061324d565b81548110611c4c57611c4b6131ef565b5b906000526020600020906007020160028281548110611c6e57611c6d6131ef565b5b9060005260206000209060070201600082015481600001556001820160009054906101000a900473ffffffffffffffffffffffffffffffffffffffff168160010160006101000a81548173ffffffffffffffffffffffffffffffffffffffff021916908373ffffffffffffffffffffffffffffffffffffffff1602179055506002820181600201908054611d01906132b0565b611d0c929190612944565b506003820181600301908054611d21906132b0565b611d2c929190612944565b50600482015481600401556005820181600501908054611d4b906132b0565b611d56929190612944565b50600682015481600601559050506002805480611d7657611d756132e2565b5b60019003818190600052602060002090600702016000808201600090556001820160006101000a81549073ffffffffffffffffffffffffffffffffffffffff0219169055600282016000611dca91906129d1565b600382016000611dda91906129d1565b6004820160009055600582016000611df291906129d1565b6006820160009055505090555b8080611e0a90613311565b915050611bed565b5050565b6000855111611e5a576040517f08c379a0000000000000000000000000000000000000000000000000000000008152600401611e51906134ce565b60405180910390fd5b6000845111611e9e576040517f08c379a0000000000000000000000000000000000000000000000000000000008152600401611e959061353a565b60405180910390fd5b60046040518060e001604052806001600480549050611ebd919061335a565b81526020018873ffffffffffffffffffffffffffffffffffffffff1681526020018781526020018681526020018581526020018481526020018381525090806001815401808255809150506001900390600052602060002090600702016000909190919091506000820151816000015560208201518160010160006101000a81548173ffffffffffffffffffffffffffffffffffffffff021916908373ffffffffffffffffffffffffffffffffffffffff1602179055506040820151816002019080519060200190611f90929190612aa2565b506060820151816003019080519060200190611fad929190612aa2565b506080820151816004015560a0820151816005019080519060200190611fd4929190612aa2565b5060c082015181600601555050600560009054906101000a900473ffffffffffffffffffffffffffffffffffffffff1673ffffffffffffffffffffffffffffffffffffffff1663507cd30f8760146040518363ffffffff1660e01b815260040161203f9291906135f9565b600060405180830381600087803b15801561205957600080fd5b505af115801561206d573d6000803e3d6000fd5b50505050505050505050565b60008551116120bd576040517f08c379a00000000000000000000000000000000000000000000000000000000081526004016120b4906134ce565b60405180910390fd5b6000845111612101576040517f08c379a00000000000000000000000000000000000000000000000000000000081526004016120f89061353a565b60405180910390fd5b60026040518060e001604052806001600280549050612120919061335a565b81526020018873ffffffffffffffffffffffffffffffffffffffff1681526020018781526020018681526020018581526020018481526020018381525090806001815401808255809150506001900390600052602060002090600702016000909190919091506000820151816000015560208201518160010160006101000a81548173ffffffffffffffffffffffffffffffffffffffff021916908373ffffffffffffffffffffffffffffffffffffffff16021790555060408201518160020190805190602001906121f3929190612aa2565b506060820151816003019080519060200190612210929190612aa2565b506080820151816004015560a0820151816005019080519060200190612237929190612aa2565b5060c082015181600601555050600560009054906101000a900473ffffffffffffffffffffffffffffffffffffffff1673ffffffffffffffffffffffffffffffffffffffff1663507cd30f8760196040518363ffffffff1660e01b81526004016122a292919061365d565b600060405180830381600087803b1580156122bc57600080fd5b505af11580156122d0573d6000803e3d6000fd5b50505050505050505050565b60005b600080549050811015612474578160008281548110612301576123006131ef565b5b9060005260206000209060040201600001541415612461576000600160008054905061232d919061324d565b8154811061233e5761233d6131ef565b5b9060005260206000209060040201600082815481106123605761235f6131ef565b5b9060005260206000209060040201600082015481600001556001820160009054906101000a900473ffffffffffffffffffffffffffffffffffffffff168160010160006101000a81548173ffffffffffffffffffffffffffffffffffffffff021916908373ffffffffffffffffffffffffffffffffffffffff16021790555060028201548160020155600382015481600301559050506000805480612408576124076132e2565b5b60019003818190600052602060002090600402016000808201600090556001820160006101000a81549073ffffffffffffffffffffffffffffffffffffffff021916905560028201600090556003820160009055505090555b808061246c90613311565b9150506122df565b5050565b6001818154811061248857600080fd5b90600052602060002090600402016000915090508060000154908060010160009054906101000a900473ffffffffffffffffffffffffffffffffffffffff16908060020154908060030154905084565b60005b60018054905081101561266e5781600182815481106124fd576124fc6131ef565b5b906000526020600020906004020160000154141561265b576001808080549050612527919061324d565b81548110612538576125376131ef565b5b90600052602060002090600402016001828154811061255a576125596131ef565b5b9060005260206000209060040201600082015481600001556001820160009054906101000a900473ffffffffffffffffffffffffffffffffffffffff168160010160006101000a81548173ffffffffffffffffffffffffffffffffffffffff021916908373ffffffffffffffffffffffffffffffffffffffff16021790555060028201548160020155600382015481600301559050506001805480612602576126016132e2565b5b60019003818190600052602060002090600402016000808201600090556001820160006101000a81549073ffffffffffffffffffffffffffffffffffffffff021916905560028201600090556003820160009055505090555b808061266690613311565b9150506124db565b5050565b6000818154811061268257600080fd5b90600052602060002090600402016000915090508060000154908060010160009054906101000a900473ffffffffffffffffffffffffffffffffffffffff16908060020154908060030154905084565b6126da612a4f565b60046001836126e9919061324d565b815481106126fa576126f96131ef565b5b90600052602060002090600702016040518060e0016040529081600082015481526020016001820160009054906101000a900473ffffffffffffffffffffffffffffffffffffffff1673ffffffffffffffffffffffffffffffffffffffff1673ffffffffffffffffffffffffffffffffffffffff168152602001600282018054612783906132b0565b80601f01602080910402602001604051908101604052809291908181526020018280546127af906132b0565b80156127fc5780601f106127d1576101008083540402835291602001916127fc565b820191906000526020600020905b8154815290600101906020018083116127df57829003601f168201915b50505050508152602001600382018054612815906132b0565b80601f0160208091040260200160405190810160405280929190818152602001828054612841906132b0565b801561288e5780601f106128635761010080835404028352916020019161288e565b820191906000526020600020905b81548152906001019060200180831161287157829003601f168201915b50505050508152602001600482015481526020016005820180546128b1906132b0565b80601f01602080910402602001604051908101604052809291908181526020018280546128dd906132b0565b801561292a5780601f106128ff5761010080835404028352916020019161292a565b820191906000526020600020905b81548152906001019060200180831161290d57829003601f168201915b505050505081526020016006820154815250509050919050565b828054612950906132b0565b90600052602060002090601f01602090048101928261297257600085556129c0565b82601f1061298357805485556129c0565b828001600101855582156129c057600052602060002091601f016020900482015b828111156129bf5782548255916001019190600101906129a4565b5b5090506129cd9190612b28565b5090565b5080546129dd906132b0565b6000825580601f106129ef5750612a0e565b601f016020900490600052602060002090810190612a0d9190612b28565b5b50565b604051806080016040528060008152602001600073ffffffffffffffffffffffffffffffffffffffff16815260200160008152602001600081525090565b6040518060e0016040528060008152602001600073ffffffffffffffffffffffffffffffffffffffff16815260200160608152602001606081526020016000815260200160608152602001600081525090565b828054612aae906132b0565b90600052602060002090601f016020900481019282612ad05760008555612b17565b82601f10612ae957805160ff1916838001178555612b17565b82800160010185558215612b17579182015b82811115612b16578251825591602001919060010190612afb565b5b509050612b249190612b28565b5090565b5b80821115612b41576000816000905550600101612b29565b5090565b6000604051905090565b600080fd5b600080fd5b6000819050919050565b612b6c81612b59565b8114612b7757600080fd5b50565b600081359050612b8981612b63565b92915050565b600060208284031215612ba557612ba4612b4f565b5b6000612bb384828501612b7a565b91505092915050565b612bc581612b59565b82525050565b600073ffffffffffffffffffffffffffffffffffffffff82169050919050565b6000612bf682612bcb565b9050919050565b612c0681612beb565b82525050565b600081519050919050565b600082825260208201905092915050565b60005b83811015612c46578082015181840152602081019050612c2b565b83811115612c55576000848401525b50505050565b6000601f19601f8301169050919050565b6000612c7782612c0c565b612c818185612c17565b9350612c91818560208601612c28565b612c9a81612c5b565b840191505092915050565b600060e082019050612cba600083018a612bbc565b612cc76020830189612bfd565b8181036040830152612cd98188612c6c565b90508181036060830152612ced8187612c6c565b9050612cfc6080830186612bbc565b81810360a0830152612d0e8185612c6c565b9050612d1d60c0830184612bbc565b98975050505050505050565b612d3281612b59565b82525050565b612d4181612beb565b82525050565b608082016000820151612d5d6000850182612d29565b506020820151612d706020850182612d38565b506040820151612d836040850182612d29565b506060820151612d966060850182612d29565b50505050565b6000608082019050612db16000830184612d47565b92915050565b6000602082019050612dcc6000830184612bbc565b92915050565b600082825260208201905092915050565b6000612dee82612c0c565b612df88185612dd2565b9350612e08818560208601612c28565b612e1181612c5b565b840191505092915050565b600060e083016000830151612e346000860182612d29565b506020830151612e476020860182612d38565b5060408301518482036040860152612e5f8282612de3565b91505060608301518482036060860152612e798282612de3565b9150506080830151612e8e6080860182612d29565b5060a083015184820360a0860152612ea68282612de3565b91505060c0830151612ebb60c0860182612d29565b508091505092915050565b60006020820190508181036000830152612ee08184612e1c565b905092915050565b612ef181612beb565b8114612efc57600080fd5b50565b600081359050612f0e81612ee8565b92915050565b600080600060608486031215612f2d57612f2c612b4f565b5b6000612f3b86828701612eff565b9350506020612f4c86828701612b7a565b9250506040612f5d86828701612b7a565b9150509250925092565b600060208284031215612f7d57612f7c612b4f565b5b6000612f8b84828501612eff565b91505092915050565b600080fd5b600080fd5b7f4e487b7100000000000000000000000000000000000000000000000000000000600052604160045260246000fd5b612fd682612c5b565b810181811067ffffffffffffffff82111715612ff557612ff4612f9e565b5b80604052505050565b6000613008612b45565b90506130148282612fcd565b919050565b600067ffffffffffffffff82111561303457613033612f9e565b5b61303d82612c5b565b9050602081019050919050565b82818337600083830152505050565b600061306c61306784613019565b612ffe565b90508281526020810184848401111561308857613087612f99565b5b61309384828561304a565b509392505050565b600082601f8301126130b0576130af612f94565b5b81356130c0848260208601613059565b91505092915050565b60008060008060008060c087890312156130e6576130e5612b4f565b5b60006130f489828a01612eff565b965050602087013567ffffffffffffffff81111561311557613114612b54565b5b61312189828a0161309b565b955050604087013567ffffffffffffffff81111561314257613141612b54565b5b61314e89828a0161309b565b945050606061315f89828a01612b7a565b935050608087013567ffffffffffffffff8111156131805761317f612b54565b5b61318c89828a0161309b565b92505060a061319d89828a01612b7a565b9150509295509295509295565b60006080820190506131bf6000830187612bbc565b6131cc6020830186612bfd565b6131d96040830185612bbc565b6131e66060830184612bbc565b95945050505050565b7f4e487b7100000000000000000000000000000000000000000000000000000000600052603260045260246000fd5b7f4e487b7100000000000000000000000000000000000000000000000000000000600052601160045260246000fd5b600061325882612b59565b915061326383612b59565b9250828210156132765761327561321e565b5b828203905092915050565b7f4e487b7100000000000000000000000000000000000000000000000000000000600052602260045260246000fd5b600060028204905060018216806132c857607f821691505b602082108114156132dc576132db613281565b5b50919050565b7f4e487b7100000000000000000000000000000000000000000000000000000000600052603160045260246000fd5b600061331c82612b59565b91507fffffffffffffffffffffffffffffffffffffffffffffffffffffffffffffffff82141561334f5761334e61321e565b5b600182019050919050565b600061336582612b59565b915061337083612b59565b9250827fffffffffffffffffffffffffffffffffffffffffffffffffffffffffffffffff038211156133a5576133a461321e565b5b828201905092915050565b6000819050919050565b6000819050919050565b60006133df6133da6133d5846133b0565b6133ba565b612b59565b9050919050565b6133ef816133c4565b82525050565b600060408201905061340a6000830185612bfd565b61341760208301846133e6565b9392505050565b6000819050919050565b600061344361343e6134398461341e565b6133ba565b612b59565b9050919050565b61345381613428565b82525050565b600060408201905061346e6000830185612bfd565b61347b602083018461344a565b9392505050565b7f43617465676f7279206973207265717569726564000000000000000000000000600082015250565b60006134b8601483612c17565b91506134c382613482565b602082019050919050565b600060208201905081810360008301526134e7816134ab565b9050919050565b7f4163746976697479206e616d6520697320726571756972656400000000000000600082015250565b6000613524601983612c17565b915061352f826134ee565b602082019050919050565b6000602082019050818103600083015261355381613517565b9050919050565b6000819050919050565b600061357f61357a6135758461355a565b6133ba565b612b59565b9050919050565b61358f81613564565b82525050565b60006040820190506135aa6000830185612bfd565b6135b76020830184613586565b9392505050565b6000819050919050565b60006135e36135de6135d9846135be565b6133ba565b612b59565b9050919050565b6135f3816135c8565b82525050565b600060408201905061360e6000830185612bfd565b61361b60208301846135ea565b9392505050565b6000819050919050565b600061364761364261363d84613622565b6133ba565b612b59565b9050919050565b6136578161362c565b82525050565b60006040820190506136726000830185612bfd565b61367f602083018461364e565b939250505056fea2646970667358221220e392ec224a88cd8d940954d6044bd4345e9c0e4f1933bed1297f48805dd08d2a64736f6c634300080a0033",
  "immutableReferences": {},
  "source": "// SPDX-License-Identifier: UNLICENSED\r\npragma solidity >= 0.8.0;\r\n\r\nimport \"./Storage.sol\";\r\n\r\ncontract EightFit {\r\n  struct ShortPost {\r\n    uint256 shortPostId;\r\n    address userAddress;\r\n    uint256 activityLength;\r\n    uint256 date;\r\n  }\r\n\r\n  struct Post {\r\n    uint256 postId;\r\n    address userAddress;\r\n    string category;\r\n    string activityName;\r\n    uint256 minutesCompleted;\r\n    string intensity;\r\n    uint256 date;\r\n  }\r\n\r\n  ShortPost[] public stepsPosts;\r\n  ShortPost[] public sleepPosts;\r\n  Post[] public cardioPosts;\r\n  Post[] public strengthTrainingPosts;\r\n  Post[] public wellbeingPosts;\r\n  Storage dataStorage;\r\n\r\n  // Getters\r\n  function getStepsPostsCount() public view returns(uint256) {\r\n    return stepsPosts.length;\r\n  }\r\n\r\n  function getStepsPost(uint256 stepsPostId) public view returns(ShortPost memory) {\r\n    // The post's index in the array starts from zero, so 1 is subtracted from the ID\r\n    return stepsPosts[stepsPostId - 1];\r\n  }\r\n\r\n  function getSleepPostsCount() public view returns(uint256) {\r\n    return sleepPosts.length;\r\n  }\r\n\r\n  function getSleepPost(uint256 sleepPostId) public view returns(ShortPost memory) {\r\n    return sleepPosts[sleepPostId - 1];\r\n  }\r\n\r\n  function getCardioPostsCount() public view returns(uint256) {\r\n    return cardioPosts.length;\r\n  }\r\n\r\n  function getCardioPost(uint256 cardioPostId) public view returns(Post memory) {\r\n    return cardioPosts[cardioPostId - 1];\r\n  }\r\n\r\n  function getStrengthTrainingPostsCount() public view returns(uint256) {\r\n    return strengthTrainingPosts.length;\r\n  }\r\n\r\n  function getStrengthTrainingPost(uint256 strengthTrainingPostId) public view returns(Post memory) {\r\n    return strengthTrainingPosts[strengthTrainingPostId - 1];\r\n  }\r\n\r\n  function getWellbeingPostsCount() public view returns(uint256) {\r\n    return wellbeingPosts.length;\r\n  }\r\n\r\n  function getWellbeingPost(uint256 wellbeingPostId) public view returns(Post memory) {\r\n    return wellbeingPosts[wellbeingPostId - 1];\r\n  }\r\n\r\n  // Setters\r\n  function setStorageAddress(address dataStorageContractAddress) public {\r\n    dataStorage = Storage(dataStorageContractAddress);\r\n  }\r\n\r\n  function addDailyStepPost(address userAddress, uint256 stepsTakenToday, uint256 date) public {\r\n    stepsPosts.push(ShortPost(stepsPosts.length + 1, userAddress, stepsTakenToday, date));\r\n\r\n    // Add points to the user\r\n    dataStorage.addPoints(userAddress, 10);\r\n  }\r\n\r\n  function deleteDailyStepCountPost(uint256 stepsPostId) public {\r\n    for (uint256 i = 0; i < stepsPosts.length; i++) {\r\n      if (stepsPosts[i].shortPostId == stepsPostId) {\r\n        stepsPosts[i] = stepsPosts[stepsPosts.length - 1];\r\n        stepsPosts.pop();\r\n      }\r\n    }\r\n  }\r\n\r\n  function addSleepPost(address userAddress, uint256 hoursSlept, uint256 date) public {\r\n    sleepPosts.push(ShortPost(sleepPosts.length + 1, userAddress, hoursSlept, date));\r\n\r\n    dataStorage.addPoints(userAddress, 3);\r\n  }\r\n\r\n  function deleteSleepPost(uint256 sleepPostId) public {\r\n    for (uint256 i = 0; i < sleepPosts.length; i++) {\r\n      if (sleepPosts[i].shortPostId == sleepPostId) {\r\n        sleepPosts[i] = sleepPosts[sleepPosts.length - 1];\r\n        sleepPosts.pop();\r\n      }\r\n    }\r\n  }\r\n\r\n  function addCardioPost(address userAddress, string memory category, string memory activityName, uint256 minutesCompleted, string memory intensity, uint256 date) public {\r\n    require(bytes(category).length > 0, \"Category is required\");\r\n    require(bytes(activityName).length > 0, \"Activity name is required\");\r\n\r\n    cardioPosts.push(Post(cardioPosts.length + 1, userAddress, category, activityName, minutesCompleted, intensity, date));\r\n\r\n    dataStorage.addPoints(userAddress, 25);\r\n  }\r\n\r\n  function deleteCardioPost(uint256 cardioPostId) public {\r\n    for (uint256 i = 0; i < cardioPosts.length; i++) {\r\n      if (cardioPosts[i].postId == cardioPostId) {\r\n        cardioPosts[i] = cardioPosts[cardioPosts.length - 1];\r\n        cardioPosts.pop();\r\n      }\r\n    }\r\n  }\r\n\r\n  function addStrengthTrainingPost(address userAddress, string memory category, string memory activityName, uint256 minutesCompleted, string memory intensity, uint256 date) public {\r\n    require(bytes(category).length > 0, \"Category is required\");\r\n    require(bytes(activityName).length > 0, \"Activity name is required\");\r\n\r\n    strengthTrainingPosts.push(Post(strengthTrainingPosts.length + 1, userAddress, category, activityName, minutesCompleted, intensity, date));\r\n\r\n    dataStorage.addPoints(userAddress, 30);\r\n  }\r\n\r\n  function deleteStrengthTrainingPost(uint256 strengthTrainingPostId) public {\r\n    for (uint256 i = 0; i < strengthTrainingPosts.length; i++) {\r\n      if (strengthTrainingPosts[i].postId == strengthTrainingPostId) {\r\n        strengthTrainingPosts[i] = strengthTrainingPosts[strengthTrainingPosts.length - 1];\r\n        strengthTrainingPosts.pop();\r\n      }\r\n    }\r\n  }\r\n\r\n  function addWellbeingPost(address userAddress, string memory category, string memory activityName, uint256 minutesCompleted, string memory intensity, uint256 date) public {\r\n    require(bytes(category).length > 0, \"Category is required\");\r\n    require(bytes(activityName).length > 0, \"Activity name is required\");\r\n\r\n    wellbeingPosts.push(Post(wellbeingPosts.length + 1, userAddress, category, activityName, minutesCompleted, intensity, date));\r\n\r\n    dataStorage.addPoints(userAddress, 20);\r\n  }\r\n\r\n  function deleteWellbeingPost(uint256 wellbeingPostId) public {\r\n    for (uint256 i = 0; i < wellbeingPosts.length; i++) {\r\n      if (wellbeingPosts[i].postId == wellbeingPostId) {\r\n        wellbeingPosts[i] = wellbeingPosts[wellbeingPosts.length - 1];\r\n        wellbeingPosts.pop();\r\n      }\r\n    }\r\n  }\r\n}",
  "sourcePath": "C:\\Users\\Cate\\Projects\\8Fit\\contracts\\EightFit.sol",
  "compiler": {
    "name": "solc",
    "version": "0.8.10+commit.fc410830.Emscripten.clang"
  },
  "schemaVersion": "3.4.3",
  "updatedAt": "2022-10-05T02:02:39.552Z",
  "networkType": "ethereum",
  "devdoc": {
    "kind": "dev",
    "methods": {},
    "version": 1
  },
  "userdoc": {
    "kind": "user",
    "methods": {},
    "version": 1
  }
}