{
  "contractName": "EightFit",
  "address": "0x560d225B132A5fBe5cfdC15C93A82b2D7E46d344",
  "abi": [
    {
      "inputs": [
        {
          "internalType": "uint256",
          "name": "",
          "type": "uint256"
        }
      ],
      "name": "caloriesBurnedPosts",
      "outputs": [
        {
          "internalType": "uint256",
          "name": "shortPostId",
          "type": "uint256"
        },
        {
          "internalType": "address",
          "name": "userAddress",
          "type": "address"
        },
        {
          "internalType": "uint256",
          "name": "activityLength",
          "type": "uint256"
        },
        {
          "internalType": "uint256",
          "name": "date",
          "type": "uint256"
        }
      ],
      "stateMutability": "view",
      "type": "function",
      "constant": true
    },
    {
      "inputs": [
        {
          "internalType": "uint256",
          "name": "",
          "type": "uint256"
        }
      ],
      "name": "caloriesEatenPosts",
      "outputs": [
        {
          "internalType": "uint256",
          "name": "shortPostId",
          "type": "uint256"
        },
        {
          "internalType": "address",
          "name": "userAddress",
          "type": "address"
        },
        {
          "internalType": "uint256",
          "name": "activityLength",
          "type": "uint256"
        },
        {
          "internalType": "uint256",
          "name": "date",
          "type": "uint256"
        }
      ],
      "stateMutability": "view",
      "type": "function",
      "constant": true
    },
    {
      "inputs": [
        {
          "internalType": "uint256",
          "name": "",
          "type": "uint256"
        }
      ],
      "name": "cardioPosts",
      "outputs": [
        {
          "internalType": "uint256",
          "name": "postId",
          "type": "uint256"
        },
        {
          "internalType": "address",
          "name": "userAddress",
          "type": "address"
        },
        {
          "internalType": "string",
          "name": "category",
          "type": "string"
        },
        {
          "internalType": "string",
          "name": "activityName",
          "type": "string"
        },
        {
          "internalType": "uint256",
          "name": "minutesCompleted",
          "type": "uint256"
        },
        {
          "internalType": "string",
          "name": "intensity",
          "type": "string"
        },
        {
          "internalType": "uint256",
          "name": "date",
          "type": "uint256"
        }
      ],
      "stateMutability": "view",
      "type": "function",
      "constant": true
    },
    {
      "inputs": [
        {
          "internalType": "uint256",
          "name": "",
          "type": "uint256"
        }
      ],
      "name": "sleepPosts",
      "outputs": [
        {
          "internalType": "uint256",
          "name": "shortPostId",
          "type": "uint256"
        },
        {
          "internalType": "address",
          "name": "userAddress",
          "type": "address"
        },
        {
          "internalType": "uint256",
          "name": "activityLength",
          "type": "uint256"
        },
        {
          "internalType": "uint256",
          "name": "date",
          "type": "uint256"
        }
      ],
      "stateMutability": "view",
      "type": "function",
      "constant": true
    },
    {
      "inputs": [
        {
          "internalType": "uint256",
          "name": "",
          "type": "uint256"
        }
      ],
      "name": "stepsPosts",
      "outputs": [
        {
          "internalType": "uint256",
          "name": "shortPostId",
          "type": "uint256"
        },
        {
          "internalType": "address",
          "name": "userAddress",
          "type": "address"
        },
        {
          "internalType": "uint256",
          "name": "activityLength",
          "type": "uint256"
        },
        {
          "internalType": "uint256",
          "name": "date",
          "type": "uint256"
        }
      ],
      "stateMutability": "view",
      "type": "function",
      "constant": true
    },
    {
      "inputs": [
        {
          "internalType": "uint256",
          "name": "",
          "type": "uint256"
        }
      ],
      "name": "strengthTrainingPosts",
      "outputs": [
        {
          "internalType": "uint256",
          "name": "postId",
          "type": "uint256"
        },
        {
          "internalType": "address",
          "name": "userAddress",
          "type": "address"
        },
        {
          "internalType": "string",
          "name": "category",
          "type": "string"
        },
        {
          "internalType": "string",
          "name": "activityName",
          "type": "string"
        },
        {
          "internalType": "uint256",
          "name": "minutesCompleted",
          "type": "uint256"
        },
        {
          "internalType": "string",
          "name": "intensity",
          "type": "string"
        },
        {
          "internalType": "uint256",
          "name": "date",
          "type": "uint256"
        }
      ],
      "stateMutability": "view",
      "type": "function",
      "constant": true
    },
    {
      "inputs": [
        {
          "internalType": "uint256",
          "name": "",
          "type": "uint256"
        }
      ],
      "name": "wellbeingPosts",
      "outputs": [
        {
          "internalType": "uint256",
          "name": "postId",
          "type": "uint256"
        },
        {
          "internalType": "address",
          "name": "userAddress",
          "type": "address"
        },
        {
          "internalType": "string",
          "name": "category",
          "type": "string"
        },
        {
          "internalType": "string",
          "name": "activityName",
          "type": "string"
        },
        {
          "internalType": "uint256",
          "name": "minutesCompleted",
          "type": "uint256"
        },
        {
          "internalType": "string",
          "name": "intensity",
          "type": "string"
        },
        {
          "internalType": "uint256",
          "name": "date",
          "type": "uint256"
        }
      ],
      "stateMutability": "view",
      "type": "function",
      "constant": true
    },
    {
      "inputs": [],
      "name": "getStepsPostsCount",
      "outputs": [
        {
          "internalType": "uint256",
          "name": "",
          "type": "uint256"
        }
      ],
      "stateMutability": "view",
      "type": "function",
      "constant": true
    },
    {
      "inputs": [
        {
          "internalType": "uint256",
          "name": "stepsPostId",
          "type": "uint256"
        }
      ],
      "name": "getStepsPost",
      "outputs": [
        {
          "components": [
            {
              "internalType": "uint256",
              "name": "shortPostId",
              "type": "uint256"
            },
            {
              "internalType": "address",
              "name": "userAddress",
              "type": "address"
            },
            {
              "internalType": "uint256",
              "name": "activityLength",
              "type": "uint256"
            },
            {
              "internalType": "uint256",
              "name": "date",
              "type": "uint256"
            }
          ],
          "internalType": "struct EightFit.ShortPost",
          "name": "",
          "type": "tuple"
        }
      ],
      "stateMutability": "view",
      "type": "function",
      "constant": true
    },
    {
      "inputs": [],
      "name": "getCaloriesEatenPostsCount",
      "outputs": [
        {
          "internalType": "uint256",
          "name": "",
          "type": "uint256"
        }
      ],
      "stateMutability": "view",
      "type": "function",
      "constant": true
    },
    {
      "inputs": [
        {
          "internalType": "uint256",
          "name": "caloriesEatenPostId",
          "type": "uint256"
        }
      ],
      "name": "getCaloriesEatenPost",
      "outputs": [
        {
          "components": [
            {
              "internalType": "uint256",
              "name": "shortPostId",
              "type": "uint256"
            },
            {
              "internalType": "address",
              "name": "userAddress",
              "type": "address"
            },
            {
              "internalType": "uint256",
              "name": "activityLength",
              "type": "uint256"
            },
            {
              "internalType": "uint256",
              "name": "date",
              "type": "uint256"
            }
          ],
          "internalType": "struct EightFit.ShortPost",
          "name": "",
          "type": "tuple"
        }
      ],
      "stateMutability": "view",
      "type": "function",
      "constant": true
    },
    {
      "inputs": [],
      "name": "getCaloriesBurnedPostsCount",
      "outputs": [
        {
          "internalType": "uint256",
          "name": "",
          "type": "uint256"
        }
      ],
      "stateMutability": "view",
      "type": "function",
      "constant": true
    },
    {
      "inputs": [
        {
          "internalType": "uint256",
          "name": "caloriesBurnedPostId",
          "type": "uint256"
        }
      ],
      "name": "getCaloriesBurnedPost",
      "outputs": [
        {
          "components": [
            {
              "internalType": "uint256",
              "name": "shortPostId",
              "type": "uint256"
            },
            {
              "internalType": "address",
              "name": "userAddress",
              "type": "address"
            },
            {
              "internalType": "uint256",
              "name": "activityLength",
              "type": "uint256"
            },
            {
              "internalType": "uint256",
              "name": "date",
              "type": "uint256"
            }
          ],
          "internalType": "struct EightFit.ShortPost",
          "name": "",
          "type": "tuple"
        }
      ],
      "stateMutability": "view",
      "type": "function",
      "constant": true
    },
    {
      "inputs": [],
      "name": "getSleepPostsCount",
      "outputs": [
        {
          "internalType": "uint256",
          "name": "",
          "type": "uint256"
        }
      ],
      "stateMutability": "view",
      "type": "function",
      "constant": true
    },
    {
      "inputs": [
        {
          "internalType": "uint256",
          "name": "sleepPostId",
          "type": "uint256"
        }
      ],
      "name": "getSleepPost",
      "outputs": [
        {
          "components": [
            {
              "internalType": "uint256",
              "name": "shortPostId",
              "type": "uint256"
            },
            {
              "internalType": "address",
              "name": "userAddress",
              "type": "address"
            },
            {
              "internalType": "uint256",
              "name": "activityLength",
              "type": "uint256"
            },
            {
              "internalType": "uint256",
              "name": "date",
              "type": "uint256"
            }
          ],
          "internalType": "struct EightFit.ShortPost",
          "name": "",
          "type": "tuple"
        }
      ],
      "stateMutability": "view",
      "type": "function",
      "constant": true
    },
    {
      "inputs": [],
      "name": "getCardioPostsCount",
      "outputs": [
        {
          "internalType": "uint256",
          "name": "",
          "type": "uint256"
        }
      ],
      "stateMutability": "view",
      "type": "function",
      "constant": true
    },
    {
      "inputs": [
        {
          "internalType": "uint256",
          "name": "cardioPostId",
          "type": "uint256"
        }
      ],
      "name": "getCardioPost",
      "outputs": [
        {
          "components": [
            {
              "internalType": "uint256",
              "name": "postId",
              "type": "uint256"
            },
            {
              "internalType": "address",
              "name": "userAddress",
              "type": "address"
            },
            {
              "internalType": "string",
              "name": "category",
              "type": "string"
            },
            {
              "internalType": "string",
              "name": "activityName",
              "type": "string"
            },
            {
              "internalType": "uint256",
              "name": "minutesCompleted",
              "type": "uint256"
            },
            {
              "internalType": "string",
              "name": "intensity",
              "type": "string"
            },
            {
              "internalType": "uint256",
              "name": "date",
              "type": "uint256"
            }
          ],
          "internalType": "struct EightFit.Post",
          "name": "",
          "type": "tuple"
        }
      ],
      "stateMutability": "view",
      "type": "function",
      "constant": true
    },
    {
      "inputs": [],
      "name": "getStrengthTrainingPostsCount",
      "outputs": [
        {
          "internalType": "uint256",
          "name": "",
          "type": "uint256"
        }
      ],
      "stateMutability": "view",
      "type": "function",
      "constant": true
    },
    {
      "inputs": [
        {
          "internalType": "uint256",
          "name": "strengthTrainingPostId",
          "type": "uint256"
        }
      ],
      "name": "getStrengthTrainingPost",
      "outputs": [
        {
          "components": [
            {
              "internalType": "uint256",
              "name": "postId",
              "type": "uint256"
            },
            {
              "internalType": "address",
              "name": "userAddress",
              "type": "address"
            },
            {
              "internalType": "string",
              "name": "category",
              "type": "string"
            },
            {
              "internalType": "string",
              "name": "activityName",
              "type": "string"
            },
            {
              "internalType": "uint256",
              "name": "minutesCompleted",
              "type": "uint256"
            },
            {
              "internalType": "string",
              "name": "intensity",
              "type": "string"
            },
            {
              "internalType": "uint256",
              "name": "date",
              "type": "uint256"
            }
          ],
          "internalType": "struct EightFit.Post",
          "name": "",
          "type": "tuple"
        }
      ],
      "stateMutability": "view",
      "type": "function",
      "constant": true
    },
    {
      "inputs": [],
      "name": "getWellbeingPostsCount",
      "outputs": [
        {
          "internalType": "uint256",
          "name": "",
          "type": "uint256"
        }
      ],
      "stateMutability": "view",
      "type": "function",
      "constant": true
    },
    {
      "inputs": [
        {
          "internalType": "uint256",
          "name": "wellbeingPostId",
          "type": "uint256"
        }
      ],
      "name": "getWellbeingPost",
      "outputs": [
        {
          "components": [
            {
              "internalType": "uint256",
              "name": "postId",
              "type": "uint256"
            },
            {
              "internalType": "address",
              "name": "userAddress",
              "type": "address"
            },
            {
              "internalType": "string",
              "name": "category",
              "type": "string"
            },
            {
              "internalType": "string",
              "name": "activityName",
              "type": "string"
            },
            {
              "internalType": "uint256",
              "name": "minutesCompleted",
              "type": "uint256"
            },
            {
              "internalType": "string",
              "name": "intensity",
              "type": "string"
            },
            {
              "internalType": "uint256",
              "name": "date",
              "type": "uint256"
            }
          ],
          "internalType": "struct EightFit.Post",
          "name": "",
          "type": "tuple"
        }
      ],
      "stateMutability": "view",
      "type": "function",
      "constant": true
    },
    {
      "inputs": [
        {
          "internalType": "address",
          "name": "dataStorageContractAddress",
          "type": "address"
        }
      ],
      "name": "setStorageAddress",
      "outputs": [],
      "stateMutability": "nonpayable",
      "type": "function"
    },
    {
      "inputs": [
        {
          "internalType": "address",
          "name": "userAddress",
          "type": "address"
        },
        {
          "internalType": "uint256",
          "name": "stepsTakenToday",
          "type": "uint256"
        },
        {
          "internalType": "uint256",
          "name": "date",
          "type": "uint256"
        }
      ],
      "name": "addDailyStepPost",
      "outputs": [],
      "stateMutability": "nonpayable",
      "type": "function"
    },
    {
      "inputs": [
        {
          "internalType": "uint256",
          "name": "stepsPostId",
          "type": "uint256"
        }
      ],
      "name": "deleteDailyStepCountPost",
      "outputs": [],
      "stateMutability": "nonpayable",
      "type": "function"
    },
    {
      "inputs": [
        {
          "internalType": "address",
          "name": "userAddress",
          "type": "address"
        },
        {
          "internalType": "uint256",
          "name": "caloriesEatenToday",
          "type": "uint256"
        },
        {
          "internalType": "uint256",
          "name": "date",
          "type": "uint256"
        }
      ],
      "name": "addCaloriesEatenPost",
      "outputs": [],
      "stateMutability": "nonpayable",
      "type": "function"
    },
    {
      "inputs": [
        {
          "internalType": "uint256",
          "name": "caloriesEatenPostId",
          "type": "uint256"
        }
      ],
      "name": "deleteCaloriesEatenPost",
      "outputs": [],
      "stateMutability": "nonpayable",
      "type": "function"
    },
    {
      "inputs": [
        {
          "internalType": "address",
          "name": "userAddress",
          "type": "address"
        },
        {
          "internalType": "uint256",
          "name": "caloriesBurnedToday",
          "type": "uint256"
        },
        {
          "internalType": "uint256",
          "name": "date",
          "type": "uint256"
        }
      ],
      "name": "addCaloriesBurnedPost",
      "outputs": [],
      "stateMutability": "nonpayable",
      "type": "function"
    },
    {
      "inputs": [
        {
          "internalType": "uint256",
          "name": "caloriesBurnedPostId",
          "type": "uint256"
        }
      ],
      "name": "deleteCaloriesBurnedPost",
      "outputs": [],
      "stateMutability": "nonpayable",
      "type": "function"
    },
    {
      "inputs": [
        {
          "internalType": "address",
          "name": "userAddress",
          "type": "address"
        },
        {
          "internalType": "uint256",
          "name": "hoursSlept",
          "type": "uint256"
        },
        {
          "internalType": "uint256",
          "name": "date",
          "type": "uint256"
        }
      ],
      "name": "addSleepPost",
      "outputs": [],
      "stateMutability": "nonpayable",
      "type": "function"
    },
    {
      "inputs": [
        {
          "internalType": "uint256",
          "name": "sleepPostId",
          "type": "uint256"
        }
      ],
      "name": "deleteSleepPost",
      "outputs": [],
      "stateMutability": "nonpayable",
      "type": "function"
    },
    {
      "inputs": [
        {
          "internalType": "address",
          "name": "userAddress",
          "type": "address"
        },
        {
          "internalType": "string",
          "name": "category",
          "type": "string"
        },
        {
          "internalType": "string",
          "name": "activityName",
          "type": "string"
        },
        {
          "internalType": "uint256",
          "name": "minutesCompleted",
          "type": "uint256"
        },
        {
          "internalType": "string",
          "name": "intensity",
          "type": "string"
        },
        {
          "internalType": "uint256",
          "name": "date",
          "type": "uint256"
        }
      ],
      "name": "addCardioPost",
      "outputs": [],
      "stateMutability": "nonpayable",
      "type": "function"
    },
    {
      "inputs": [
        {
          "internalType": "uint256",
          "name": "cardioPostId",
          "type": "uint256"
        }
      ],
      "name": "deleteCardioPost",
      "outputs": [],
      "stateMutability": "nonpayable",
      "type": "function"
    },
    {
      "inputs": [
        {
          "internalType": "address",
          "name": "userAddress",
          "type": "address"
        },
        {
          "internalType": "string",
          "name": "category",
          "type": "string"
        },
        {
          "internalType": "string",
          "name": "activityName",
          "type": "string"
        },
        {
          "internalType": "uint256",
          "name": "minutesCompleted",
          "type": "uint256"
        },
        {
          "internalType": "string",
          "name": "intensity",
          "type": "string"
        },
        {
          "internalType": "uint256",
          "name": "date",
          "type": "uint256"
        }
      ],
      "name": "addStrengthTrainingPost",
      "outputs": [],
      "stateMutability": "nonpayable",
      "type": "function"
    },
    {
      "inputs": [
        {
          "internalType": "uint256",
          "name": "strengthTrainingPostId",
          "type": "uint256"
        }
      ],
      "name": "deleteStrengthTrainingPost",
      "outputs": [],
      "stateMutability": "nonpayable",
      "type": "function"
    },
    {
      "inputs": [
        {
          "internalType": "address",
          "name": "userAddress",
          "type": "address"
        },
        {
          "internalType": "string",
          "name": "category",
          "type": "string"
        },
        {
          "internalType": "string",
          "name": "activityName",
          "type": "string"
        },
        {
          "internalType": "uint256",
          "name": "minutesCompleted",
          "type": "uint256"
        },
        {
          "internalType": "string",
          "name": "intensity",
          "type": "string"
        },
        {
          "internalType": "uint256",
          "name": "date",
          "type": "uint256"
        }
      ],
      "name": "addWellbeingPost",
      "outputs": [],
      "stateMutability": "nonpayable",
      "type": "function"
    },
    {
      "inputs": [
        {
          "internalType": "uint256",
          "name": "wellbeingPostId",
          "type": "uint256"
        }
      ],
      "name": "deleteWellbeingPost",
      "outputs": [],
      "stateMutability": "nonpayable",
      "type": "function"
    }
  ],
  "bytecode": "0x608060405234801561001057600080fd5b50614004806100206000396000f3fe608060405234801561001057600080fd5b506004361061021c5760003560e01c80637560622c11610125578063a753b8e1116100ad578063c0cc39941161007c578063c0cc399414610687578063c811839e146106ba578063cf0063ed146106d6578063d77ed0ea14610709578063db73c93c146107255761021c565b8063a753b8e114610617578063b6cd68d114610633578063baaaa1401461064f578063bb1cd7761461066b5761021c565b80638036d92c116100f45780638036d92c1461057557806383a18c14146105915780638f8abeee146105ad57806395702896146105dd5780639fb204e1146105f95761021c565b80637560622c146104e857806377e20d07146105065780637908c7bf146105245780637e6997b7146105575761021c565b80632e6a43dc116101a85780634b93a3cf116101775780634b93a3cf1461045a57806359b910d6146104785780636346531f146104945780636a8bc528146104b057806375107669146104cc5761021c565b80632e6a43dc146103a85780633c661434146103d85780633e7520bd1461040857806343feb6d1146104245761021c565b8063174debcf116101ef578063174debcf146102c1578063215c2f21146102df5780632171301d1461031257806326ebf1c5146103425780632e362f9c146103725761021c565b80630204f8171461022157806305718a341461023d57806314f6c01e146102735780631741ae13146102a3575b600080fd5b61023b600480360381019061023691906134d7565b610755565b005b610257600480360381019061025291906134d7565b610981565b60405161026a97969594939291906135ed565b60405180910390f35b61028d600480360381019061028891906134d7565b610b8b565b60405161029a91906136e4565b60405180910390f35b6102ab610c47565b6040516102b891906136ff565b60405180910390f35b6102c9610c54565b6040516102d691906136ff565b60405180910390f35b6102f960048036038101906102f491906134d7565b610c61565b604051610309949392919061371a565b60405180910390f35b61032c600480360381019061032791906134d7565b610cc1565b60405161033991906136e4565b60405180910390f35b61035c600480360381019061035791906134d7565b610d7c565b60405161036991906136e4565b60405180910390f35b61038c600480360381019061038791906134d7565b610e38565b60405161039f97969594939291906135ed565b60405180910390f35b6103c260048036038101906103bd91906134d7565b611042565b6040516103cf9190613853565b60405180910390f35b6103f260048036038101906103ed91906134d7565b6112b4565b6040516103ff91906136e4565b60405180910390f35b610422600480360381019061041d91906138a1565b611370565b005b61043e600480360381019061043991906134d7565b6114df565b60405161045197969594939291906135ed565b60405180910390f35b6104626116e9565b60405161046f91906136ff565b60405180910390f35b610492600480360381019061048d91906138f4565b6116f6565b005b6104ae60048036038101906104a991906134d7565b61173a565b005b6104ca60048036038101906104c591906134d7565b611966565b005b6104e660048036038101906104e191906138a1565b611b00565b005b6104f0611bdf565b6040516104fd91906136ff565b60405180910390f35b61050e611bec565b60405161051b91906136ff565b60405180910390f35b61053e600480360381019061053991906134d7565b611bf9565b60405161054e949392919061371a565b60405180910390f35b61055f611c59565b60405161056c91906136ff565b60405180910390f35b61058f600480360381019061058a91906138a1565b611c65565b005b6105ab60048036038101906105a691906138a1565b611dd4565b005b6105c760048036038101906105c291906134d7565b611eb2565b6040516105d49190613853565b60405180910390f35b6105f760048036038101906105f29190613a56565b612124565b005b610601612387565b60405161060e91906136ff565b60405180910390f35b610631600480360381019061062c91906134d7565b612394565b005b61064d60048036038101906106489190613a56565b6125c0565b005b61066960048036038101906106649190613a56565b612823565b005b610685600480360381019061068091906134d7565b612a86565b005b6106a1600480360381019061069c91906134d7565b612c22565b6040516106b1949392919061371a565b60405180910390f35b6106d460048036038101906106cf91906134d7565b612c82565b005b6106f060048036038101906106eb91906134d7565b612e1e565b604051610700949392919061371a565b60405180910390f35b610723600480360381019061071e91906134d7565b612e7e565b005b61073f600480360381019061073a91906134d7565b61301a565b60405161074c9190613853565b60405180910390f35b60005b60058054905081101561097d57816005828154811061077a57610779613b37565b5b906000526020600020906007020160000154141561096a57600560016005805490506107a69190613b95565b815481106107b7576107b6613b37565b5b9060005260206000209060070201600582815481106107d9576107d8613b37565b5b9060005260206000209060070201600082015481600001556001820160009054906101000a900473ffffffffffffffffffffffffffffffffffffffff168160010160006101000a81548173ffffffffffffffffffffffffffffffffffffffff021916908373ffffffffffffffffffffffffffffffffffffffff160217905550600282018160020190805461086c90613bf8565b61087792919061328c565b50600382018160030190805461088c90613bf8565b61089792919061328c565b506004820154816004015560058201816005019080546108b690613bf8565b6108c192919061328c565b506006820154816006015590505060058054806108e1576108e0613c2a565b5b60019003818190600052602060002090600702016000808201600090556001820160006101000a81549073ffffffffffffffffffffffffffffffffffffffff02191690556002820160006109359190613319565b6003820160006109459190613319565b600482016000905560058201600061095d9190613319565b6006820160009055505090555b808061097590613c59565b915050610758565b5050565b6005818154811061099157600080fd5b90600052602060002090600702016000915090508060000154908060010160009054906101000a900473ffffffffffffffffffffffffffffffffffffffff16908060020180546109e090613bf8565b80601f0160208091040260200160405190810160405280929190818152602001828054610a0c90613bf8565b8015610a595780601f10610a2e57610100808354040283529160200191610a59565b820191906000526020600020905b815481529060010190602001808311610a3c57829003601f168201915b505050505090806003018054610a6e90613bf8565b80601f0160208091040260200160405190810160405280929190818152602001828054610a9a90613bf8565b8015610ae75780601f10610abc57610100808354040283529160200191610ae7565b820191906000526020600020905b815481529060010190602001808311610aca57829003601f168201915b505050505090806004015490806005018054610b0290613bf8565b80601f0160208091040260200160405190810160405280929190818152602001828054610b2e90613bf8565b8015610b7b5780601f10610b5057610100808354040283529160200191610b7b565b820191906000526020600020905b815481529060010190602001808311610b5e57829003601f168201915b5050505050908060060154905087565b610b93613359565b6000600183610ba29190613b95565b81548110610bb357610bb2613b37565b5b9060005260206000209060040201604051806080016040529081600082015481526020016001820160009054906101000a900473ffffffffffffffffffffffffffffffffffffffff1673ffffffffffffffffffffffffffffffffffffffff1673ffffffffffffffffffffffffffffffffffffffff168152602001600282015481526020016003820154815250509050919050565b6000600380549050905090565b6000600480549050905090565b60018181548110610c7157600080fd5b90600052602060002090600402016000915090508060000154908060010160009054906101000a900473ffffffffffffffffffffffffffffffffffffffff16908060020154908060030154905084565b610cc9613359565b60018083610cd79190613b95565b81548110610ce857610ce7613b37565b5b9060005260206000209060040201604051806080016040529081600082015481526020016001820160009054906101000a900473ffffffffffffffffffffffffffffffffffffffff1673ffffffffffffffffffffffffffffffffffffffff1673ffffffffffffffffffffffffffffffffffffffff168152602001600282015481526020016003820154815250509050919050565b610d84613359565b6003600183610d939190613b95565b81548110610da457610da3613b37565b5b9060005260206000209060040201604051806080016040529081600082015481526020016001820160009054906101000a900473ffffffffffffffffffffffffffffffffffffffff1673ffffffffffffffffffffffffffffffffffffffff1673ffffffffffffffffffffffffffffffffffffffff168152602001600282015481526020016003820154815250509050919050565b60048181548110610e4857600080fd5b90600052602060002090600702016000915090508060000154908060010160009054906101000a900473ffffffffffffffffffffffffffffffffffffffff1690806002018054610e9790613bf8565b80601f0160208091040260200160405190810160405280929190818152602001828054610ec390613bf8565b8015610f105780601f10610ee557610100808354040283529160200191610f10565b820191906000526020600020905b815481529060010190602001808311610ef357829003601f168201915b505050505090806003018054610f2590613bf8565b80601f0160208091040260200160405190810160405280929190818152602001828054610f5190613bf8565b8015610f9e5780601f10610f7357610100808354040283529160200191610f9e565b820191906000526020600020905b815481529060010190602001808311610f8157829003601f168201915b505050505090806004015490806005018054610fb990613bf8565b80601f0160208091040260200160405190810160405280929190818152602001828054610fe590613bf8565b80156110325780601f1061100757610100808354040283529160200191611032565b820191906000526020600020905b81548152906001019060200180831161101557829003601f168201915b5050505050908060060154905087565b61104a613397565b60046001836110599190613b95565b8154811061106a57611069613b37565b5b90600052602060002090600702016040518060e0016040529081600082015481526020016001820160009054906101000a900473ffffffffffffffffffffffffffffffffffffffff1673ffffffffffffffffffffffffffffffffffffffff1673ffffffffffffffffffffffffffffffffffffffff1681526020016002820180546110f390613bf8565b80601f016020809104026020016040519081016040528092919081815260200182805461111f90613bf8565b801561116c5780601f106111415761010080835404028352916020019161116c565b820191906000526020600020905b81548152906001019060200180831161114f57829003601f168201915b5050505050815260200160038201805461118590613bf8565b80601f01602080910402602001604051908101604052809291908181526020018280546111b190613bf8565b80156111fe5780601f106111d3576101008083540402835291602001916111fe565b820191906000526020600020905b8154815290600101906020018083116111e157829003601f168201915b505050505081526020016004820154815260200160058201805461122190613bf8565b80601f016020809104026020016040519081016040528092919081815260200182805461124d90613bf8565b801561129a5780601f1061126f5761010080835404028352916020019161129a565b820191906000526020600020905b81548152906001019060200180831161127d57829003601f168201915b505050505081526020016006820154815250509050919050565b6112bc613359565b60026001836112cb9190613b95565b815481106112dc576112db613b37565b5b9060005260206000209060040201604051806080016040529081600082015481526020016001820160009054906101000a900473ffffffffffffffffffffffffffffffffffffffff1673ffffffffffffffffffffffffffffffffffffffff1673ffffffffffffffffffffffffffffffffffffffff168152602001600282015481526020016003820154815250509050919050565b60036040518060800160405280600160038054905061138f9190613ca2565b81526020018573ffffffffffffffffffffffffffffffffffffffff1681526020018481526020018381525090806001815401808255809150506001900390600052602060002090600402016000909190919091506000820151816000015560208201518160010160006101000a81548173ffffffffffffffffffffffffffffffffffffffff021916908373ffffffffffffffffffffffffffffffffffffffff16021790555060408201518160020155606082015181600301555050600760009054906101000a900473ffffffffffffffffffffffffffffffffffffffff1673ffffffffffffffffffffffffffffffffffffffff1663507cd30f8460036040518363ffffffff1660e01b81526004016114a8929190613d3d565b600060405180830381600087803b1580156114c257600080fd5b505af11580156114d6573d6000803e3d6000fd5b50505050505050565b600681815481106114ef57600080fd5b90600052602060002090600702016000915090508060000154908060010160009054906101000a900473ffffffffffffffffffffffffffffffffffffffff169080600201805461153e90613bf8565b80601f016020809104026020016040519081016040528092919081815260200182805461156a90613bf8565b80156115b75780601f1061158c576101008083540402835291602001916115b7565b820191906000526020600020905b81548152906001019060200180831161159a57829003601f168201915b5050505050908060030180546115cc90613bf8565b80601f01602080910402602001604051908101604052809291908181526020018280546115f890613bf8565b80156116455780601f1061161a57610100808354040283529160200191611645565b820191906000526020600020905b81548152906001019060200180831161162857829003601f168201915b50505050509080600401549080600501805461166090613bf8565b80601f016020809104026020016040519081016040528092919081815260200182805461168c90613bf8565b80156116d95780601f106116ae576101008083540402835291602001916116d9565b820191906000526020600020905b8154815290600101906020018083116116bc57829003601f168201915b5050505050908060060154905087565b6000600280549050905090565b80600760006101000a81548173ffffffffffffffffffffffffffffffffffffffff021916908373ffffffffffffffffffffffffffffffffffffffff16021790555050565b60005b60068054905081101561196257816006828154811061175f5761175e613b37565b5b906000526020600020906007020160000154141561194f576006600160068054905061178b9190613b95565b8154811061179c5761179b613b37565b5b9060005260206000209060070201600682815481106117be576117bd613b37565b5b9060005260206000209060070201600082015481600001556001820160009054906101000a900473ffffffffffffffffffffffffffffffffffffffff168160010160006101000a81548173ffffffffffffffffffffffffffffffffffffffff021916908373ffffffffffffffffffffffffffffffffffffffff160217905550600282018160020190805461185190613bf8565b61185c92919061328c565b50600382018160030190805461187190613bf8565b61187c92919061328c565b5060048201548160040155600582018160050190805461189b90613bf8565b6118a692919061328c565b506006820154816006015590505060068054806118c6576118c5613c2a565b5b60019003818190600052602060002090600702016000808201600090556001820160006101000a81549073ffffffffffffffffffffffffffffffffffffffff021916905560028201600061191a9190613319565b60038201600061192a9190613319565b60048201600090556005820160006119429190613319565b6006820160009055505090555b808061195a90613c59565b91505061173d565b5050565b60005b600180549050811015611afc57816001828154811061198b5761198a613b37565b5b9060005260206000209060040201600001541415611ae95760018080805490506119b59190613b95565b815481106119c6576119c5613b37565b5b9060005260206000209060040201600182815481106119e8576119e7613b37565b5b9060005260206000209060040201600082015481600001556001820160009054906101000a900473ffffffffffffffffffffffffffffffffffffffff168160010160006101000a81548173ffffffffffffffffffffffffffffffffffffffff021916908373ffffffffffffffffffffffffffffffffffffffff16021790555060028201548160020155600382015481600301559050506001805480611a9057611a8f613c2a565b5b60019003818190600052602060002090600402016000808201600090556001820160006101000a81549073ffffffffffffffffffffffffffffffffffffffff021916905560028201600090556003820160009055505090555b8080611af490613c59565b915050611969565b5050565b600260405180608001604052806001600280549050611b1f9190613ca2565b81526020018573ffffffffffffffffffffffffffffffffffffffff1681526020018481526020018381525090806001815401808255809150506001900390600052602060002090600402016000909190919091506000820151816000015560208201518160010160006101000a81548173ffffffffffffffffffffffffffffffffffffffff021916908373ffffffffffffffffffffffffffffffffffffffff16021790555060408201518160020155606082015181600301555050505050565b6000600180549050905090565b6000600680549050905090565b60028181548110611c0957600080fd5b90600052602060002090600402016000915090508060000154908060010160009054906101000a900473ffffffffffffffffffffffffffffffffffffffff16908060020154908060030154905084565b60008080549050905090565b600060405180608001604052806001600080549050611c849190613ca2565b81526020018573ffffffffffffffffffffffffffffffffffffffff1681526020018481526020018381525090806001815401808255809150506001900390600052602060002090600402016000909190919091506000820151816000015560208201518160010160006101000a81548173ffffffffffffffffffffffffffffffffffffffff021916908373ffffffffffffffffffffffffffffffffffffffff16021790555060408201518160020155606082015181600301555050600760009054906101000a900473ffffffffffffffffffffffffffffffffffffffff1673ffffffffffffffffffffffffffffffffffffffff1663507cd30f84600a6040518363ffffffff1660e01b8152600401611d9d929190613da1565b600060405180830381600087803b158015611db757600080fd5b505af1158015611dcb573d6000803e3d6000fd5b50505050505050565b6001604051806080016040528060018080549050611df29190613ca2565b81526020018573ffffffffffffffffffffffffffffffffffffffff1681526020018481526020018381525090806001815401808255809150506001900390600052602060002090600402016000909190919091506000820151816000015560208201518160010160006101000a81548173ffffffffffffffffffffffffffffffffffffffff021916908373ffffffffffffffffffffffffffffffffffffffff16021790555060408201518160020155606082015181600301555050505050565b611eba613397565b6005600183611ec99190613b95565b81548110611eda57611ed9613b37565b5b90600052602060002090600702016040518060e0016040529081600082015481526020016001820160009054906101000a900473ffffffffffffffffffffffffffffffffffffffff1673ffffffffffffffffffffffffffffffffffffffff1673ffffffffffffffffffffffffffffffffffffffff168152602001600282018054611f6390613bf8565b80601f0160208091040260200160405190810160405280929190818152602001828054611f8f90613bf8565b8015611fdc5780601f10611fb157610100808354040283529160200191611fdc565b820191906000526020600020905b815481529060010190602001808311611fbf57829003601f168201915b50505050508152602001600382018054611ff590613bf8565b80601f016020809104026020016040519081016040528092919081815260200182805461202190613bf8565b801561206e5780601f106120435761010080835404028352916020019161206e565b820191906000526020600020905b81548152906001019060200180831161205157829003601f168201915b505050505081526020016004820154815260200160058201805461209190613bf8565b80601f01602080910402602001604051908101604052809291908181526020018280546120bd90613bf8565b801561210a5780601f106120df5761010080835404028352916020019161210a565b820191906000526020600020905b8154815290600101906020018083116120ed57829003601f168201915b505050505081526020016006820154815250509050919050565b6000855111612168576040517f08c379a000000000000000000000000000000000000000000000000000000000815260040161215f90613e16565b60405180910390fd5b60008451116121ac576040517f08c379a00000000000000000000000000000000000000000000000000000000081526004016121a390613e82565b60405180910390fd5b60056040518060e0016040528060016005805490506121cb9190613ca2565b81526020018873ffffffffffffffffffffffffffffffffffffffff1681526020018781526020018681526020018581526020018481526020018381525090806001815401808255809150506001900390600052602060002090600702016000909190919091506000820151816000015560208201518160010160006101000a81548173ffffffffffffffffffffffffffffffffffffffff021916908373ffffffffffffffffffffffffffffffffffffffff160217905550604082015181600201908051906020019061229e9291906133ea565b5060608201518160030190805190602001906122bb9291906133ea565b506080820151816004015560a08201518160050190805190602001906122e29291906133ea565b5060c082015181600601555050600760009054906101000a900473ffffffffffffffffffffffffffffffffffffffff1673ffffffffffffffffffffffffffffffffffffffff1663507cd30f87601e6040518363ffffffff1660e01b815260040161234d929190613edd565b600060405180830381600087803b15801561236757600080fd5b505af115801561237b573d6000803e3d6000fd5b50505050505050505050565b6000600580549050905090565b60005b6004805490508110156125bc5781600482815481106123b9576123b8613b37565b5b90600052602060002090600702016000015414156125a957600460016004805490506123e59190613b95565b815481106123f6576123f5613b37565b5b90600052602060002090600702016004828154811061241857612417613b37565b5b9060005260206000209060070201600082015481600001556001820160009054906101000a900473ffffffffffffffffffffffffffffffffffffffff168160010160006101000a81548173ffffffffffffffffffffffffffffffffffffffff021916908373ffffffffffffffffffffffffffffffffffffffff16021790555060028201816002019080546124ab90613bf8565b6124b692919061328c565b5060038201816003019080546124cb90613bf8565b6124d692919061328c565b506004820154816004015560058201816005019080546124f590613bf8565b61250092919061328c565b506006820154816006015590505060048054806125205761251f613c2a565b5b60019003818190600052602060002090600702016000808201600090556001820160006101000a81549073ffffffffffffffffffffffffffffffffffffffff02191690556002820160006125749190613319565b6003820160006125849190613319565b600482016000905560058201600061259c9190613319565b6006820160009055505090555b80806125b490613c59565b915050612397565b5050565b6000855111612604576040517f08c379a00000000000000000000000000000000000000000000000000000000081526004016125fb90613e16565b60405180910390fd5b6000845111612648576040517f08c379a000000000000000000000000000000000000000000000000000000000815260040161263f90613e82565b60405180910390fd5b60066040518060e0016040528060016006805490506126679190613ca2565b81526020018873ffffffffffffffffffffffffffffffffffffffff1681526020018781526020018681526020018581526020018481526020018381525090806001815401808255809150506001900390600052602060002090600702016000909190919091506000820151816000015560208201518160010160006101000a81548173ffffffffffffffffffffffffffffffffffffffff021916908373ffffffffffffffffffffffffffffffffffffffff160217905550604082015181600201908051906020019061273a9291906133ea565b5060608201518160030190805190602001906127579291906133ea565b506080820151816004015560a082015181600501908051906020019061277e9291906133ea565b5060c082015181600601555050600760009054906101000a900473ffffffffffffffffffffffffffffffffffffffff1673ffffffffffffffffffffffffffffffffffffffff1663507cd30f8760146040518363ffffffff1660e01b81526004016127e9929190613f41565b600060405180830381600087803b15801561280357600080fd5b505af1158015612817573d6000803e3d6000fd5b50505050505050505050565b6000855111612867576040517f08c379a000000000000000000000000000000000000000000000000000000000815260040161285e90613e16565b60405180910390fd5b60008451116128ab576040517f08c379a00000000000000000000000000000000000000000000000000000000081526004016128a290613e82565b60405180910390fd5b60046040518060e0016040528060016004805490506128ca9190613ca2565b81526020018873ffffffffffffffffffffffffffffffffffffffff1681526020018781526020018681526020018581526020018481526020018381525090806001815401808255809150506001900390600052602060002090600702016000909190919091506000820151816000015560208201518160010160006101000a81548173ffffffffffffffffffffffffffffffffffffffff021916908373ffffffffffffffffffffffffffffffffffffffff160217905550604082015181600201908051906020019061299d9291906133ea565b5060608201518160030190805190602001906129ba9291906133ea565b506080820151816004015560a08201518160050190805190602001906129e19291906133ea565b5060c082015181600601555050600760009054906101000a900473ffffffffffffffffffffffffffffffffffffffff1673ffffffffffffffffffffffffffffffffffffffff1663507cd30f8760196040518363ffffffff1660e01b8152600401612a4c929190613fa5565b600060405180830381600087803b158015612a6657600080fd5b505af1158015612a7a573d6000803e3d6000fd5b50505050505050505050565b60005b600080549050811015612c1e578160008281548110612aab57612aaa613b37565b5b9060005260206000209060040201600001541415612c0b5760006001600080549050612ad79190613b95565b81548110612ae857612ae7613b37565b5b906000526020600020906004020160008281548110612b0a57612b09613b37565b5b9060005260206000209060040201600082015481600001556001820160009054906101000a900473ffffffffffffffffffffffffffffffffffffffff168160010160006101000a81548173ffffffffffffffffffffffffffffffffffffffff021916908373ffffffffffffffffffffffffffffffffffffffff16021790555060028201548160020155600382015481600301559050506000805480612bb257612bb1613c2a565b5b60019003818190600052602060002090600402016000808201600090556001820160006101000a81549073ffffffffffffffffffffffffffffffffffffffff021916905560028201600090556003820160009055505090555b8080612c1690613c59565b915050612a89565b5050565b60038181548110612c3257600080fd5b90600052602060002090600402016000915090508060000154908060010160009054906101000a900473ffffffffffffffffffffffffffffffffffffffff16908060020154908060030154905084565b60005b600380549050811015612e1a578160038281548110612ca757612ca6613b37565b5b9060005260206000209060040201600001541415612e075760036001600380549050612cd39190613b95565b81548110612ce457612ce3613b37565b5b906000526020600020906004020160038281548110612d0657612d05613b37565b5b9060005260206000209060040201600082015481600001556001820160009054906101000a900473ffffffffffffffffffffffffffffffffffffffff168160010160006101000a81548173ffffffffffffffffffffffffffffffffffffffff021916908373ffffffffffffffffffffffffffffffffffffffff16021790555060028201548160020155600382015481600301559050506003805480612dae57612dad613c2a565b5b60019003818190600052602060002090600402016000808201600090556001820160006101000a81549073ffffffffffffffffffffffffffffffffffffffff021916905560028201600090556003820160009055505090555b8080612e1290613c59565b915050612c85565b5050565b60008181548110612e2e57600080fd5b90600052602060002090600402016000915090508060000154908060010160009054906101000a900473ffffffffffffffffffffffffffffffffffffffff16908060020154908060030154905084565b60005b600280549050811015613016578160028281548110612ea357612ea2613b37565b5b90600052602060002090600402016000015414156130035760026001600280549050612ecf9190613b95565b81548110612ee057612edf613b37565b5b906000526020600020906004020160028281548110612f0257612f01613b37565b5b9060005260206000209060040201600082015481600001556001820160009054906101000a900473ffffffffffffffffffffffffffffffffffffffff168160010160006101000a81548173ffffffffffffffffffffffffffffffffffffffff021916908373ffffffffffffffffffffffffffffffffffffffff16021790555060028201548160020155600382015481600301559050506002805480612faa57612fa9613c2a565b5b60019003818190600052602060002090600402016000808201600090556001820160006101000a81549073ffffffffffffffffffffffffffffffffffffffff021916905560028201600090556003820160009055505090555b808061300e90613c59565b915050612e81565b5050565b613022613397565b60066001836130319190613b95565b8154811061304257613041613b37565b5b90600052602060002090600702016040518060e0016040529081600082015481526020016001820160009054906101000a900473ffffffffffffffffffffffffffffffffffffffff1673ffffffffffffffffffffffffffffffffffffffff1673ffffffffffffffffffffffffffffffffffffffff1681526020016002820180546130cb90613bf8565b80601f01602080910402602001604051908101604052809291908181526020018280546130f790613bf8565b80156131445780601f1061311957610100808354040283529160200191613144565b820191906000526020600020905b81548152906001019060200180831161312757829003601f168201915b5050505050815260200160038201805461315d90613bf8565b80601f016020809104026020016040519081016040528092919081815260200182805461318990613bf8565b80156131d65780601f106131ab576101008083540402835291602001916131d6565b820191906000526020600020905b8154815290600101906020018083116131b957829003601f168201915b50505050508152602001600482015481526020016005820180546131f990613bf8565b80601f016020809104026020016040519081016040528092919081815260200182805461322590613bf8565b80156132725780601f1061324757610100808354040283529160200191613272565b820191906000526020600020905b81548152906001019060200180831161325557829003601f168201915b505050505081526020016006820154815250509050919050565b82805461329890613bf8565b90600052602060002090601f0160209004810192826132ba5760008555613308565b82601f106132cb5780548555613308565b8280016001018555821561330857600052602060002091601f016020900482015b828111156133075782548255916001019190600101906132ec565b5b5090506133159190613470565b5090565b50805461332590613bf8565b6000825580601f106133375750613356565b601f0160209004906000526020600020908101906133559190613470565b5b50565b604051806080016040528060008152602001600073ffffffffffffffffffffffffffffffffffffffff16815260200160008152602001600081525090565b6040518060e0016040528060008152602001600073ffffffffffffffffffffffffffffffffffffffff16815260200160608152602001606081526020016000815260200160608152602001600081525090565b8280546133f690613bf8565b90600052602060002090601f016020900481019282613418576000855561345f565b82601f1061343157805160ff191683800117855561345f565b8280016001018555821561345f579182015b8281111561345e578251825591602001919060010190613443565b5b50905061346c9190613470565b5090565b5b80821115613489576000816000905550600101613471565b5090565b6000604051905090565b600080fd5b600080fd5b6000819050919050565b6134b4816134a1565b81146134bf57600080fd5b50565b6000813590506134d1816134ab565b92915050565b6000602082840312156134ed576134ec613497565b5b60006134fb848285016134c2565b91505092915050565b61350d816134a1565b82525050565b600073ffffffffffffffffffffffffffffffffffffffff82169050919050565b600061353e82613513565b9050919050565b61354e81613533565b82525050565b600081519050919050565b600082825260208201905092915050565b60005b8381101561358e578082015181840152602081019050613573565b8381111561359d576000848401525b50505050565b6000601f19601f8301169050919050565b60006135bf82613554565b6135c9818561355f565b93506135d9818560208601613570565b6135e2816135a3565b840191505092915050565b600060e082019050613602600083018a613504565b61360f6020830189613545565b818103604083015261362181886135b4565b9050818103606083015261363581876135b4565b90506136446080830186613504565b81810360a083015261365681856135b4565b905061366560c0830184613504565b98975050505050505050565b61367a816134a1565b82525050565b61368981613533565b82525050565b6080820160008201516136a56000850182613671565b5060208201516136b86020850182613680565b5060408201516136cb6040850182613671565b5060608201516136de6060850182613671565b50505050565b60006080820190506136f9600083018461368f565b92915050565b60006020820190506137146000830184613504565b92915050565b600060808201905061372f6000830187613504565b61373c6020830186613545565b6137496040830185613504565b6137566060830184613504565b95945050505050565b600082825260208201905092915050565b600061377b82613554565b613785818561375f565b9350613795818560208601613570565b61379e816135a3565b840191505092915050565b600060e0830160008301516137c16000860182613671565b5060208301516137d46020860182613680565b50604083015184820360408601526137ec8282613770565b915050606083015184820360608601526138068282613770565b915050608083015161381b6080860182613671565b5060a083015184820360a08601526138338282613770565b91505060c083015161384860c0860182613671565b508091505092915050565b6000602082019050818103600083015261386d81846137a9565b905092915050565b61387e81613533565b811461388957600080fd5b50565b60008135905061389b81613875565b92915050565b6000806000606084860312156138ba576138b9613497565b5b60006138c88682870161388c565b93505060206138d9868287016134c2565b92505060406138ea868287016134c2565b9150509250925092565b60006020828403121561390a57613909613497565b5b60006139188482850161388c565b91505092915050565b600080fd5b600080fd5b7f4e487b7100000000000000000000000000000000000000000000000000000000600052604160045260246000fd5b613963826135a3565b810181811067ffffffffffffffff821117156139825761398161392b565b5b80604052505050565b600061399561348d565b90506139a1828261395a565b919050565b600067ffffffffffffffff8211156139c1576139c061392b565b5b6139ca826135a3565b9050602081019050919050565b82818337600083830152505050565b60006139f96139f4846139a6565b61398b565b905082815260208101848484011115613a1557613a14613926565b5b613a208482856139d7565b509392505050565b600082601f830112613a3d57613a3c613921565b5b8135613a4d8482602086016139e6565b91505092915050565b60008060008060008060c08789031215613a7357613a72613497565b5b6000613a8189828a0161388c565b965050602087013567ffffffffffffffff811115613aa257613aa161349c565b5b613aae89828a01613a28565b955050604087013567ffffffffffffffff811115613acf57613ace61349c565b5b613adb89828a01613a28565b9450506060613aec89828a016134c2565b935050608087013567ffffffffffffffff811115613b0d57613b0c61349c565b5b613b1989828a01613a28565b92505060a0613b2a89828a016134c2565b9150509295509295509295565b7f4e487b7100000000000000000000000000000000000000000000000000000000600052603260045260246000fd5b7f4e487b7100000000000000000000000000000000000000000000000000000000600052601160045260246000fd5b6000613ba0826134a1565b9150613bab836134a1565b925082821015613bbe57613bbd613b66565b5b828203905092915050565b7f4e487b7100000000000000000000000000000000000000000000000000000000600052602260045260246000fd5b60006002820490506001821680613c1057607f821691505b60208210811415613c2457613c23613bc9565b5b50919050565b7f4e487b7100000000000000000000000000000000000000000000000000000000600052603160045260246000fd5b6000613c64826134a1565b91507fffffffffffffffffffffffffffffffffffffffffffffffffffffffffffffffff821415613c9757613c96613b66565b5b600182019050919050565b6000613cad826134a1565b9150613cb8836134a1565b9250827fffffffffffffffffffffffffffffffffffffffffffffffffffffffffffffffff03821115613ced57613cec613b66565b5b828201905092915050565b6000819050919050565b6000819050919050565b6000613d27613d22613d1d84613cf8565b613d02565b6134a1565b9050919050565b613d3781613d0c565b82525050565b6000604082019050613d526000830185613545565b613d5f6020830184613d2e565b9392505050565b6000819050919050565b6000613d8b613d86613d8184613d66565b613d02565b6134a1565b9050919050565b613d9b81613d70565b82525050565b6000604082019050613db66000830185613545565b613dc36020830184613d92565b9392505050565b7f43617465676f7279206973207265717569726564000000000000000000000000600082015250565b6000613e0060148361355f565b9150613e0b82613dca565b602082019050919050565b60006020820190508181036000830152613e2f81613df3565b9050919050565b7f4163746976697479206e616d6520697320726571756972656400000000000000600082015250565b6000613e6c60198361355f565b9150613e7782613e36565b602082019050919050565b60006020820190508181036000830152613e9b81613e5f565b9050919050565b6000819050919050565b6000613ec7613ec2613ebd84613ea2565b613d02565b6134a1565b9050919050565b613ed781613eac565b82525050565b6000604082019050613ef26000830185613545565b613eff6020830184613ece565b9392505050565b6000819050919050565b6000613f2b613f26613f2184613f06565b613d02565b6134a1565b9050919050565b613f3b81613f10565b82525050565b6000604082019050613f566000830185613545565b613f636020830184613f32565b9392505050565b6000819050919050565b6000613f8f613f8a613f8584613f6a565b613d02565b6134a1565b9050919050565b613f9f81613f74565b82525050565b6000604082019050613fba6000830185613545565b613fc76020830184613f96565b939250505056fea264697066735822122077a7322375ee830e7f4729a8a10da75ef5d699af9e383250e68bec92e27ea4ea64736f6c634300080a0033",
  "immutableReferences": {},
  "source": "// SPDX-License-Identifier: UNLICENSED\r\npragma solidity >= 0.8.0;\r\n\r\nimport \"./Storage.sol\";\r\n\r\ncontract EightFit {\r\n  struct ShortPost {\r\n    uint256 shortPostId;\r\n    address userAddress;\r\n    uint256 activityLength;\r\n    uint256 date;\r\n  }\r\n\r\n  struct Post {\r\n    uint256 postId;\r\n    address userAddress;\r\n    string category;\r\n    string activityName;\r\n    uint256 minutesCompleted;\r\n    string intensity;\r\n    uint256 date;\r\n  }\r\n\r\n  ShortPost[] public stepsPosts;\r\n  ShortPost[] public caloriesEatenPosts;\r\n  ShortPost[] public caloriesBurnedPosts;\r\n  ShortPost[] public sleepPosts;\r\n  Post[] public cardioPosts;\r\n  Post[] public strengthTrainingPosts;\r\n  Post[] public wellbeingPosts;\r\n  Storage dataStorage;\r\n\r\n  // Getters\r\n  function getStepsPostsCount() public view returns(uint256) {\r\n    return stepsPosts.length;\r\n  }\r\n\r\n  function getStepsPost(uint256 stepsPostId) public view returns(ShortPost memory) {\r\n    // The post's index in the array starts from zero, so 1 is subtracted from the ID\r\n    return stepsPosts[stepsPostId - 1];\r\n  }\r\n\r\n  function getCaloriesEatenPostsCount() public view returns(uint256) {\r\n    return caloriesEatenPosts.length;\r\n  }\r\n\r\n  function getCaloriesEatenPost(uint256 caloriesEatenPostId) public view returns(ShortPost memory) {\r\n    return caloriesEatenPosts[caloriesEatenPostId - 1];\r\n  }\r\n\r\n  function getCaloriesBurnedPostsCount() public view returns(uint256) {\r\n    return caloriesBurnedPosts.length;\r\n  }\r\n\r\n  function getCaloriesBurnedPost(uint256 caloriesBurnedPostId) public view returns(ShortPost memory) {\r\n    return caloriesBurnedPosts[caloriesBurnedPostId - 1];\r\n  }\r\n\r\n  function getSleepPostsCount() public view returns(uint256) {\r\n    return sleepPosts.length;\r\n  }\r\n\r\n  function getSleepPost(uint256 sleepPostId) public view returns(ShortPost memory) {\r\n    return sleepPosts[sleepPostId - 1];\r\n  }\r\n\r\n  function getCardioPostsCount() public view returns(uint256) {\r\n    return cardioPosts.length;\r\n  }\r\n\r\n  function getCardioPost(uint256 cardioPostId) public view returns(Post memory) {\r\n    return cardioPosts[cardioPostId - 1];\r\n  }\r\n\r\n  function getStrengthTrainingPostsCount() public view returns(uint256) {\r\n    return strengthTrainingPosts.length;\r\n  }\r\n\r\n  function getStrengthTrainingPost(uint256 strengthTrainingPostId) public view returns(Post memory) {\r\n    return strengthTrainingPosts[strengthTrainingPostId - 1];\r\n  }\r\n\r\n  function getWellbeingPostsCount() public view returns(uint256) {\r\n    return wellbeingPosts.length;\r\n  }\r\n\r\n  function getWellbeingPost(uint256 wellbeingPostId) public view returns(Post memory) {\r\n    return wellbeingPosts[wellbeingPostId - 1];\r\n  }\r\n\r\n  // Setters\r\n  function setStorageAddress(address dataStorageContractAddress) public {\r\n    dataStorage = Storage(dataStorageContractAddress);\r\n  }\r\n\r\n  function addDailyStepPost(address userAddress, uint256 stepsTakenToday, uint256 date) public {\r\n    stepsPosts.push(ShortPost(stepsPosts.length + 1, userAddress, stepsTakenToday, date));\r\n\r\n    // Add points to the user\r\n    dataStorage.addPoints(userAddress, 10);\r\n  }\r\n\r\n  function deleteDailyStepCountPost(uint256 stepsPostId) public {\r\n    for (uint256 i = 0; i < stepsPosts.length; i++) {\r\n      if (stepsPosts[i].shortPostId == stepsPostId) {\r\n        stepsPosts[i] = stepsPosts[stepsPosts.length - 1];\r\n        stepsPosts.pop();\r\n      }\r\n    }\r\n  }\r\n\r\n  function addCaloriesEatenPost(address userAddress, uint256 caloriesEatenToday, uint256 date) public {\r\n    caloriesEatenPosts.push(ShortPost(caloriesEatenPosts.length + 1, userAddress, caloriesEatenToday, date));\r\n  }\r\n\r\n  function deleteCaloriesEatenPost(uint256 caloriesEatenPostId) public {\r\n    for (uint256 i = 0; i < caloriesEatenPosts.length; i++) {\r\n      if (caloriesEatenPosts[i].shortPostId == caloriesEatenPostId) {\r\n        caloriesEatenPosts[i] = caloriesEatenPosts[caloriesEatenPosts.length - 1];\r\n        caloriesEatenPosts.pop();\r\n      }\r\n    }\r\n  }\r\n\r\n  function addCaloriesBurnedPost(address userAddress, uint256 caloriesBurnedToday, uint256 date) public {\r\n    caloriesBurnedPosts.push(ShortPost(caloriesBurnedPosts.length + 1, userAddress, caloriesBurnedToday, date));\r\n  }\r\n\r\n  function deleteCaloriesBurnedPost(uint256 caloriesBurnedPostId) public {\r\n    for (uint256 i = 0; i < caloriesBurnedPosts.length; i++) {\r\n      if (caloriesBurnedPosts[i].shortPostId == caloriesBurnedPostId) {\r\n        caloriesBurnedPosts[i] = caloriesBurnedPosts[caloriesBurnedPosts.length - 1];\r\n        caloriesBurnedPosts.pop();\r\n      }\r\n    }\r\n  }\r\n\r\n  function addSleepPost(address userAddress, uint256 hoursSlept, uint256 date) public {\r\n    sleepPosts.push(ShortPost(sleepPosts.length + 1, userAddress, hoursSlept, date));\r\n\r\n    dataStorage.addPoints(userAddress, 3);\r\n  }\r\n\r\n  function deleteSleepPost(uint256 sleepPostId) public {\r\n    for (uint256 i = 0; i < sleepPosts.length; i++) {\r\n      if (sleepPosts[i].shortPostId == sleepPostId) {\r\n        sleepPosts[i] = sleepPosts[sleepPosts.length - 1];\r\n        sleepPosts.pop();\r\n      }\r\n    }\r\n  }\r\n\r\n  function addCardioPost(address userAddress, string memory category, string memory activityName, uint256 minutesCompleted, string memory intensity, uint256 date) public {\r\n    require(bytes(category).length > 0, \"Category is required\");\r\n    require(bytes(activityName).length > 0, \"Activity name is required\");\r\n\r\n    cardioPosts.push(Post(cardioPosts.length + 1, userAddress, category, activityName, minutesCompleted, intensity, date));\r\n\r\n    dataStorage.addPoints(userAddress, 25);\r\n  }\r\n\r\n  function deleteCardioPost(uint256 cardioPostId) public {\r\n    for (uint256 i = 0; i < cardioPosts.length; i++) {\r\n      if (cardioPosts[i].postId == cardioPostId) {\r\n        cardioPosts[i] = cardioPosts[cardioPosts.length - 1];\r\n        cardioPosts.pop();\r\n      }\r\n    }\r\n  }\r\n\r\n  function addStrengthTrainingPost(address userAddress, string memory category, string memory activityName, uint256 minutesCompleted, string memory intensity, uint256 date) public {\r\n    require(bytes(category).length > 0, \"Category is required\");\r\n    require(bytes(activityName).length > 0, \"Activity name is required\");\r\n\r\n    strengthTrainingPosts.push(Post(strengthTrainingPosts.length + 1, userAddress, category, activityName, minutesCompleted, intensity, date));\r\n\r\n    dataStorage.addPoints(userAddress, 30);\r\n  }\r\n\r\n  function deleteStrengthTrainingPost(uint256 strengthTrainingPostId) public {\r\n    for (uint256 i = 0; i < strengthTrainingPosts.length; i++) {\r\n      if (strengthTrainingPosts[i].postId == strengthTrainingPostId) {\r\n        strengthTrainingPosts[i] = strengthTrainingPosts[strengthTrainingPosts.length - 1];\r\n        strengthTrainingPosts.pop();\r\n      }\r\n    }\r\n  }\r\n\r\n  function addWellbeingPost(address userAddress, string memory category, string memory activityName, uint256 minutesCompleted, string memory intensity, uint256 date) public {\r\n    require(bytes(category).length > 0, \"Category is required\");\r\n    require(bytes(activityName).length > 0, \"Activity name is required\");\r\n\r\n    wellbeingPosts.push(Post(wellbeingPosts.length + 1, userAddress, category, activityName, minutesCompleted, intensity, date));\r\n\r\n    dataStorage.addPoints(userAddress, 20);\r\n  }\r\n\r\n  function deleteWellbeingPost(uint256 wellbeingPostId) public {\r\n    for (uint256 i = 0; i < wellbeingPosts.length; i++) {\r\n      if (wellbeingPosts[i].postId == wellbeingPostId) {\r\n        wellbeingPosts[i] = wellbeingPosts[wellbeingPosts.length - 1];\r\n        wellbeingPosts.pop();\r\n      }\r\n    }\r\n  }\r\n}",
  "sourcePath": "C:\\Users\\Cate\\Projects\\8Fit\\contracts\\EightFit.sol",
  "compiler": {
    "name": "solc",
    "version": "0.8.10+commit.fc410830.Emscripten.clang"
  },
  "schemaVersion": "3.4.3",
  "updatedAt": "2022-10-24T01:30:51.971Z",
  "networkType": "ethereum",
  "devdoc": {
    "kind": "dev",
    "methods": {},
    "version": 1
  },
  "userdoc": {
    "kind": "user",
    "methods": {},
    "version": 1
  }
}