{
  "contractName": "Storage",
  "address": "0x83a052C2723287CC26F8Cc5d6E5CbC8E9B90A3d9",
  "abi": [
    {
      "inputs": [
        {
          "internalType": "address",
          "name": "",
          "type": "address"
        }
      ],
      "name": "age",
      "outputs": [
        {
          "internalType": "uint256",
          "name": "",
          "type": "uint256"
        }
      ],
      "stateMutability": "view",
      "type": "function",
      "constant": true
    },
    {
      "inputs": [
        {
          "internalType": "address",
          "name": "",
          "type": "address"
        }
      ],
      "name": "dailyCardioGoal",
      "outputs": [
        {
          "internalType": "uint256",
          "name": "",
          "type": "uint256"
        }
      ],
      "stateMutability": "view",
      "type": "function",
      "constant": true
    },
    {
      "inputs": [
        {
          "internalType": "address",
          "name": "",
          "type": "address"
        }
      ],
      "name": "dailySleepGoal",
      "outputs": [
        {
          "internalType": "uint256",
          "name": "",
          "type": "uint256"
        }
      ],
      "stateMutability": "view",
      "type": "function",
      "constant": true
    },
    {
      "inputs": [
        {
          "internalType": "address",
          "name": "",
          "type": "address"
        }
      ],
      "name": "dailyStepGoal",
      "outputs": [
        {
          "internalType": "uint256",
          "name": "",
          "type": "uint256"
        }
      ],
      "stateMutability": "view",
      "type": "function",
      "constant": true
    },
    {
      "inputs": [
        {
          "internalType": "address",
          "name": "",
          "type": "address"
        }
      ],
      "name": "dailyStrengthTrainingGoal",
      "outputs": [
        {
          "internalType": "uint256",
          "name": "",
          "type": "uint256"
        }
      ],
      "stateMutability": "view",
      "type": "function",
      "constant": true
    },
    {
      "inputs": [
        {
          "internalType": "address",
          "name": "",
          "type": "address"
        }
      ],
      "name": "dailyWellbeingGoal",
      "outputs": [
        {
          "internalType": "uint256",
          "name": "",
          "type": "uint256"
        }
      ],
      "stateMutability": "view",
      "type": "function",
      "constant": true
    },
    {
      "inputs": [
        {
          "internalType": "address",
          "name": "",
          "type": "address"
        }
      ],
      "name": "displayName",
      "outputs": [
        {
          "internalType": "string",
          "name": "",
          "type": "string"
        }
      ],
      "stateMutability": "view",
      "type": "function",
      "constant": true
    },
    {
      "inputs": [
        {
          "internalType": "address",
          "name": "",
          "type": "address"
        }
      ],
      "name": "gender",
      "outputs": [
        {
          "internalType": "string",
          "name": "",
          "type": "string"
        }
      ],
      "stateMutability": "view",
      "type": "function",
      "constant": true
    },
    {
      "inputs": [
        {
          "internalType": "address",
          "name": "",
          "type": "address"
        }
      ],
      "name": "height",
      "outputs": [
        {
          "internalType": "uint256",
          "name": "",
          "type": "uint256"
        }
      ],
      "stateMutability": "view",
      "type": "function",
      "constant": true
    },
    {
      "inputs": [
        {
          "internalType": "address",
          "name": "",
          "type": "address"
        }
      ],
      "name": "points",
      "outputs": [
        {
          "internalType": "uint256",
          "name": "",
          "type": "uint256"
        }
      ],
      "stateMutability": "view",
      "type": "function",
      "constant": true
    },
    {
      "inputs": [
        {
          "internalType": "address",
          "name": "",
          "type": "address"
        }
      ],
      "name": "profilePic",
      "outputs": [
        {
          "internalType": "string",
          "name": "",
          "type": "string"
        }
      ],
      "stateMutability": "view",
      "type": "function",
      "constant": true
    },
    {
      "inputs": [
        {
          "internalType": "address",
          "name": "",
          "type": "address"
        }
      ],
      "name": "weeklyCardioGoal",
      "outputs": [
        {
          "internalType": "uint256",
          "name": "",
          "type": "uint256"
        }
      ],
      "stateMutability": "view",
      "type": "function",
      "constant": true
    },
    {
      "inputs": [
        {
          "internalType": "address",
          "name": "",
          "type": "address"
        }
      ],
      "name": "weeklySleepGoal",
      "outputs": [
        {
          "internalType": "uint256",
          "name": "",
          "type": "uint256"
        }
      ],
      "stateMutability": "view",
      "type": "function",
      "constant": true
    },
    {
      "inputs": [
        {
          "internalType": "address",
          "name": "",
          "type": "address"
        }
      ],
      "name": "weeklyStepGoal",
      "outputs": [
        {
          "internalType": "uint256",
          "name": "",
          "type": "uint256"
        }
      ],
      "stateMutability": "view",
      "type": "function",
      "constant": true
    },
    {
      "inputs": [
        {
          "internalType": "address",
          "name": "",
          "type": "address"
        }
      ],
      "name": "weeklyStrengthTrainingGoal",
      "outputs": [
        {
          "internalType": "uint256",
          "name": "",
          "type": "uint256"
        }
      ],
      "stateMutability": "view",
      "type": "function",
      "constant": true
    },
    {
      "inputs": [
        {
          "internalType": "address",
          "name": "",
          "type": "address"
        }
      ],
      "name": "weeklyWellbeingGoal",
      "outputs": [
        {
          "internalType": "uint256",
          "name": "",
          "type": "uint256"
        }
      ],
      "stateMutability": "view",
      "type": "function",
      "constant": true
    },
    {
      "inputs": [
        {
          "internalType": "address",
          "name": "",
          "type": "address"
        },
        {
          "internalType": "uint256",
          "name": "",
          "type": "uint256"
        }
      ],
      "name": "weight",
      "outputs": [
        {
          "internalType": "uint256",
          "name": "",
          "type": "uint256"
        }
      ],
      "stateMutability": "view",
      "type": "function",
      "constant": true
    },
    {
      "inputs": [
        {
          "internalType": "address",
          "name": "",
          "type": "address"
        }
      ],
      "name": "weightGoal",
      "outputs": [
        {
          "internalType": "uint256",
          "name": "",
          "type": "uint256"
        }
      ],
      "stateMutability": "view",
      "type": "function",
      "constant": true
    },
    {
      "inputs": [
        {
          "internalType": "address",
          "name": "userAddress",
          "type": "address"
        }
      ],
      "name": "getDisplayName",
      "outputs": [
        {
          "internalType": "string",
          "name": "",
          "type": "string"
        }
      ],
      "stateMutability": "view",
      "type": "function",
      "constant": true
    },
    {
      "inputs": [
        {
          "internalType": "address",
          "name": "userAddress",
          "type": "address"
        }
      ],
      "name": "getProfilePic",
      "outputs": [
        {
          "internalType": "string",
          "name": "",
          "type": "string"
        }
      ],
      "stateMutability": "view",
      "type": "function",
      "constant": true
    },
    {
      "inputs": [
        {
          "internalType": "address",
          "name": "userAddress",
          "type": "address"
        }
      ],
      "name": "getAge",
      "outputs": [
        {
          "internalType": "uint256",
          "name": "",
          "type": "uint256"
        }
      ],
      "stateMutability": "view",
      "type": "function",
      "constant": true
    },
    {
      "inputs": [
        {
          "internalType": "address",
          "name": "userAddress",
          "type": "address"
        }
      ],
      "name": "getGender",
      "outputs": [
        {
          "internalType": "string",
          "name": "",
          "type": "string"
        }
      ],
      "stateMutability": "view",
      "type": "function",
      "constant": true
    },
    {
      "inputs": [
        {
          "internalType": "address",
          "name": "userAddress",
          "type": "address"
        }
      ],
      "name": "getHeight",
      "outputs": [
        {
          "internalType": "uint256",
          "name": "",
          "type": "uint256"
        }
      ],
      "stateMutability": "view",
      "type": "function",
      "constant": true
    },
    {
      "inputs": [
        {
          "internalType": "address",
          "name": "userAddress",
          "type": "address"
        }
      ],
      "name": "getWeightCount",
      "outputs": [
        {
          "internalType": "uint256",
          "name": "",
          "type": "uint256"
        }
      ],
      "stateMutability": "view",
      "type": "function",
      "constant": true
    },
    {
      "inputs": [
        {
          "internalType": "address",
          "name": "userAddress",
          "type": "address"
        },
        {
          "internalType": "uint256",
          "name": "index",
          "type": "uint256"
        }
      ],
      "name": "getWeight",
      "outputs": [
        {
          "internalType": "uint256",
          "name": "",
          "type": "uint256"
        }
      ],
      "stateMutability": "view",
      "type": "function",
      "constant": true
    },
    {
      "inputs": [
        {
          "internalType": "address",
          "name": "userAddress",
          "type": "address"
        }
      ],
      "name": "getPoints",
      "outputs": [
        {
          "internalType": "uint256",
          "name": "",
          "type": "uint256"
        }
      ],
      "stateMutability": "view",
      "type": "function",
      "constant": true
    },
    {
      "inputs": [
        {
          "internalType": "address",
          "name": "userAddress",
          "type": "address"
        }
      ],
      "name": "getWeightGoal",
      "outputs": [
        {
          "internalType": "uint256",
          "name": "",
          "type": "uint256"
        }
      ],
      "stateMutability": "view",
      "type": "function",
      "constant": true
    },
    {
      "inputs": [
        {
          "internalType": "address",
          "name": "userAddress",
          "type": "address"
        }
      ],
      "name": "getDailyStepGoal",
      "outputs": [
        {
          "internalType": "uint256",
          "name": "",
          "type": "uint256"
        }
      ],
      "stateMutability": "view",
      "type": "function",
      "constant": true
    },
    {
      "inputs": [
        {
          "internalType": "address",
          "name": "userAddress",
          "type": "address"
        }
      ],
      "name": "getWeeklyStepGoal",
      "outputs": [
        {
          "internalType": "uint256",
          "name": "",
          "type": "uint256"
        }
      ],
      "stateMutability": "view",
      "type": "function",
      "constant": true
    },
    {
      "inputs": [
        {
          "internalType": "address",
          "name": "userAddress",
          "type": "address"
        }
      ],
      "name": "getDailyCardioGoal",
      "outputs": [
        {
          "internalType": "uint256",
          "name": "",
          "type": "uint256"
        }
      ],
      "stateMutability": "view",
      "type": "function",
      "constant": true
    },
    {
      "inputs": [
        {
          "internalType": "address",
          "name": "userAddress",
          "type": "address"
        }
      ],
      "name": "getWeeklyCardioGoal",
      "outputs": [
        {
          "internalType": "uint256",
          "name": "",
          "type": "uint256"
        }
      ],
      "stateMutability": "view",
      "type": "function",
      "constant": true
    },
    {
      "inputs": [
        {
          "internalType": "address",
          "name": "userAddress",
          "type": "address"
        }
      ],
      "name": "getDailyStrengthTrainingGoal",
      "outputs": [
        {
          "internalType": "uint256",
          "name": "",
          "type": "uint256"
        }
      ],
      "stateMutability": "view",
      "type": "function",
      "constant": true
    },
    {
      "inputs": [
        {
          "internalType": "address",
          "name": "userAddress",
          "type": "address"
        }
      ],
      "name": "getWeeklyStrengthTrainingGoal",
      "outputs": [
        {
          "internalType": "uint256",
          "name": "",
          "type": "uint256"
        }
      ],
      "stateMutability": "view",
      "type": "function",
      "constant": true
    },
    {
      "inputs": [
        {
          "internalType": "address",
          "name": "userAddress",
          "type": "address"
        }
      ],
      "name": "getDailySleepGoal",
      "outputs": [
        {
          "internalType": "uint256",
          "name": "",
          "type": "uint256"
        }
      ],
      "stateMutability": "view",
      "type": "function",
      "constant": true
    },
    {
      "inputs": [
        {
          "internalType": "address",
          "name": "userAddress",
          "type": "address"
        }
      ],
      "name": "getWeeklySleepGoal",
      "outputs": [
        {
          "internalType": "uint256",
          "name": "",
          "type": "uint256"
        }
      ],
      "stateMutability": "view",
      "type": "function",
      "constant": true
    },
    {
      "inputs": [
        {
          "internalType": "address",
          "name": "userAddress",
          "type": "address"
        }
      ],
      "name": "getDailyWellbeingGoal",
      "outputs": [
        {
          "internalType": "uint256",
          "name": "",
          "type": "uint256"
        }
      ],
      "stateMutability": "view",
      "type": "function",
      "constant": true
    },
    {
      "inputs": [
        {
          "internalType": "address",
          "name": "userAddress",
          "type": "address"
        }
      ],
      "name": "getWeeklyWellbeingGoal",
      "outputs": [
        {
          "internalType": "uint256",
          "name": "",
          "type": "uint256"
        }
      ],
      "stateMutability": "view",
      "type": "function",
      "constant": true
    },
    {
      "inputs": [
        {
          "internalType": "address",
          "name": "userAddress",
          "type": "address"
        },
        {
          "internalType": "string",
          "name": "newDisplayName",
          "type": "string"
        }
      ],
      "name": "changeDisplayName",
      "outputs": [],
      "stateMutability": "nonpayable",
      "type": "function"
    },
    {
      "inputs": [
        {
          "internalType": "address",
          "name": "userAddress",
          "type": "address"
        },
        {
          "internalType": "string",
          "name": "newProfilePic",
          "type": "string"
        }
      ],
      "name": "changeProfilePic",
      "outputs": [],
      "stateMutability": "nonpayable",
      "type": "function"
    },
    {
      "inputs": [
        {
          "internalType": "address",
          "name": "userAddress",
          "type": "address"
        },
        {
          "internalType": "uint256",
          "name": "newAge",
          "type": "uint256"
        }
      ],
      "name": "changeAge",
      "outputs": [],
      "stateMutability": "nonpayable",
      "type": "function"
    },
    {
      "inputs": [
        {
          "internalType": "address",
          "name": "userAddress",
          "type": "address"
        },
        {
          "internalType": "string",
          "name": "newGender",
          "type": "string"
        }
      ],
      "name": "changeGender",
      "outputs": [],
      "stateMutability": "nonpayable",
      "type": "function"
    },
    {
      "inputs": [
        {
          "internalType": "address",
          "name": "userAddress",
          "type": "address"
        },
        {
          "internalType": "uint256",
          "name": "newHeight",
          "type": "uint256"
        }
      ],
      "name": "changeHeight",
      "outputs": [],
      "stateMutability": "nonpayable",
      "type": "function"
    },
    {
      "inputs": [
        {
          "internalType": "address",
          "name": "userAddress",
          "type": "address"
        },
        {
          "internalType": "uint256",
          "name": "newWeight",
          "type": "uint256"
        }
      ],
      "name": "changeWeight",
      "outputs": [],
      "stateMutability": "nonpayable",
      "type": "function"
    },
    {
      "inputs": [
        {
          "internalType": "address",
          "name": "userAddress",
          "type": "address"
        },
        {
          "internalType": "uint256",
          "name": "pointsToAdd",
          "type": "uint256"
        }
      ],
      "name": "addPoints",
      "outputs": [],
      "stateMutability": "nonpayable",
      "type": "function"
    },
    {
      "inputs": [
        {
          "internalType": "address",
          "name": "userAddress",
          "type": "address"
        },
        {
          "internalType": "uint256",
          "name": "newWeightGoal",
          "type": "uint256"
        }
      ],
      "name": "changeWeightGoal",
      "outputs": [],
      "stateMutability": "nonpayable",
      "type": "function"
    },
    {
      "inputs": [
        {
          "internalType": "address",
          "name": "userAddress",
          "type": "address"
        },
        {
          "internalType": "uint256",
          "name": "newDailyStepGoal",
          "type": "uint256"
        }
      ],
      "name": "changeDailyStepGoal",
      "outputs": [],
      "stateMutability": "nonpayable",
      "type": "function"
    },
    {
      "inputs": [
        {
          "internalType": "address",
          "name": "userAddress",
          "type": "address"
        },
        {
          "internalType": "uint256",
          "name": "newWeeklyStepGoal",
          "type": "uint256"
        }
      ],
      "name": "changeWeeklyStepGoal",
      "outputs": [],
      "stateMutability": "nonpayable",
      "type": "function"
    },
    {
      "inputs": [
        {
          "internalType": "address",
          "name": "userAddress",
          "type": "address"
        },
        {
          "internalType": "uint256",
          "name": "newDailyCardioGoal",
          "type": "uint256"
        }
      ],
      "name": "changeDailyCardioGoal",
      "outputs": [],
      "stateMutability": "nonpayable",
      "type": "function"
    },
    {
      "inputs": [
        {
          "internalType": "address",
          "name": "userAddress",
          "type": "address"
        },
        {
          "internalType": "uint256",
          "name": "newWeeklyCardioGoal",
          "type": "uint256"
        }
      ],
      "name": "changeWeeklyCardioGoal",
      "outputs": [],
      "stateMutability": "nonpayable",
      "type": "function"
    },
    {
      "inputs": [
        {
          "internalType": "address",
          "name": "userAddress",
          "type": "address"
        },
        {
          "internalType": "uint256",
          "name": "newDailyStrengthTrainingGoal",
          "type": "uint256"
        }
      ],
      "name": "changeDailyStrengthTrainingGoal",
      "outputs": [],
      "stateMutability": "nonpayable",
      "type": "function"
    },
    {
      "inputs": [
        {
          "internalType": "address",
          "name": "userAddress",
          "type": "address"
        },
        {
          "internalType": "uint256",
          "name": "newWeeklyStrengthTrainingGoal",
          "type": "uint256"
        }
      ],
      "name": "changeWeeklyStrengthTrainingGoal",
      "outputs": [],
      "stateMutability": "nonpayable",
      "type": "function"
    },
    {
      "inputs": [
        {
          "internalType": "address",
          "name": "userAddress",
          "type": "address"
        },
        {
          "internalType": "uint256",
          "name": "newDailySleepGoal",
          "type": "uint256"
        }
      ],
      "name": "changeDailySleepGoal",
      "outputs": [],
      "stateMutability": "nonpayable",
      "type": "function"
    },
    {
      "inputs": [
        {
          "internalType": "address",
          "name": "userAddress",
          "type": "address"
        },
        {
          "internalType": "uint256",
          "name": "newWeeklySleepGoal",
          "type": "uint256"
        }
      ],
      "name": "changeWeeklySleepGoal",
      "outputs": [],
      "stateMutability": "nonpayable",
      "type": "function"
    },
    {
      "inputs": [
        {
          "internalType": "address",
          "name": "userAddress",
          "type": "address"
        },
        {
          "internalType": "uint256",
          "name": "newDailyWellbeingGoal",
          "type": "uint256"
        }
      ],
      "name": "changeDailyWellbeingGoal",
      "outputs": [],
      "stateMutability": "nonpayable",
      "type": "function"
    },
    {
      "inputs": [
        {
          "internalType": "address",
          "name": "userAddress",
          "type": "address"
        },
        {
          "internalType": "uint256",
          "name": "newWeeklyWellbeingGoal",
          "type": "uint256"
        }
      ],
      "name": "changeWeeklyWellbeingGoal",
      "outputs": [],
      "stateMutability": "nonpayable",
      "type": "function"
    }
  ],
  "bytecode": "0x608060405234801561001057600080fd5b50612372806100206000396000f3fe608060405234801561001057600080fd5b506004361061035c5760003560e01c80638c4b4738116101d3578063c9212dfd11610104578063e17ccfe1116100a2578063ee204abb1161007c578063ee204abb14610b9d578063f8aba72614610bcd578063fa36186814610bfd578063fec8187014610c2d5761035c565b8063e17ccfe114610b35578063e23edf1e14610b51578063ea75697914610b6d5761035c565b8063d2c91062116100de578063d2c9106214610a9d578063db647bed14610acd578063de9977de14610ae9578063ded3c99414610b195761035c565b8063c9212dfd14610a0d578063ca8851d814610a3d578063cdc5468b14610a6d5761035c565b8063adad039f11610171578063b3f613301161014b578063b3f613301461094d578063b424b7851461097d578063b753d929146109ad578063bac82ca3146109dd5761035c565b8063adad039f146108bd578063afd47d3e146108ed578063b382e0ff1461091d5761035c565b8063997c3563116101ad578063997c35631461082557806399caf3dc146108415780639a8d7a741461085d578063a6d88e911461088d5761035c565b80638c4b4738146107bd5780639239c3ce146107ed57806397c4fcba146108095761035c565b80632d024a48116102ad57806354b86f191161024b57806362bdba811161022557806362bdba81146107255780637cdb3fb2146107555780638b20f466146107715780638b2813ac146107a15761035c565b806354b86f19146106955780635ae13b00146106c55780635ecca7bd146106f55761035c565b80633401d7de116102875780633401d7de146105e9578063358b8166146106195780633845159814610649578063507cd30f146106795761035c565b80632d024a4814610581578063302f125e1461059d5780633346e2f9146105cd5761035c565b80631aed49d51161031a5780631ffbdb78116102f45780631ffbdb78146104e95780632691b9aa146105055780632b1ad7d0146105215780632b7f63fc146105515761035c565b80631aed49d51461046d5780631bd172d01461049d5780631cfbcd1b146104b95761035c565b806290d35614610361578063073393b6146103915780630907ddb8146103c15780630d8d57d6146103f15780631042876d146104215780631876e9c314610451575b600080fd5b61037b60048036038101906103769190611dea565b610c49565b6040516103889190611eb0565b60405180910390f35b6103ab60048036038101906103a69190611dea565b610ce9565b6040516103b89190611eeb565b60405180910390f35b6103db60048036038101906103d69190611dea565b610d32565b6040516103e89190611eeb565b60405180910390f35b61040b60048036038101906104069190611dea565b610d4a565b6040516104189190611eb0565b60405180910390f35b61043b60048036038101906104369190611dea565b610e1b565b6040516104489190611eb0565b60405180910390f35b61046b6004803603810190610466919061203b565b610eeb565b005b61048760048036038101906104829190611dea565b610f94565b6040516104949190611eeb565b60405180910390f35b6104b760048036038101906104b291906120c3565b610fdd565b005b6104d360048036038101906104ce9190611dea565b611047565b6040516104e09190611eeb565b60405180910390f35b61050360048036038101906104fe91906120c3565b611090565b005b61051f600480360381019061051a919061203b565b6110d8565b005b61053b60048036038101906105369190611dea565b611174565b6040516105489190611eeb565b60405180910390f35b61056b600480360381019061056691906120c3565b6111bd565b6040516105789190611eeb565b60405180910390f35b61059b600480360381019061059691906120c3565b6111ee565b005b6105b760048036038101906105b29190611dea565b611236565b6040516105c49190611eeb565b60405180910390f35b6105e760048036038101906105e291906120c3565b61124e565b005b61060360048036038101906105fe9190611dea565b611296565b6040516106109190611eeb565b60405180910390f35b610633600480360381019061062e9190611dea565b6112ae565b6040516106409190611eeb565b60405180910390f35b610663600480360381019061065e9190611dea565b6112c6565b6040516106709190611eeb565b60405180910390f35b610693600480360381019061068e91906120c3565b61130f565b005b6106af60048036038101906106aa9190611dea565b611369565b6040516106bc9190611eeb565b60405180910390f35b6106df60048036038101906106da9190611dea565b611381565b6040516106ec9190611eb0565b60405180910390f35b61070f600480360381019061070a9190611dea565b611421565b60405161071c9190611eeb565b60405180910390f35b61073f600480360381019061073a9190611dea565b61146a565b60405161074c9190611eeb565b60405180910390f35b61076f600480360381019061076a919061203b565b611482565b005b61078b60048036038101906107869190611dea565b6114da565b6040516107989190611eeb565b60405180910390f35b6107bb60048036038101906107b691906120c3565b6114f2565b005b6107d760048036038101906107d29190611dea565b61153a565b6040516107e49190611eeb565b60405180910390f35b610807600480360381019061080291906120c3565b611552565b005b610823600480360381019061081e91906120c3565b61159a565b005b61083f600480360381019061083a91906120c3565b6115e2565b005b61085b600480360381019061085691906120c3565b61162a565b005b61087760048036038101906108729190611dea565b611672565b6040516108849190611eeb565b60405180910390f35b6108a760048036038101906108a29190611dea565b6116bb565b6040516108b49190611eeb565b60405180910390f35b6108d760048036038101906108d29190611dea565b611704565b6040516108e49190611eeb565b60405180910390f35b610907600480360381019061090291906120c3565b61171c565b6040516109149190611eeb565b60405180910390f35b61093760048036038101906109329190611dea565b611782565b6040516109449190611eb0565b60405180910390f35b61096760048036038101906109629190611dea565b611822565b6040516109749190611eeb565b60405180910390f35b61099760048036038101906109929190611dea565b61186b565b6040516109a49190611eeb565b60405180910390f35b6109c760048036038101906109c29190611dea565b6118b4565b6040516109d49190611eeb565b60405180910390f35b6109f760048036038101906109f29190611dea565b611900565b604051610a049190611eeb565b60405180910390f35b610a276004803603810190610a229190611dea565b611949565b604051610a349190611eeb565b60405180910390f35b610a576004803603810190610a529190611dea565b611961565b604051610a649190611eb0565b60405180910390f35b610a876004803603810190610a829190611dea565b611a32565b604051610a949190611eeb565b60405180910390f35b610ab76004803603810190610ab29190611dea565b611a4a565b604051610ac49190611eeb565b60405180910390f35b610ae76004803603810190610ae291906120c3565b611a62565b005b610b036004803603810190610afe9190611dea565b611aaa565b604051610b109190611eeb565b60405180910390f35b610b336004803603810190610b2e91906120c3565b611ac2565b005b610b4f6004803603810190610b4a91906120c3565b611b0a565b005b610b6b6004803603810190610b6691906120c3565b611b52565b005b610b876004803603810190610b829190611dea565b611b9a565b604051610b949190611eeb565b60405180910390f35b610bb76004803603810190610bb29190611dea565b611be3565b604051610bc49190611eeb565b60405180910390f35b610be76004803603810190610be29190611dea565b611c2c565b604051610bf49190611eeb565b60405180910390f35b610c176004803603810190610c129190611dea565b611c44565b604051610c249190611eeb565b60405180910390f35b610c476004803603810190610c4291906120c3565b611c8d565b005b60016020528060005260406000206000915090508054610c6890612132565b80601f0160208091040260200160405190810160405280929190818152602001828054610c9490612132565b8015610ce15780601f10610cb657610100808354040283529160200191610ce1565b820191906000526020600020905b815481529060010190602001808311610cc457829003601f168201915b505050505081565b6000600a60008373ffffffffffffffffffffffffffffffffffffffff1673ffffffffffffffffffffffffffffffffffffffff168152602001908152602001600020549050919050565b600e6020528060005260406000206000915090505481565b6060600160008373ffffffffffffffffffffffffffffffffffffffff1673ffffffffffffffffffffffffffffffffffffffff1681526020019081526020016000208054610d9690612132565b80601f0160208091040260200160405190810160405280929190818152602001828054610dc290612132565b8015610e0f5780601f10610de457610100808354040283529160200191610e0f565b820191906000526020600020905b815481529060010190602001808311610df257829003601f168201915b50505050509050919050565b60606000808373ffffffffffffffffffffffffffffffffffffffff1673ffffffffffffffffffffffffffffffffffffffff1681526020019081526020016000208054610e6690612132565b80601f0160208091040260200160405190810160405280929190818152602001828054610e9290612132565b8015610edf5780601f10610eb457610100808354040283529160200191610edf565b820191906000526020600020905b815481529060010190602001808311610ec257829003601f168201915b50505050509050919050565b60008151118015610efe5750601e815111155b610f3d576040517f08c379a0000000000000000000000000000000000000000000000000000000008152600401610f34906121d6565b60405180910390fd5b806000808473ffffffffffffffffffffffffffffffffffffffff1673ffffffffffffffffffffffffffffffffffffffff1681526020019081526020016000209080519060200190610f8f929190611cd5565b505050565b6000600b60008373ffffffffffffffffffffffffffffffffffffffff1673ffffffffffffffffffffffffffffffffffffffff168152602001908152602001600020549050919050565b600560008373ffffffffffffffffffffffffffffffffffffffff1673ffffffffffffffffffffffffffffffffffffffff1681526020019081526020016000208190806001815401808255809150506001900390600052602060002001600090919091909150555050565b6000600d60008373ffffffffffffffffffffffffffffffffffffffff1673ffffffffffffffffffffffffffffffffffffffff168152602001908152602001600020549050919050565b80601060008473ffffffffffffffffffffffffffffffffffffffff1673ffffffffffffffffffffffffffffffffffffffff168152602001908152602001600020819055505050565b600081511161111c576040517f08c379a000000000000000000000000000000000000000000000000000000000815260040161111390612268565b60405180910390fd5b80600160008473ffffffffffffffffffffffffffffffffffffffff1673ffffffffffffffffffffffffffffffffffffffff168152602001908152602001600020908051906020019061116f929190611cd5565b505050565b6000600460008373ffffffffffffffffffffffffffffffffffffffff1673ffffffffffffffffffffffffffffffffffffffff168152602001908152602001600020549050919050565b600560205281600052604060002081815481106111d957600080fd5b90600052602060002001600091509150505481565b80600c60008473ffffffffffffffffffffffffffffffffffffffff1673ffffffffffffffffffffffffffffffffffffffff168152602001908152602001600020819055505050565b600b6020528060005260406000206000915090505481565b80600460008473ffffffffffffffffffffffffffffffffffffffff1673ffffffffffffffffffffffffffffffffffffffff168152602001908152602001600020819055505050565b60026020528060005260406000206000915090505481565b60066020528060005260406000206000915090505481565b6000600260008373ffffffffffffffffffffffffffffffffffffffff1673ffffffffffffffffffffffffffffffffffffffff168152602001908152602001600020549050919050565b80600660008473ffffffffffffffffffffffffffffffffffffffff1673ffffffffffffffffffffffffffffffffffffffff168152602001908152602001600020600082825461135e91906122b7565b925050819055505050565b60076020528060005260406000206000915090505481565b600060205280600052604060002060009150905080546113a090612132565b80601f01602080910402602001604051908101604052809291908181526020018280546113cc90612132565b80156114195780601f106113ee57610100808354040283529160200191611419565b820191906000526020600020905b8154815290600101906020018083116113fc57829003601f168201915b505050505081565b6000600c60008373ffffffffffffffffffffffffffffffffffffffff1673ffffffffffffffffffffffffffffffffffffffff168152602001908152602001600020549050919050565b600f6020528060005260406000206000915090505481565b80600360008473ffffffffffffffffffffffffffffffffffffffff1673ffffffffffffffffffffffffffffffffffffffff16815260200190815260200160002090805190602001906114d5929190611cd5565b505050565b60086020528060005260406000206000915090505481565b80600e60008473ffffffffffffffffffffffffffffffffffffffff1673ffffffffffffffffffffffffffffffffffffffff168152602001908152602001600020819055505050565b60046020528060005260406000206000915090505481565b80600d60008473ffffffffffffffffffffffffffffffffffffffff1673ffffffffffffffffffffffffffffffffffffffff168152602001908152602001600020819055505050565b80600f60008473ffffffffffffffffffffffffffffffffffffffff1673ffffffffffffffffffffffffffffffffffffffff168152602001908152602001600020819055505050565b80600860008473ffffffffffffffffffffffffffffffffffffffff1673ffffffffffffffffffffffffffffffffffffffff168152602001908152602001600020819055505050565b80600a60008473ffffffffffffffffffffffffffffffffffffffff1673ffffffffffffffffffffffffffffffffffffffff168152602001908152602001600020819055505050565b6000601060008373ffffffffffffffffffffffffffffffffffffffff1673ffffffffffffffffffffffffffffffffffffffff168152602001908152602001600020549050919050565b6000600760008373ffffffffffffffffffffffffffffffffffffffff1673ffffffffffffffffffffffffffffffffffffffff168152602001908152602001600020549050919050565b600a6020528060005260406000206000915090505481565b6000600560008473ffffffffffffffffffffffffffffffffffffffff1673ffffffffffffffffffffffffffffffffffffffff168152602001908152602001600020828154811061176f5761176e61230d565b5b9060005260206000200154905092915050565b600360205280600052604060002060009150905080546117a190612132565b80601f01602080910402602001604051908101604052809291908181526020018280546117cd90612132565b801561181a5780601f106117ef5761010080835404028352916020019161181a565b820191906000526020600020905b8154815290600101906020018083116117fd57829003601f168201915b505050505081565b6000600960008373ffffffffffffffffffffffffffffffffffffffff1673ffffffffffffffffffffffffffffffffffffffff168152602001908152602001600020549050919050565b6000600e60008373ffffffffffffffffffffffffffffffffffffffff1673ffffffffffffffffffffffffffffffffffffffff168152602001908152602001600020549050919050565b6000600560008373ffffffffffffffffffffffffffffffffffffffff1673ffffffffffffffffffffffffffffffffffffffff168152602001908152602001600020805490509050919050565b6000601160008373ffffffffffffffffffffffffffffffffffffffff1673ffffffffffffffffffffffffffffffffffffffff168152602001908152602001600020549050919050565b60106020528060005260406000206000915090505481565b6060600360008373ffffffffffffffffffffffffffffffffffffffff1673ffffffffffffffffffffffffffffffffffffffff16815260200190815260200160002080546119ad90612132565b80601f01602080910402602001604051908101604052809291908181526020018280546119d990612132565b8015611a265780601f106119fb57610100808354040283529160200191611a26565b820191906000526020600020905b815481529060010190602001808311611a0957829003601f168201915b50505050509050919050565b600d6020528060005260406000206000915090505481565b60116020528060005260406000206000915090505481565b80600b60008473ffffffffffffffffffffffffffffffffffffffff1673ffffffffffffffffffffffffffffffffffffffff168152602001908152602001600020819055505050565b600c6020528060005260406000206000915090505481565b80601160008473ffffffffffffffffffffffffffffffffffffffff1673ffffffffffffffffffffffffffffffffffffffff168152602001908152602001600020819055505050565b80600260008473ffffffffffffffffffffffffffffffffffffffff1673ffffffffffffffffffffffffffffffffffffffff168152602001908152602001600020819055505050565b80600760008473ffffffffffffffffffffffffffffffffffffffff1673ffffffffffffffffffffffffffffffffffffffff168152602001908152602001600020819055505050565b6000600860008373ffffffffffffffffffffffffffffffffffffffff1673ffffffffffffffffffffffffffffffffffffffff168152602001908152602001600020549050919050565b6000600660008373ffffffffffffffffffffffffffffffffffffffff1673ffffffffffffffffffffffffffffffffffffffff168152602001908152602001600020549050919050565b60096020528060005260406000206000915090505481565b6000600f60008373ffffffffffffffffffffffffffffffffffffffff1673ffffffffffffffffffffffffffffffffffffffff168152602001908152602001600020549050919050565b80600960008473ffffffffffffffffffffffffffffffffffffffff1673ffffffffffffffffffffffffffffffffffffffff168152602001908152602001600020819055505050565b828054611ce190612132565b90600052602060002090601f016020900481019282611d035760008555611d4a565b82601f10611d1c57805160ff1916838001178555611d4a565b82800160010185558215611d4a579182015b82811115611d49578251825591602001919060010190611d2e565b5b509050611d579190611d5b565b5090565b5b80821115611d74576000816000905550600101611d5c565b5090565b6000604051905090565b600080fd5b600080fd5b600073ffffffffffffffffffffffffffffffffffffffff82169050919050565b6000611db782611d8c565b9050919050565b611dc781611dac565b8114611dd257600080fd5b50565b600081359050611de481611dbe565b92915050565b600060208284031215611e0057611dff611d82565b5b6000611e0e84828501611dd5565b91505092915050565b600081519050919050565b600082825260208201905092915050565b60005b83811015611e51578082015181840152602081019050611e36565b83811115611e60576000848401525b50505050565b6000601f19601f8301169050919050565b6000611e8282611e17565b611e8c8185611e22565b9350611e9c818560208601611e33565b611ea581611e66565b840191505092915050565b60006020820190508181036000830152611eca8184611e77565b905092915050565b6000819050919050565b611ee581611ed2565b82525050565b6000602082019050611f006000830184611edc565b92915050565b600080fd5b600080fd5b7f4e487b7100000000000000000000000000000000000000000000000000000000600052604160045260246000fd5b611f4882611e66565b810181811067ffffffffffffffff82111715611f6757611f66611f10565b5b80604052505050565b6000611f7a611d78565b9050611f868282611f3f565b919050565b600067ffffffffffffffff821115611fa657611fa5611f10565b5b611faf82611e66565b9050602081019050919050565b82818337600083830152505050565b6000611fde611fd984611f8b565b611f70565b905082815260208101848484011115611ffa57611ff9611f0b565b5b612005848285611fbc565b509392505050565b600082601f83011261202257612021611f06565b5b8135612032848260208601611fcb565b91505092915050565b6000806040838503121561205257612051611d82565b5b600061206085828601611dd5565b925050602083013567ffffffffffffffff81111561208157612080611d87565b5b61208d8582860161200d565b9150509250929050565b6120a081611ed2565b81146120ab57600080fd5b50565b6000813590506120bd81612097565b92915050565b600080604083850312156120da576120d9611d82565b5b60006120e885828601611dd5565b92505060206120f9858286016120ae565b9150509250929050565b7f4e487b7100000000000000000000000000000000000000000000000000000000600052602260045260246000fd5b6000600282049050600182168061214a57607f821691505b6020821081141561215e5761215d612103565b5b50919050565b7f446973706c6179206e616d65206c656e677468206d7573742062652061626f7660008201527f65203020616e642062656c6f7720333020636861727300000000000000000000602082015250565b60006121c0603683611e22565b91506121cb82612164565b604082019050919050565b600060208201905081810360008301526121ef816121b3565b9050919050565b7f506c656173652073656c65637420612076616c69642070726f66696c6520706960008201527f6374757265000000000000000000000000000000000000000000000000000000602082015250565b6000612252602583611e22565b915061225d826121f6565b604082019050919050565b6000602082019050818103600083015261228181612245565b9050919050565b7f4e487b7100000000000000000000000000000000000000000000000000000000600052601160045260246000fd5b60006122c282611ed2565b91506122cd83611ed2565b9250827fffffffffffffffffffffffffffffffffffffffffffffffffffffffffffffffff0382111561230257612301612288565b5b828201905092915050565b7f4e487b7100000000000000000000000000000000000000000000000000000000600052603260045260246000fdfea2646970667358221220dc11723c9c06798826d3a0403bee2f07d19551554040b3fceaf58ec1eb7bd17264736f6c634300080a0033",
  "immutableReferences": {},
  "source": "// SPDX-License-Identifier: UNLICENSED\r\npragma solidity >= 0.8.0;\r\n\r\ncontract Storage {\r\n  // User properties\r\n  mapping(address => string) public displayName;\r\n  mapping(address => string) public profilePic;\r\n  mapping(address => uint256) public age;\r\n  mapping(address => string) public gender;\r\n  mapping(address => uint256) public height;\r\n  mapping(address => uint256[]) public weight;\r\n  mapping(address => uint256) public points;\r\n  mapping(address => uint256) public weightGoal;\r\n  mapping(address => uint256) public dailyStepGoal;\r\n  mapping(address => uint256) public weeklyStepGoal;\r\n  mapping(address => uint256) public dailyCardioGoal;\r\n  mapping(address => uint256) public weeklyCardioGoal;\r\n  mapping(address => uint256) public dailyStrengthTrainingGoal;\r\n  mapping(address => uint256) public weeklyStrengthTrainingGoal;\r\n  mapping(address => uint256) public dailySleepGoal;\r\n  mapping(address => uint256) public weeklySleepGoal;\r\n  mapping(address => uint256) public dailyWellbeingGoal;\r\n  mapping(address => uint256) public weeklyWellbeingGoal;\r\n\r\n  // Getters\r\n  function getDisplayName(address userAddress) public view returns(string memory) {\r\n    return displayName[userAddress];\r\n  }\r\n\r\n  function getProfilePic(address userAddress) public view returns(string memory) {\r\n    return profilePic[userAddress];\r\n  }\r\n\r\n  function getAge(address userAddress) public view returns(uint256) {\r\n    return age[userAddress];\r\n  }\r\n\r\n  function getGender(address userAddress) public view returns(string memory) {\r\n    return gender[userAddress];\r\n  }\r\n\r\n  function getHeight(address userAddress) public view returns(uint256) {\r\n    return height[userAddress];\r\n  }\r\n\r\n  function getWeightCount(address userAddress) public view returns(uint256) {\r\n    return weight[userAddress].length;\r\n  }\r\n\r\n  function getWeight(address userAddress, uint256 index) public view returns(uint256) {\r\n    return weight[userAddress][index];\r\n  }\r\n\r\n  function getPoints(address userAddress) public view returns(uint256) {\r\n    return points[userAddress];\r\n  }\r\n\r\n  function getWeightGoal(address userAddress) public view returns(uint256) {\r\n    return weightGoal[userAddress];\r\n  }\r\n\r\n  function getDailyStepGoal(address userAddress) public view returns(uint256) {\r\n    return dailyStepGoal[userAddress];\r\n  }\r\n\r\n  function getWeeklyStepGoal(address userAddress) public view returns(uint256) {\r\n    return weeklyStepGoal[userAddress];\r\n  }\r\n\r\n  function getDailyCardioGoal(address userAddress) public view returns(uint256) {\r\n    return dailyCardioGoal[userAddress];\r\n  }\r\n\r\n  function getWeeklyCardioGoal(address userAddress) public view returns(uint256) {\r\n    return weeklyCardioGoal[userAddress];\r\n  }\r\n\r\n  function getDailyStrengthTrainingGoal(address userAddress) public view returns(uint256) {\r\n    return dailyStrengthTrainingGoal[userAddress];\r\n  }\r\n\r\n  function getWeeklyStrengthTrainingGoal(address userAddress) public view returns(uint256) {\r\n    return weeklyStrengthTrainingGoal[userAddress];\r\n  }\r\n\r\n  function getDailySleepGoal(address userAddress) public view returns(uint256) {\r\n    return dailySleepGoal[userAddress];\r\n  }\r\n\r\n  function getWeeklySleepGoal(address userAddress) public view returns(uint256) {\r\n    return weeklySleepGoal[userAddress];\r\n  }\r\n\r\n  function getDailyWellbeingGoal(address userAddress) public view returns(uint256) {\r\n    return dailyWellbeingGoal[userAddress];\r\n  }\r\n\r\n  function getWeeklyWellbeingGoal(address userAddress) public view returns(uint256) {\r\n    return weeklyWellbeingGoal[userAddress];\r\n  }\r\n\r\n  // Setters\r\n  function changeDisplayName(address userAddress, string memory newDisplayName) public {\r\n    require(bytes(newDisplayName).length > 0 && bytes(newDisplayName).length <= 30, \"Display name length must be above 0 and below 30 chars\");\r\n\r\n    displayName[userAddress] = newDisplayName;\r\n  }\r\n\r\n  function changeProfilePic(address userAddress, string memory newProfilePic) public {\r\n    require(bytes(newProfilePic).length > 0, \"Please select a valid profile picture\");\r\n\r\n    profilePic[userAddress] = newProfilePic;\r\n  }\r\n\r\n  function changeAge(address userAddress, uint256 newAge) public {\r\n    age[userAddress] = newAge;\r\n  }\r\n\r\n  function changeGender(address userAddress, string memory newGender) public {\r\n    gender[userAddress] = newGender;\r\n  }\r\n\r\n  function changeHeight(address userAddress, uint256 newHeight) public {\r\n    height[userAddress] = newHeight;\r\n  }\r\n \r\n  function changeWeight(address userAddress, uint256 newWeight) public {\r\n    weight[userAddress].push(newWeight);\r\n  }\r\n\r\n  function addPoints(address userAddress, uint256 pointsToAdd) public {\r\n    points[userAddress] += pointsToAdd;\r\n  }\r\n\r\n  function changeWeightGoal(address userAddress, uint256 newWeightGoal) public {\r\n    weightGoal[userAddress] = newWeightGoal;\r\n  }\r\n\r\n  function changeDailyStepGoal(address userAddress, uint256 newDailyStepGoal) public {\r\n    dailyStepGoal[userAddress] = newDailyStepGoal;\r\n  }\r\n\r\n  function changeWeeklyStepGoal(address userAddress, uint256 newWeeklyStepGoal) public {\r\n    weeklyStepGoal[userAddress] = newWeeklyStepGoal;\r\n  }\r\n\r\n  function changeDailyCardioGoal(address userAddress, uint256 newDailyCardioGoal) public {\r\n    dailyCardioGoal[userAddress] = newDailyCardioGoal;\r\n  }\r\n\r\n  function changeWeeklyCardioGoal(address userAddress, uint256 newWeeklyCardioGoal) public {\r\n    weeklyCardioGoal[userAddress] = newWeeklyCardioGoal;\r\n  }\r\n\r\n  function changeDailyStrengthTrainingGoal(address userAddress, uint256 newDailyStrengthTrainingGoal) public {\r\n    dailyStrengthTrainingGoal[userAddress] = newDailyStrengthTrainingGoal;\r\n  }\r\n\r\n  function changeWeeklyStrengthTrainingGoal(address userAddress, uint256 newWeeklyStrengthTrainingGoal) public {\r\n    weeklyStrengthTrainingGoal[userAddress] = newWeeklyStrengthTrainingGoal;\r\n  }\r\n\r\n  function changeDailySleepGoal(address userAddress, uint256 newDailySleepGoal) public {\r\n    dailySleepGoal[userAddress] = newDailySleepGoal;\r\n  }\r\n\r\n  function changeWeeklySleepGoal(address userAddress, uint256 newWeeklySleepGoal) public {\r\n    weeklySleepGoal[userAddress] = newWeeklySleepGoal;\r\n  }\r\n\r\n  function changeDailyWellbeingGoal(address userAddress, uint256 newDailyWellbeingGoal) public {\r\n    dailyWellbeingGoal[userAddress] = newDailyWellbeingGoal;\r\n  }\r\n\r\n  function changeWeeklyWellbeingGoal(address userAddress, uint256 newWeeklyWellbeingGoal) public {\r\n    weeklyWellbeingGoal[userAddress] = newWeeklyWellbeingGoal;\r\n  }\r\n}",
  "sourcePath": "C:\\Users\\Cate\\Projects\\8Fit\\contracts\\Storage.sol",
  "compiler": {
    "name": "solc",
    "version": "0.8.10+commit.fc410830.Emscripten.clang"
  },
  "schemaVersion": "3.4.3",
  "updatedAt": "2022-10-24T01:30:51.952Z",
  "networkType": "ethereum",
  "devdoc": {
    "kind": "dev",
    "methods": {},
    "version": 1
  },
  "userdoc": {
    "kind": "user",
    "methods": {},
    "version": 1
  }
}