{
  "contractName": "Storage",
  "address": "0x83a052C2723287CC26F8Cc5d6E5CbC8E9B90A3d9",
  "abi": [
    {
      "inputs": [
        {
          "internalType": "address",
          "name": "",
          "type": "address"
        }
      ],
      "name": "age",
      "outputs": [
        {
          "internalType": "uint256",
          "name": "",
          "type": "uint256"
        }
      ],
      "stateMutability": "view",
      "type": "function",
      "constant": true
    },
    {
      "inputs": [
        {
          "internalType": "address",
          "name": "",
          "type": "address"
        },
        {
          "internalType": "uint256",
          "name": "",
          "type": "uint256"
        }
      ],
      "name": "caloriesBurned",
      "outputs": [
        {
          "internalType": "uint256",
          "name": "",
          "type": "uint256"
        }
      ],
      "stateMutability": "view",
      "type": "function",
      "constant": true
    },
    {
      "inputs": [
        {
          "internalType": "address",
          "name": "",
          "type": "address"
        },
        {
          "internalType": "uint256",
          "name": "",
          "type": "uint256"
        }
      ],
      "name": "caloriesEaten",
      "outputs": [
        {
          "internalType": "uint256",
          "name": "",
          "type": "uint256"
        }
      ],
      "stateMutability": "view",
      "type": "function",
      "constant": true
    },
    {
      "inputs": [
        {
          "internalType": "address",
          "name": "",
          "type": "address"
        }
      ],
      "name": "dailyCardioGoal",
      "outputs": [
        {
          "internalType": "uint256",
          "name": "",
          "type": "uint256"
        }
      ],
      "stateMutability": "view",
      "type": "function",
      "constant": true
    },
    {
      "inputs": [
        {
          "internalType": "address",
          "name": "",
          "type": "address"
        }
      ],
      "name": "dailySleepGoal",
      "outputs": [
        {
          "internalType": "uint256",
          "name": "",
          "type": "uint256"
        }
      ],
      "stateMutability": "view",
      "type": "function",
      "constant": true
    },
    {
      "inputs": [
        {
          "internalType": "address",
          "name": "",
          "type": "address"
        }
      ],
      "name": "dailyStepGoal",
      "outputs": [
        {
          "internalType": "uint256",
          "name": "",
          "type": "uint256"
        }
      ],
      "stateMutability": "view",
      "type": "function",
      "constant": true
    },
    {
      "inputs": [
        {
          "internalType": "address",
          "name": "",
          "type": "address"
        }
      ],
      "name": "dailyStrengthTrainingGoal",
      "outputs": [
        {
          "internalType": "uint256",
          "name": "",
          "type": "uint256"
        }
      ],
      "stateMutability": "view",
      "type": "function",
      "constant": true
    },
    {
      "inputs": [
        {
          "internalType": "address",
          "name": "",
          "type": "address"
        }
      ],
      "name": "dailyWellbeingGoal",
      "outputs": [
        {
          "internalType": "uint256",
          "name": "",
          "type": "uint256"
        }
      ],
      "stateMutability": "view",
      "type": "function",
      "constant": true
    },
    {
      "inputs": [
        {
          "internalType": "address",
          "name": "",
          "type": "address"
        }
      ],
      "name": "displayName",
      "outputs": [
        {
          "internalType": "string",
          "name": "",
          "type": "string"
        }
      ],
      "stateMutability": "view",
      "type": "function",
      "constant": true
    },
    {
      "inputs": [
        {
          "internalType": "address",
          "name": "",
          "type": "address"
        }
      ],
      "name": "gender",
      "outputs": [
        {
          "internalType": "string",
          "name": "",
          "type": "string"
        }
      ],
      "stateMutability": "view",
      "type": "function",
      "constant": true
    },
    {
      "inputs": [
        {
          "internalType": "address",
          "name": "",
          "type": "address"
        }
      ],
      "name": "height",
      "outputs": [
        {
          "internalType": "uint256",
          "name": "",
          "type": "uint256"
        }
      ],
      "stateMutability": "view",
      "type": "function",
      "constant": true
    },
    {
      "inputs": [
        {
          "internalType": "address",
          "name": "",
          "type": "address"
        }
      ],
      "name": "points",
      "outputs": [
        {
          "internalType": "uint256",
          "name": "",
          "type": "uint256"
        }
      ],
      "stateMutability": "view",
      "type": "function",
      "constant": true
    },
    {
      "inputs": [
        {
          "internalType": "address",
          "name": "",
          "type": "address"
        }
      ],
      "name": "profilePic",
      "outputs": [
        {
          "internalType": "string",
          "name": "",
          "type": "string"
        }
      ],
      "stateMutability": "view",
      "type": "function",
      "constant": true
    },
    {
      "inputs": [
        {
          "internalType": "address",
          "name": "",
          "type": "address"
        }
      ],
      "name": "weeklyCardioGoal",
      "outputs": [
        {
          "internalType": "uint256",
          "name": "",
          "type": "uint256"
        }
      ],
      "stateMutability": "view",
      "type": "function",
      "constant": true
    },
    {
      "inputs": [
        {
          "internalType": "address",
          "name": "",
          "type": "address"
        }
      ],
      "name": "weeklySleepGoal",
      "outputs": [
        {
          "internalType": "uint256",
          "name": "",
          "type": "uint256"
        }
      ],
      "stateMutability": "view",
      "type": "function",
      "constant": true
    },
    {
      "inputs": [
        {
          "internalType": "address",
          "name": "",
          "type": "address"
        }
      ],
      "name": "weeklyStepGoal",
      "outputs": [
        {
          "internalType": "uint256",
          "name": "",
          "type": "uint256"
        }
      ],
      "stateMutability": "view",
      "type": "function",
      "constant": true
    },
    {
      "inputs": [
        {
          "internalType": "address",
          "name": "",
          "type": "address"
        }
      ],
      "name": "weeklyStrengthTrainingGoal",
      "outputs": [
        {
          "internalType": "uint256",
          "name": "",
          "type": "uint256"
        }
      ],
      "stateMutability": "view",
      "type": "function",
      "constant": true
    },
    {
      "inputs": [
        {
          "internalType": "address",
          "name": "",
          "type": "address"
        }
      ],
      "name": "weeklyWellbeingGoal",
      "outputs": [
        {
          "internalType": "uint256",
          "name": "",
          "type": "uint256"
        }
      ],
      "stateMutability": "view",
      "type": "function",
      "constant": true
    },
    {
      "inputs": [
        {
          "internalType": "address",
          "name": "",
          "type": "address"
        },
        {
          "internalType": "uint256",
          "name": "",
          "type": "uint256"
        }
      ],
      "name": "weight",
      "outputs": [
        {
          "internalType": "uint256",
          "name": "",
          "type": "uint256"
        }
      ],
      "stateMutability": "view",
      "type": "function",
      "constant": true
    },
    {
      "inputs": [
        {
          "internalType": "address",
          "name": "",
          "type": "address"
        }
      ],
      "name": "weightGoal",
      "outputs": [
        {
          "internalType": "uint256",
          "name": "",
          "type": "uint256"
        }
      ],
      "stateMutability": "view",
      "type": "function",
      "constant": true
    },
    {
      "inputs": [
        {
          "internalType": "address",
          "name": "userAddress",
          "type": "address"
        }
      ],
      "name": "getDisplayName",
      "outputs": [
        {
          "internalType": "string",
          "name": "",
          "type": "string"
        }
      ],
      "stateMutability": "view",
      "type": "function",
      "constant": true
    },
    {
      "inputs": [
        {
          "internalType": "address",
          "name": "userAddress",
          "type": "address"
        }
      ],
      "name": "getProfilePic",
      "outputs": [
        {
          "internalType": "string",
          "name": "",
          "type": "string"
        }
      ],
      "stateMutability": "view",
      "type": "function",
      "constant": true
    },
    {
      "inputs": [
        {
          "internalType": "address",
          "name": "userAddress",
          "type": "address"
        }
      ],
      "name": "getAge",
      "outputs": [
        {
          "internalType": "uint256",
          "name": "",
          "type": "uint256"
        }
      ],
      "stateMutability": "view",
      "type": "function",
      "constant": true
    },
    {
      "inputs": [
        {
          "internalType": "address",
          "name": "userAddress",
          "type": "address"
        }
      ],
      "name": "getGender",
      "outputs": [
        {
          "internalType": "string",
          "name": "",
          "type": "string"
        }
      ],
      "stateMutability": "view",
      "type": "function",
      "constant": true
    },
    {
      "inputs": [
        {
          "internalType": "address",
          "name": "userAddress",
          "type": "address"
        }
      ],
      "name": "getHeight",
      "outputs": [
        {
          "internalType": "uint256",
          "name": "",
          "type": "uint256"
        }
      ],
      "stateMutability": "view",
      "type": "function",
      "constant": true
    },
    {
      "inputs": [
        {
          "internalType": "address",
          "name": "userAddress",
          "type": "address"
        }
      ],
      "name": "getWeightCount",
      "outputs": [
        {
          "internalType": "uint256",
          "name": "",
          "type": "uint256"
        }
      ],
      "stateMutability": "view",
      "type": "function",
      "constant": true
    },
    {
      "inputs": [
        {
          "internalType": "address",
          "name": "userAddress",
          "type": "address"
        },
        {
          "internalType": "uint256",
          "name": "index",
          "type": "uint256"
        }
      ],
      "name": "getWeight",
      "outputs": [
        {
          "internalType": "uint256",
          "name": "",
          "type": "uint256"
        }
      ],
      "stateMutability": "view",
      "type": "function",
      "constant": true
    },
    {
      "inputs": [
        {
          "internalType": "address",
          "name": "userAddress",
          "type": "address"
        }
      ],
      "name": "getPoints",
      "outputs": [
        {
          "internalType": "uint256",
          "name": "",
          "type": "uint256"
        }
      ],
      "stateMutability": "view",
      "type": "function",
      "constant": true
    },
    {
      "inputs": [
        {
          "internalType": "address",
          "name": "userAddress",
          "type": "address"
        }
      ],
      "name": "getWeightGoal",
      "outputs": [
        {
          "internalType": "uint256",
          "name": "",
          "type": "uint256"
        }
      ],
      "stateMutability": "view",
      "type": "function",
      "constant": true
    },
    {
      "inputs": [
        {
          "internalType": "address",
          "name": "userAddress",
          "type": "address"
        }
      ],
      "name": "getCaloriesEatenCount",
      "outputs": [
        {
          "internalType": "uint256",
          "name": "",
          "type": "uint256"
        }
      ],
      "stateMutability": "view",
      "type": "function",
      "constant": true
    },
    {
      "inputs": [
        {
          "internalType": "address",
          "name": "userAddress",
          "type": "address"
        },
        {
          "internalType": "uint256",
          "name": "index",
          "type": "uint256"
        }
      ],
      "name": "getCaloriesEaten",
      "outputs": [
        {
          "internalType": "uint256",
          "name": "",
          "type": "uint256"
        }
      ],
      "stateMutability": "view",
      "type": "function",
      "constant": true
    },
    {
      "inputs": [
        {
          "internalType": "address",
          "name": "userAddress",
          "type": "address"
        }
      ],
      "name": "getCaloriesBurnedCount",
      "outputs": [
        {
          "internalType": "uint256",
          "name": "",
          "type": "uint256"
        }
      ],
      "stateMutability": "view",
      "type": "function",
      "constant": true
    },
    {
      "inputs": [
        {
          "internalType": "address",
          "name": "userAddress",
          "type": "address"
        },
        {
          "internalType": "uint256",
          "name": "index",
          "type": "uint256"
        }
      ],
      "name": "getCaloriesBurned",
      "outputs": [
        {
          "internalType": "uint256",
          "name": "",
          "type": "uint256"
        }
      ],
      "stateMutability": "view",
      "type": "function",
      "constant": true
    },
    {
      "inputs": [
        {
          "internalType": "address",
          "name": "userAddress",
          "type": "address"
        }
      ],
      "name": "getDailyStepGoal",
      "outputs": [
        {
          "internalType": "uint256",
          "name": "",
          "type": "uint256"
        }
      ],
      "stateMutability": "view",
      "type": "function",
      "constant": true
    },
    {
      "inputs": [
        {
          "internalType": "address",
          "name": "userAddress",
          "type": "address"
        }
      ],
      "name": "getWeeklyStepGoal",
      "outputs": [
        {
          "internalType": "uint256",
          "name": "",
          "type": "uint256"
        }
      ],
      "stateMutability": "view",
      "type": "function",
      "constant": true
    },
    {
      "inputs": [
        {
          "internalType": "address",
          "name": "userAddress",
          "type": "address"
        }
      ],
      "name": "getDailyCardioGoal",
      "outputs": [
        {
          "internalType": "uint256",
          "name": "",
          "type": "uint256"
        }
      ],
      "stateMutability": "view",
      "type": "function",
      "constant": true
    },
    {
      "inputs": [
        {
          "internalType": "address",
          "name": "userAddress",
          "type": "address"
        }
      ],
      "name": "getWeeklyCardioGoal",
      "outputs": [
        {
          "internalType": "uint256",
          "name": "",
          "type": "uint256"
        }
      ],
      "stateMutability": "view",
      "type": "function",
      "constant": true
    },
    {
      "inputs": [
        {
          "internalType": "address",
          "name": "userAddress",
          "type": "address"
        }
      ],
      "name": "getDailyStrengthTrainingGoal",
      "outputs": [
        {
          "internalType": "uint256",
          "name": "",
          "type": "uint256"
        }
      ],
      "stateMutability": "view",
      "type": "function",
      "constant": true
    },
    {
      "inputs": [
        {
          "internalType": "address",
          "name": "userAddress",
          "type": "address"
        }
      ],
      "name": "getWeeklyStrengthTrainingGoal",
      "outputs": [
        {
          "internalType": "uint256",
          "name": "",
          "type": "uint256"
        }
      ],
      "stateMutability": "view",
      "type": "function",
      "constant": true
    },
    {
      "inputs": [
        {
          "internalType": "address",
          "name": "userAddress",
          "type": "address"
        }
      ],
      "name": "getDailySleepGoal",
      "outputs": [
        {
          "internalType": "uint256",
          "name": "",
          "type": "uint256"
        }
      ],
      "stateMutability": "view",
      "type": "function",
      "constant": true
    },
    {
      "inputs": [
        {
          "internalType": "address",
          "name": "userAddress",
          "type": "address"
        }
      ],
      "name": "getWeeklySleepGoal",
      "outputs": [
        {
          "internalType": "uint256",
          "name": "",
          "type": "uint256"
        }
      ],
      "stateMutability": "view",
      "type": "function",
      "constant": true
    },
    {
      "inputs": [
        {
          "internalType": "address",
          "name": "userAddress",
          "type": "address"
        }
      ],
      "name": "getDailyWellbeingGoal",
      "outputs": [
        {
          "internalType": "uint256",
          "name": "",
          "type": "uint256"
        }
      ],
      "stateMutability": "view",
      "type": "function",
      "constant": true
    },
    {
      "inputs": [
        {
          "internalType": "address",
          "name": "userAddress",
          "type": "address"
        }
      ],
      "name": "getWeeklyWellbeingGoal",
      "outputs": [
        {
          "internalType": "uint256",
          "name": "",
          "type": "uint256"
        }
      ],
      "stateMutability": "view",
      "type": "function",
      "constant": true
    },
    {
      "inputs": [
        {
          "internalType": "address",
          "name": "userAddress",
          "type": "address"
        },
        {
          "internalType": "string",
          "name": "newDisplayName",
          "type": "string"
        }
      ],
      "name": "changeDisplayName",
      "outputs": [],
      "stateMutability": "nonpayable",
      "type": "function"
    },
    {
      "inputs": [
        {
          "internalType": "address",
          "name": "userAddress",
          "type": "address"
        },
        {
          "internalType": "string",
          "name": "newProfilePic",
          "type": "string"
        }
      ],
      "name": "changeProfilePic",
      "outputs": [],
      "stateMutability": "nonpayable",
      "type": "function"
    },
    {
      "inputs": [
        {
          "internalType": "address",
          "name": "userAddress",
          "type": "address"
        },
        {
          "internalType": "uint256",
          "name": "newAge",
          "type": "uint256"
        }
      ],
      "name": "changeAge",
      "outputs": [],
      "stateMutability": "nonpayable",
      "type": "function"
    },
    {
      "inputs": [
        {
          "internalType": "address",
          "name": "userAddress",
          "type": "address"
        },
        {
          "internalType": "string",
          "name": "newGender",
          "type": "string"
        }
      ],
      "name": "changeGender",
      "outputs": [],
      "stateMutability": "nonpayable",
      "type": "function"
    },
    {
      "inputs": [
        {
          "internalType": "address",
          "name": "userAddress",
          "type": "address"
        },
        {
          "internalType": "uint256",
          "name": "newHeight",
          "type": "uint256"
        }
      ],
      "name": "changeHeight",
      "outputs": [],
      "stateMutability": "nonpayable",
      "type": "function"
    },
    {
      "inputs": [
        {
          "internalType": "address",
          "name": "userAddress",
          "type": "address"
        },
        {
          "internalType": "uint256",
          "name": "newWeight",
          "type": "uint256"
        }
      ],
      "name": "changeWeight",
      "outputs": [],
      "stateMutability": "nonpayable",
      "type": "function"
    },
    {
      "inputs": [
        {
          "internalType": "address",
          "name": "userAddress",
          "type": "address"
        },
        {
          "internalType": "uint256",
          "name": "pointsToAdd",
          "type": "uint256"
        }
      ],
      "name": "addPoints",
      "outputs": [],
      "stateMutability": "nonpayable",
      "type": "function"
    },
    {
      "inputs": [
        {
          "internalType": "address",
          "name": "userAddress",
          "type": "address"
        },
        {
          "internalType": "uint256",
          "name": "newWeightGoal",
          "type": "uint256"
        }
      ],
      "name": "changeWeightGoal",
      "outputs": [],
      "stateMutability": "nonpayable",
      "type": "function"
    },
    {
      "inputs": [
        {
          "internalType": "address",
          "name": "userAddress",
          "type": "address"
        },
        {
          "internalType": "uint256",
          "name": "caloriesEatenToday",
          "type": "uint256"
        }
      ],
      "name": "addCaloriesEatenToday",
      "outputs": [],
      "stateMutability": "nonpayable",
      "type": "function"
    },
    {
      "inputs": [
        {
          "internalType": "address",
          "name": "userAddress",
          "type": "address"
        },
        {
          "internalType": "uint256",
          "name": "caloriesBurnedToday",
          "type": "uint256"
        }
      ],
      "name": "addCaloriesBurnedToday",
      "outputs": [],
      "stateMutability": "nonpayable",
      "type": "function"
    },
    {
      "inputs": [
        {
          "internalType": "address",
          "name": "userAddress",
          "type": "address"
        },
        {
          "internalType": "uint256",
          "name": "newDailyStepGoal",
          "type": "uint256"
        }
      ],
      "name": "changeDailyStepGoal",
      "outputs": [],
      "stateMutability": "nonpayable",
      "type": "function"
    },
    {
      "inputs": [
        {
          "internalType": "address",
          "name": "userAddress",
          "type": "address"
        },
        {
          "internalType": "uint256",
          "name": "newWeeklyStepGoal",
          "type": "uint256"
        }
      ],
      "name": "changeWeeklyStepGoal",
      "outputs": [],
      "stateMutability": "nonpayable",
      "type": "function"
    },
    {
      "inputs": [
        {
          "internalType": "address",
          "name": "userAddress",
          "type": "address"
        },
        {
          "internalType": "uint256",
          "name": "newDailyCardioGoal",
          "type": "uint256"
        }
      ],
      "name": "changeDailyCardioGoal",
      "outputs": [],
      "stateMutability": "nonpayable",
      "type": "function"
    },
    {
      "inputs": [
        {
          "internalType": "address",
          "name": "userAddress",
          "type": "address"
        },
        {
          "internalType": "uint256",
          "name": "newWeeklyCardioGoal",
          "type": "uint256"
        }
      ],
      "name": "changeWeeklyCardioGoal",
      "outputs": [],
      "stateMutability": "nonpayable",
      "type": "function"
    },
    {
      "inputs": [
        {
          "internalType": "address",
          "name": "userAddress",
          "type": "address"
        },
        {
          "internalType": "uint256",
          "name": "newDailyStrengthTrainingGoal",
          "type": "uint256"
        }
      ],
      "name": "changeDailyStrengthTrainingGoal",
      "outputs": [],
      "stateMutability": "nonpayable",
      "type": "function"
    },
    {
      "inputs": [
        {
          "internalType": "address",
          "name": "userAddress",
          "type": "address"
        },
        {
          "internalType": "uint256",
          "name": "newWeeklyStrengthTrainingGoal",
          "type": "uint256"
        }
      ],
      "name": "changeWeeklyStrengthTrainingGoal",
      "outputs": [],
      "stateMutability": "nonpayable",
      "type": "function"
    },
    {
      "inputs": [
        {
          "internalType": "address",
          "name": "userAddress",
          "type": "address"
        },
        {
          "internalType": "uint256",
          "name": "newDailySleepGoal",
          "type": "uint256"
        }
      ],
      "name": "changeDailySleepGoal",
      "outputs": [],
      "stateMutability": "nonpayable",
      "type": "function"
    },
    {
      "inputs": [
        {
          "internalType": "address",
          "name": "userAddress",
          "type": "address"
        },
        {
          "internalType": "uint256",
          "name": "newWeeklySleepGoal",
          "type": "uint256"
        }
      ],
      "name": "changeWeeklySleepGoal",
      "outputs": [],
      "stateMutability": "nonpayable",
      "type": "function"
    },
    {
      "inputs": [
        {
          "internalType": "address",
          "name": "userAddress",
          "type": "address"
        },
        {
          "internalType": "uint256",
          "name": "newDailyWellbeingGoal",
          "type": "uint256"
        }
      ],
      "name": "changeDailyWellbeingGoal",
      "outputs": [],
      "stateMutability": "nonpayable",
      "type": "function"
    },
    {
      "inputs": [
        {
          "internalType": "address",
          "name": "userAddress",
          "type": "address"
        },
        {
          "internalType": "uint256",
          "name": "newWeeklyWellbeingGoal",
          "type": "uint256"
        }
      ],
      "name": "changeWeeklyWellbeingGoal",
      "outputs": [],
      "stateMutability": "nonpayable",
      "type": "function"
    }
  ],
  "bytecode": "0x608060405234801561001057600080fd5b506127cc806100206000396000f3fe608060405234801561001057600080fd5b50600436106103c45760003560e01c80638b20f466116101ff578063b753d9291161011a578063ded3c994116100ad578063ee204abb1161007c578063ee204abb14610d5d578063f8aba72614610d8d578063fa36186814610dbd578063fec8187014610ded576103c4565b8063ded3c99414610cd9578063e17ccfe114610cf5578063e23edf1e14610d11578063ea75697914610d2d576103c4565b8063cdc5468b116100e9578063cdc5468b14610c2d578063d2c9106214610c5d578063db647bed14610c8d578063de9977de14610ca9576103c4565b8063b753d92914610b6d578063bac82ca314610b9d578063c9212dfd14610bcd578063ca8851d814610bfd576103c4565b80639a8d7a7411610192578063afd47d3e11610161578063afd47d3e14610aad578063b382e0ff14610add578063b3f6133014610b0d578063b424b78514610b3d576103c4565b80639a8d7a74146109ed578063a6d88e9114610a1d578063ad0fe61a14610a4d578063adad039f14610a7d576103c4565b8063955d86a2116101ce578063955d86a21461096957806397c4fcba14610999578063997c3563146109b557806399caf3dc146109d1576103c4565b80638b20f466146108d15780638b2813ac146109015780638c4b47381461091d5780639239c3ce1461094d576103c4565b80632b1ad7d0116102ef5780634ac91ab6116102825780635ecca7bd116102515780635ecca7bd1461082557806362bdba81146108555780637c020879146108855780637cdb3fb2146108b5576103c4565b80634ac91ab61461078d578063507cd30f146107a957806354b86f19146107c55780635ae13b00146107f5576103c4565b80633346e2f9116102be5780633346e2f9146106e15780633401d7de146106fd578063358b81661461072d578063384515981461075d576103c4565b80632b1ad7d0146106355780632b7f63fc146106655780632d024a4814610695578063302f125e146106b1576103c4565b80631683504e116103675780631cfbcd1b116103365780631cfbcd1b1461059d5780631ffbdb78146105cd578063247cb72d146105e95780632691b9aa14610619576103c4565b80631683504e146105055780631876e9c3146105355780631aed49d5146105515780631bd172d014610581576103c4565b80630907ddb8116103a35780630907ddb8146104455780630d8d57d6146104755780631042876d146104a55780631434f9cd146104d5576103c4565b806290d356146103c957806305ffb9e0146103f9578063073393b614610415575b600080fd5b6103e360048036038101906103de9190612244565b610e09565b6040516103f0919061230a565b60405180910390f35b610413600480360381019061040e9190612362565b610ea9565b005b61042f600480360381019061042a9190612244565b610f13565b60405161043c91906123b1565b60405180910390f35b61045f600480360381019061045a9190612244565b610f5c565b60405161046c91906123b1565b60405180910390f35b61048f600480360381019061048a9190612244565b610f74565b60405161049c919061230a565b60405180910390f35b6104bf60048036038101906104ba9190612244565b611045565b6040516104cc919061230a565b60405180910390f35b6104ef60048036038101906104ea9190612244565b611115565b6040516104fc91906123b1565b60405180910390f35b61051f600480360381019061051a9190612362565b611161565b60405161052c91906123b1565b60405180910390f35b61054f600480360381019061054a9190612501565b611192565b005b61056b60048036038101906105669190612244565b61123b565b60405161057891906123b1565b60405180910390f35b61059b60048036038101906105969190612362565b611284565b005b6105b760048036038101906105b29190612244565b6112ee565b6040516105c491906123b1565b60405180910390f35b6105e760048036038101906105e29190612362565b611337565b005b61060360048036038101906105fe9190612362565b61137f565b60405161061091906123b1565b60405180910390f35b610633600480360381019061062e9190612501565b6113e5565b005b61064f600480360381019061064a9190612244565b611481565b60405161065c91906123b1565b60405180910390f35b61067f600480360381019061067a9190612362565b6114ca565b60405161068c91906123b1565b60405180910390f35b6106af60048036038101906106aa9190612362565b6114fb565b005b6106cb60048036038101906106c69190612244565b611543565b6040516106d891906123b1565b60405180910390f35b6106fb60048036038101906106f69190612362565b61155b565b005b61071760048036038101906107129190612244565b6115a3565b60405161072491906123b1565b60405180910390f35b61074760048036038101906107429190612244565b6115bb565b60405161075491906123b1565b60405180910390f35b61077760048036038101906107729190612244565b6115d3565b60405161078491906123b1565b60405180910390f35b6107a760048036038101906107a29190612362565b61161c565b005b6107c360048036038101906107be9190612362565b611686565b005b6107df60048036038101906107da9190612244565b6116e0565b6040516107ec91906123b1565b60405180910390f35b61080f600480360381019061080a9190612244565b6116f8565b60405161081c919061230a565b60405180910390f35b61083f600480360381019061083a9190612244565b611798565b60405161084c91906123b1565b60405180910390f35b61086f600480360381019061086a9190612244565b6117e1565b60405161087c91906123b1565b60405180910390f35b61089f600480360381019061089a9190612362565b6117f9565b6040516108ac91906123b1565b60405180910390f35b6108cf60048036038101906108ca9190612501565b61182a565b005b6108eb60048036038101906108e69190612244565b611882565b6040516108f891906123b1565b60405180910390f35b61091b60048036038101906109169190612362565b61189a565b005b61093760048036038101906109329190612244565b6118e2565b60405161094491906123b1565b60405180910390f35b61096760048036038101906109629190612362565b6118fa565b005b610983600480360381019061097e9190612362565b611942565b60405161099091906123b1565b60405180910390f35b6109b360048036038101906109ae9190612362565b6119a8565b005b6109cf60048036038101906109ca9190612362565b6119f0565b005b6109eb60048036038101906109e69190612362565b611a38565b005b610a076004803603810190610a029190612244565b611a80565b604051610a1491906123b1565b60405180910390f35b610a376004803603810190610a329190612244565b611ac9565b604051610a4491906123b1565b60405180910390f35b610a676004803603810190610a629190612244565b611b12565b604051610a7491906123b1565b60405180910390f35b610a976004803603810190610a929190612244565b611b5e565b604051610aa491906123b1565b60405180910390f35b610ac76004803603810190610ac29190612362565b611b76565b604051610ad491906123b1565b60405180910390f35b610af76004803603810190610af29190612244565b611bdc565b604051610b04919061230a565b60405180910390f35b610b276004803603810190610b229190612244565b611c7c565b604051610b3491906123b1565b60405180910390f35b610b576004803603810190610b529190612244565b611cc5565b604051610b6491906123b1565b60405180910390f35b610b876004803603810190610b829190612244565b611d0e565b604051610b9491906123b1565b60405180910390f35b610bb76004803603810190610bb29190612244565b611d5a565b604051610bc491906123b1565b60405180910390f35b610be76004803603810190610be29190612244565b611da3565b604051610bf491906123b1565b60405180910390f35b610c176004803603810190610c129190612244565b611dbb565b604051610c24919061230a565b60405180910390f35b610c476004803603810190610c429190612244565b611e8c565b604051610c5491906123b1565b60405180910390f35b610c776004803603810190610c729190612244565b611ea4565b604051610c8491906123b1565b60405180910390f35b610ca76004803603810190610ca29190612362565b611ebc565b005b610cc36004803603810190610cbe9190612244565b611f04565b604051610cd091906123b1565b60405180910390f35b610cf36004803603810190610cee9190612362565b611f1c565b005b610d0f6004803603810190610d0a9190612362565b611f64565b005b610d2b6004803603810190610d269190612362565b611fac565b005b610d476004803603810190610d429190612244565b611ff4565b604051610d5491906123b1565b60405180910390f35b610d776004803603810190610d729190612244565b61203d565b604051610d8491906123b1565b60405180910390f35b610da76004803603810190610da29190612244565b612086565b604051610db491906123b1565b60405180910390f35b610dd76004803603810190610dd29190612244565b61209e565b604051610de491906123b1565b60405180910390f35b610e076004803603810190610e029190612362565b6120e7565b005b60016020528060005260406000206000915090508054610e289061258c565b80601f0160208091040260200160405190810160405280929190818152602001828054610e549061258c565b8015610ea15780601f10610e7657610100808354040283529160200191610ea1565b820191906000526020600020905b815481529060010190602001808311610e8457829003601f168201915b505050505081565b600860008373ffffffffffffffffffffffffffffffffffffffff1673ffffffffffffffffffffffffffffffffffffffff1681526020019081526020016000208190806001815401808255809150506001900390600052602060002001600090919091909150555050565b6000600c60008373ffffffffffffffffffffffffffffffffffffffff1673ffffffffffffffffffffffffffffffffffffffff168152602001908152602001600020549050919050565b60106020528060005260406000206000915090505481565b6060600160008373ffffffffffffffffffffffffffffffffffffffff1673ffffffffffffffffffffffffffffffffffffffff1681526020019081526020016000208054610fc09061258c565b80601f0160208091040260200160405190810160405280929190818152602001828054610fec9061258c565b80156110395780601f1061100e57610100808354040283529160200191611039565b820191906000526020600020905b81548152906001019060200180831161101c57829003601f168201915b50505050509050919050565b60606000808373ffffffffffffffffffffffffffffffffffffffff1673ffffffffffffffffffffffffffffffffffffffff16815260200190815260200160002080546110909061258c565b80601f01602080910402602001604051908101604052809291908181526020018280546110bc9061258c565b80156111095780601f106110de57610100808354040283529160200191611109565b820191906000526020600020905b8154815290600101906020018083116110ec57829003601f168201915b50505050509050919050565b6000600860008373ffffffffffffffffffffffffffffffffffffffff1673ffffffffffffffffffffffffffffffffffffffff168152602001908152602001600020805490509050919050565b6008602052816000526040600020818154811061117d57600080fd5b90600052602060002001600091509150505481565b600081511180156111a55750601e815111155b6111e4576040517f08c379a00000000000000000000000000000000000000000000000000000000081526004016111db90612630565b60405180910390fd5b806000808473ffffffffffffffffffffffffffffffffffffffff1673ffffffffffffffffffffffffffffffffffffffff168152602001908152602001600020908051906020019061123692919061212f565b505050565b6000600d60008373ffffffffffffffffffffffffffffffffffffffff1673ffffffffffffffffffffffffffffffffffffffff168152602001908152602001600020549050919050565b600560008373ffffffffffffffffffffffffffffffffffffffff1673ffffffffffffffffffffffffffffffffffffffff1681526020019081526020016000208190806001815401808255809150506001900390600052602060002001600090919091909150555050565b6000600f60008373ffffffffffffffffffffffffffffffffffffffff1673ffffffffffffffffffffffffffffffffffffffff168152602001908152602001600020549050919050565b80601260008473ffffffffffffffffffffffffffffffffffffffff1673ffffffffffffffffffffffffffffffffffffffff168152602001908152602001600020819055505050565b6000600960008473ffffffffffffffffffffffffffffffffffffffff1673ffffffffffffffffffffffffffffffffffffffff16815260200190815260200160002082815481106113d2576113d1612650565b5b9060005260206000200154905092915050565b6000815111611429576040517f08c379a0000000000000000000000000000000000000000000000000000000008152600401611420906126f1565b60405180910390fd5b80600160008473ffffffffffffffffffffffffffffffffffffffff1673ffffffffffffffffffffffffffffffffffffffff168152602001908152602001600020908051906020019061147c92919061212f565b505050565b6000600460008373ffffffffffffffffffffffffffffffffffffffff1673ffffffffffffffffffffffffffffffffffffffff168152602001908152602001600020549050919050565b600560205281600052604060002081815481106114e657600080fd5b90600052602060002001600091509150505481565b80600e60008473ffffffffffffffffffffffffffffffffffffffff1673ffffffffffffffffffffffffffffffffffffffff168152602001908152602001600020819055505050565b600d6020528060005260406000206000915090505481565b80600460008473ffffffffffffffffffffffffffffffffffffffff1673ffffffffffffffffffffffffffffffffffffffff168152602001908152602001600020819055505050565b60026020528060005260406000206000915090505481565b60066020528060005260406000206000915090505481565b6000600260008373ffffffffffffffffffffffffffffffffffffffff1673ffffffffffffffffffffffffffffffffffffffff168152602001908152602001600020549050919050565b600960008373ffffffffffffffffffffffffffffffffffffffff1673ffffffffffffffffffffffffffffffffffffffff1681526020019081526020016000208190806001815401808255809150506001900390600052602060002001600090919091909150555050565b80600660008473ffffffffffffffffffffffffffffffffffffffff1673ffffffffffffffffffffffffffffffffffffffff16815260200190815260200160002060008282546116d59190612740565b925050819055505050565b60076020528060005260406000206000915090505481565b600060205280600052604060002060009150905080546117179061258c565b80601f01602080910402602001604051908101604052809291908181526020018280546117439061258c565b80156117905780601f1061176557610100808354040283529160200191611790565b820191906000526020600020905b81548152906001019060200180831161177357829003601f168201915b505050505081565b6000600e60008373ffffffffffffffffffffffffffffffffffffffff1673ffffffffffffffffffffffffffffffffffffffff168152602001908152602001600020549050919050565b60116020528060005260406000206000915090505481565b6009602052816000526040600020818154811061181557600080fd5b90600052602060002001600091509150505481565b80600360008473ffffffffffffffffffffffffffffffffffffffff1673ffffffffffffffffffffffffffffffffffffffff168152602001908152602001600020908051906020019061187d92919061212f565b505050565b600a6020528060005260406000206000915090505481565b80601060008473ffffffffffffffffffffffffffffffffffffffff1673ffffffffffffffffffffffffffffffffffffffff168152602001908152602001600020819055505050565b60046020528060005260406000206000915090505481565b80600f60008473ffffffffffffffffffffffffffffffffffffffff1673ffffffffffffffffffffffffffffffffffffffff168152602001908152602001600020819055505050565b6000600860008473ffffffffffffffffffffffffffffffffffffffff1673ffffffffffffffffffffffffffffffffffffffff168152602001908152602001600020828154811061199557611994612650565b5b9060005260206000200154905092915050565b80601160008473ffffffffffffffffffffffffffffffffffffffff1673ffffffffffffffffffffffffffffffffffffffff168152602001908152602001600020819055505050565b80600a60008473ffffffffffffffffffffffffffffffffffffffff1673ffffffffffffffffffffffffffffffffffffffff168152602001908152602001600020819055505050565b80600c60008473ffffffffffffffffffffffffffffffffffffffff1673ffffffffffffffffffffffffffffffffffffffff168152602001908152602001600020819055505050565b6000601260008373ffffffffffffffffffffffffffffffffffffffff1673ffffffffffffffffffffffffffffffffffffffff168152602001908152602001600020549050919050565b6000600760008373ffffffffffffffffffffffffffffffffffffffff1673ffffffffffffffffffffffffffffffffffffffff168152602001908152602001600020549050919050565b6000600960008373ffffffffffffffffffffffffffffffffffffffff1673ffffffffffffffffffffffffffffffffffffffff168152602001908152602001600020805490509050919050565b600c6020528060005260406000206000915090505481565b6000600560008473ffffffffffffffffffffffffffffffffffffffff1673ffffffffffffffffffffffffffffffffffffffff1681526020019081526020016000208281548110611bc957611bc8612650565b5b9060005260206000200154905092915050565b60036020528060005260406000206000915090508054611bfb9061258c565b80601f0160208091040260200160405190810160405280929190818152602001828054611c279061258c565b8015611c745780601f10611c4957610100808354040283529160200191611c74565b820191906000526020600020905b815481529060010190602001808311611c5757829003601f168201915b505050505081565b6000600b60008373ffffffffffffffffffffffffffffffffffffffff1673ffffffffffffffffffffffffffffffffffffffff168152602001908152602001600020549050919050565b6000601060008373ffffffffffffffffffffffffffffffffffffffff1673ffffffffffffffffffffffffffffffffffffffff168152602001908152602001600020549050919050565b6000600560008373ffffffffffffffffffffffffffffffffffffffff1673ffffffffffffffffffffffffffffffffffffffff168152602001908152602001600020805490509050919050565b6000601360008373ffffffffffffffffffffffffffffffffffffffff1673ffffffffffffffffffffffffffffffffffffffff168152602001908152602001600020549050919050565b60126020528060005260406000206000915090505481565b6060600360008373ffffffffffffffffffffffffffffffffffffffff1673ffffffffffffffffffffffffffffffffffffffff1681526020019081526020016000208054611e079061258c565b80601f0160208091040260200160405190810160405280929190818152602001828054611e339061258c565b8015611e805780601f10611e5557610100808354040283529160200191611e80565b820191906000526020600020905b815481529060010190602001808311611e6357829003601f168201915b50505050509050919050565b600f6020528060005260406000206000915090505481565b60136020528060005260406000206000915090505481565b80600d60008473ffffffffffffffffffffffffffffffffffffffff1673ffffffffffffffffffffffffffffffffffffffff168152602001908152602001600020819055505050565b600e6020528060005260406000206000915090505481565b80601360008473ffffffffffffffffffffffffffffffffffffffff1673ffffffffffffffffffffffffffffffffffffffff168152602001908152602001600020819055505050565b80600260008473ffffffffffffffffffffffffffffffffffffffff1673ffffffffffffffffffffffffffffffffffffffff168152602001908152602001600020819055505050565b80600760008473ffffffffffffffffffffffffffffffffffffffff1673ffffffffffffffffffffffffffffffffffffffff168152602001908152602001600020819055505050565b6000600a60008373ffffffffffffffffffffffffffffffffffffffff1673ffffffffffffffffffffffffffffffffffffffff168152602001908152602001600020549050919050565b6000600660008373ffffffffffffffffffffffffffffffffffffffff1673ffffffffffffffffffffffffffffffffffffffff168152602001908152602001600020549050919050565b600b6020528060005260406000206000915090505481565b6000601160008373ffffffffffffffffffffffffffffffffffffffff1673ffffffffffffffffffffffffffffffffffffffff168152602001908152602001600020549050919050565b80600b60008473ffffffffffffffffffffffffffffffffffffffff1673ffffffffffffffffffffffffffffffffffffffff168152602001908152602001600020819055505050565b82805461213b9061258c565b90600052602060002090601f01602090048101928261215d57600085556121a4565b82601f1061217657805160ff19168380011785556121a4565b828001600101855582156121a4579182015b828111156121a3578251825591602001919060010190612188565b5b5090506121b191906121b5565b5090565b5b808211156121ce5760008160009055506001016121b6565b5090565b6000604051905090565b600080fd5b600080fd5b600073ffffffffffffffffffffffffffffffffffffffff82169050919050565b6000612211826121e6565b9050919050565b61222181612206565b811461222c57600080fd5b50565b60008135905061223e81612218565b92915050565b60006020828403121561225a576122596121dc565b5b60006122688482850161222f565b91505092915050565b600081519050919050565b600082825260208201905092915050565b60005b838110156122ab578082015181840152602081019050612290565b838111156122ba576000848401525b50505050565b6000601f19601f8301169050919050565b60006122dc82612271565b6122e6818561227c565b93506122f681856020860161228d565b6122ff816122c0565b840191505092915050565b6000602082019050818103600083015261232481846122d1565b905092915050565b6000819050919050565b61233f8161232c565b811461234a57600080fd5b50565b60008135905061235c81612336565b92915050565b60008060408385031215612379576123786121dc565b5b60006123878582860161222f565b92505060206123988582860161234d565b9150509250929050565b6123ab8161232c565b82525050565b60006020820190506123c660008301846123a2565b92915050565b600080fd5b600080fd5b7f4e487b7100000000000000000000000000000000000000000000000000000000600052604160045260246000fd5b61240e826122c0565b810181811067ffffffffffffffff8211171561242d5761242c6123d6565b5b80604052505050565b60006124406121d2565b905061244c8282612405565b919050565b600067ffffffffffffffff82111561246c5761246b6123d6565b5b612475826122c0565b9050602081019050919050565b82818337600083830152505050565b60006124a461249f84612451565b612436565b9050828152602081018484840111156124c0576124bf6123d1565b5b6124cb848285612482565b509392505050565b600082601f8301126124e8576124e76123cc565b5b81356124f8848260208601612491565b91505092915050565b60008060408385031215612518576125176121dc565b5b60006125268582860161222f565b925050602083013567ffffffffffffffff811115612547576125466121e1565b5b612553858286016124d3565b9150509250929050565b7f4e487b7100000000000000000000000000000000000000000000000000000000600052602260045260246000fd5b600060028204905060018216806125a457607f821691505b602082108114156125b8576125b761255d565b5b50919050565b7f446973706c6179206e616d65206c656e677468206d7573742062652061626f7660008201527f65203020616e642062656c6f7720333020636861727300000000000000000000602082015250565b600061261a60368361227c565b9150612625826125be565b604082019050919050565b600060208201905081810360008301526126498161260d565b9050919050565b7f4e487b7100000000000000000000000000000000000000000000000000000000600052603260045260246000fd5b7f506c656173652073656c65637420612076616c69642070726f66696c6520706960008201527f6374757265000000000000000000000000000000000000000000000000000000602082015250565b60006126db60258361227c565b91506126e68261267f565b604082019050919050565b6000602082019050818103600083015261270a816126ce565b9050919050565b7f4e487b7100000000000000000000000000000000000000000000000000000000600052601160045260246000fd5b600061274b8261232c565b91506127568361232c565b9250827fffffffffffffffffffffffffffffffffffffffffffffffffffffffffffffffff0382111561278b5761278a612711565b5b82820190509291505056fea264697066735822122049d5b7217ac53756c79390ce551bff1e53d653f615589f41db2f7738a2e3248f64736f6c634300080a0033",
  "immutableReferences": {},
  "source": "// SPDX-License-Identifier: UNLICENSED\r\npragma solidity >= 0.8.0;\r\n\r\ncontract Storage {\r\n  // User properties\r\n  mapping(address => string) public displayName;\r\n  mapping(address => string) public profilePic;\r\n  mapping(address => uint256) public age;\r\n  mapping(address => string) public gender;\r\n  mapping(address => uint256) public height;\r\n  mapping(address => uint256[]) public weight;\r\n  mapping(address => uint256) public points;\r\n  mapping(address => uint256) public weightGoal;\r\n  mapping(address => uint256[]) public caloriesEaten;\r\n  mapping(address => uint256[]) public caloriesBurned;\r\n  mapping(address => uint256) public dailyStepGoal;\r\n  mapping(address => uint256) public weeklyStepGoal;\r\n  mapping(address => uint256) public dailyCardioGoal;\r\n  mapping(address => uint256) public weeklyCardioGoal;\r\n  mapping(address => uint256) public dailyStrengthTrainingGoal;\r\n  mapping(address => uint256) public weeklyStrengthTrainingGoal;\r\n  mapping(address => uint256) public dailySleepGoal;\r\n  mapping(address => uint256) public weeklySleepGoal;\r\n  mapping(address => uint256) public dailyWellbeingGoal;\r\n  mapping(address => uint256) public weeklyWellbeingGoal;\r\n\r\n  // Getters\r\n  function getDisplayName(address userAddress) public view returns(string memory) {\r\n    return displayName[userAddress];\r\n  }\r\n\r\n  function getProfilePic(address userAddress) public view returns(string memory) {\r\n    return profilePic[userAddress];\r\n  }\r\n\r\n  function getAge(address userAddress) public view returns(uint256) {\r\n    return age[userAddress];\r\n  }\r\n\r\n  function getGender(address userAddress) public view returns(string memory) {\r\n    return gender[userAddress];\r\n  }\r\n\r\n  function getHeight(address userAddress) public view returns(uint256) {\r\n    return height[userAddress];\r\n  }\r\n\r\n  function getWeightCount(address userAddress) public view returns(uint256) {\r\n    return weight[userAddress].length;\r\n  }\r\n\r\n  function getWeight(address userAddress, uint256 index) public view returns(uint256) {\r\n    return weight[userAddress][index];\r\n  }\r\n\r\n  function getPoints(address userAddress) public view returns(uint256) {\r\n    return points[userAddress];\r\n  }\r\n\r\n  function getWeightGoal(address userAddress) public view returns(uint256) {\r\n    return weightGoal[userAddress];\r\n  }\r\n\r\n  function getCaloriesEatenCount(address userAddress) public view returns(uint256) {\r\n    return caloriesEaten[userAddress].length;\r\n  }\r\n\r\n  function getCaloriesEaten(address userAddress, uint256 index) public view returns(uint256) {\r\n    return caloriesEaten[userAddress][index];\r\n  }\r\n\r\n  function getCaloriesBurnedCount(address userAddress) public view returns(uint256) {\r\n    return caloriesBurned[userAddress].length;\r\n  }\r\n\r\n  function getCaloriesBurned(address userAddress, uint256 index) public view returns(uint256) {\r\n    return caloriesBurned[userAddress][index];\r\n  }\r\n\r\n  function getDailyStepGoal(address userAddress) public view returns(uint256) {\r\n    return dailyStepGoal[userAddress];\r\n  }\r\n\r\n  function getWeeklyStepGoal(address userAddress) public view returns(uint256) {\r\n    return weeklyStepGoal[userAddress];\r\n  }\r\n\r\n  function getDailyCardioGoal(address userAddress) public view returns(uint256) {\r\n    return dailyCardioGoal[userAddress];\r\n  }\r\n\r\n  function getWeeklyCardioGoal(address userAddress) public view returns(uint256) {\r\n    return weeklyCardioGoal[userAddress];\r\n  }\r\n\r\n  function getDailyStrengthTrainingGoal(address userAddress) public view returns(uint256) {\r\n    return dailyStrengthTrainingGoal[userAddress];\r\n  }\r\n\r\n  function getWeeklyStrengthTrainingGoal(address userAddress) public view returns(uint256) {\r\n    return weeklyStrengthTrainingGoal[userAddress];\r\n  }\r\n\r\n  function getDailySleepGoal(address userAddress) public view returns(uint256) {\r\n    return dailySleepGoal[userAddress];\r\n  }\r\n\r\n  function getWeeklySleepGoal(address userAddress) public view returns(uint256) {\r\n    return weeklySleepGoal[userAddress];\r\n  }\r\n\r\n  function getDailyWellbeingGoal(address userAddress) public view returns(uint256) {\r\n    return dailyWellbeingGoal[userAddress];\r\n  }\r\n\r\n  function getWeeklyWellbeingGoal(address userAddress) public view returns(uint256) {\r\n    return weeklyWellbeingGoal[userAddress];\r\n  }\r\n\r\n  // Setters\r\n  function changeDisplayName(address userAddress, string memory newDisplayName) public {\r\n    require(bytes(newDisplayName).length > 0 && bytes(newDisplayName).length <= 30, \"Display name length must be above 0 and below 30 chars\");\r\n\r\n    displayName[userAddress] = newDisplayName;\r\n  }\r\n\r\n  function changeProfilePic(address userAddress, string memory newProfilePic) public {\r\n    require(bytes(newProfilePic).length > 0, \"Please select a valid profile picture\");\r\n\r\n    profilePic[userAddress] = newProfilePic;\r\n  }\r\n\r\n  function changeAge(address userAddress, uint256 newAge) public {\r\n    age[userAddress] = newAge;\r\n  }\r\n\r\n  function changeGender(address userAddress, string memory newGender) public {\r\n    gender[userAddress] = newGender;\r\n  }\r\n\r\n  function changeHeight(address userAddress, uint256 newHeight) public {\r\n    height[userAddress] = newHeight;\r\n  }\r\n \r\n  function changeWeight(address userAddress, uint256 newWeight) public {\r\n    weight[userAddress].push(newWeight);\r\n  }\r\n\r\n  function addPoints(address userAddress, uint256 pointsToAdd) public {\r\n    points[userAddress] += pointsToAdd;\r\n  }\r\n\r\n  function changeWeightGoal(address userAddress, uint256 newWeightGoal) public {\r\n    weightGoal[userAddress] = newWeightGoal;\r\n  }\r\n\r\n  function addCaloriesEatenToday(address userAddress, uint256 caloriesEatenToday) public {\r\n    caloriesEaten[userAddress].push(caloriesEatenToday);\r\n  }\r\n\r\n  function addCaloriesBurnedToday(address userAddress, uint256 caloriesBurnedToday) public {\r\n    caloriesBurned[userAddress].push(caloriesBurnedToday);\r\n  }\r\n\r\n  function changeDailyStepGoal(address userAddress, uint256 newDailyStepGoal) public {\r\n    dailyStepGoal[userAddress] = newDailyStepGoal;\r\n  }\r\n\r\n  function changeWeeklyStepGoal(address userAddress, uint256 newWeeklyStepGoal) public {\r\n    weeklyStepGoal[userAddress] = newWeeklyStepGoal;\r\n  }\r\n\r\n  function changeDailyCardioGoal(address userAddress, uint256 newDailyCardioGoal) public {\r\n    dailyCardioGoal[userAddress] = newDailyCardioGoal;\r\n  }\r\n\r\n  function changeWeeklyCardioGoal(address userAddress, uint256 newWeeklyCardioGoal) public {\r\n    weeklyCardioGoal[userAddress] = newWeeklyCardioGoal;\r\n  }\r\n\r\n  function changeDailyStrengthTrainingGoal(address userAddress, uint256 newDailyStrengthTrainingGoal) public {\r\n    dailyStrengthTrainingGoal[userAddress] = newDailyStrengthTrainingGoal;\r\n  }\r\n\r\n  function changeWeeklyStrengthTrainingGoal(address userAddress, uint256 newWeeklyStrengthTrainingGoal) public {\r\n    weeklyStrengthTrainingGoal[userAddress] = newWeeklyStrengthTrainingGoal;\r\n  }\r\n\r\n  function changeDailySleepGoal(address userAddress, uint256 newDailySleepGoal) public {\r\n    dailySleepGoal[userAddress] = newDailySleepGoal;\r\n  }\r\n\r\n  function changeWeeklySleepGoal(address userAddress, uint256 newWeeklySleepGoal) public {\r\n    weeklySleepGoal[userAddress] = newWeeklySleepGoal;\r\n  }\r\n\r\n  function changeDailyWellbeingGoal(address userAddress, uint256 newDailyWellbeingGoal) public {\r\n    dailyWellbeingGoal[userAddress] = newDailyWellbeingGoal;\r\n  }\r\n\r\n  function changeWeeklyWellbeingGoal(address userAddress, uint256 newWeeklyWellbeingGoal) public {\r\n    weeklyWellbeingGoal[userAddress] = newWeeklyWellbeingGoal;\r\n  }\r\n}",
  "sourcePath": "C:\\Users\\Cate\\Projects\\8Fit\\contracts\\Storage.sol",
  "compiler": {
    "name": "solc",
    "version": "0.8.10+commit.fc410830.Emscripten.clang"
  },
  "schemaVersion": "3.4.3",
  "updatedAt": "2022-10-05T02:02:39.539Z",
  "networkType": "ethereum",
  "devdoc": {
    "kind": "dev",
    "methods": {},
    "version": 1
  },
  "userdoc": {
    "kind": "user",
    "methods": {},
    "version": 1
  }
}